{
  "address": "0x7308F7f059DFde0b572CaebD26969c8a7fd64803",
  "abi": [
    {
      "inputs": [
        {
          "internalType": "uint256",
          "name": "_totalSupply",
          "type": "uint256"
        },
        {
          "internalType": "uint256",
          "name": "_taxRate",
          "type": "uint256"
        },
        {
          "internalType": "uint256",
          "name": "_cooldownPeriod",
          "type": "uint256"
        },
        {
          "internalType": "contract IERC20",
          "name": "_currency",
          "type": "address"
        },
        {
          "internalType": "address",
          "name": "_collector",
          "type": "address"
        },
        {
          "internalType": "string",
          "name": "_name",
          "type": "string"
        },
        {
          "internalType": "string",
          "name": "_symbol",
          "type": "string"
        },
        {
          "internalType": "string",
          "name": "_tokenURI",
          "type": "string"
        }
      ],
      "stateMutability": "nonpayable",
      "type": "constructor"
    },
    {
      "anonymous": false,
      "inputs": [
        {
          "indexed": false,
          "internalType": "uint256",
          "name": "tokenId",
          "type": "uint256"
        },
        {
          "indexed": false,
          "internalType": "string",
          "name": "uri",
          "type": "string"
        }
      ],
      "name": "AdSet",
      "type": "event"
    },
    {
      "anonymous": false,
      "inputs": [
        {
          "indexed": true,
          "internalType": "address",
          "name": "owner",
          "type": "address"
        },
        {
          "indexed": true,
          "internalType": "address",
          "name": "approved",
          "type": "address"
        },
        {
          "indexed": true,
          "internalType": "uint256",
          "name": "tokenId",
          "type": "uint256"
        }
      ],
      "name": "Approval",
      "type": "event"
    },
    {
      "anonymous": false,
      "inputs": [
        {
          "indexed": true,
          "internalType": "address",
          "name": "owner",
          "type": "address"
        },
        {
          "indexed": true,
          "internalType": "address",
          "name": "operator",
          "type": "address"
        },
        {
          "indexed": false,
          "internalType": "bool",
          "name": "approved",
          "type": "bool"
        }
      ],
      "name": "ApprovalForAll",
      "type": "event"
    },
    {
      "anonymous": false,
      "inputs": [
        {
          "indexed": true,
          "internalType": "uint256",
          "name": "_tokenId",
          "type": "uint256"
        },
        {
          "indexed": false,
          "internalType": "uint256",
          "name": "_value",
          "type": "uint256"
        }
      ],
      "name": "TaxPaid",
      "type": "event"
    },
    {
      "anonymous": false,
      "inputs": [
        {
          "indexed": true,
          "internalType": "uint256",
          "name": "_tokenId",
          "type": "uint256"
        },
        {
          "indexed": true,
          "internalType": "address",
          "name": "_owner",
          "type": "address"
        },
        {
          "indexed": false,
          "internalType": "uint256",
          "name": "_amount",
          "type": "uint256"
        }
      ],
      "name": "TokenBought",
      "type": "event"
    },
    {
      "anonymous": false,
      "inputs": [
        {
          "indexed": true,
          "internalType": "uint256",
          "name": "_tokenId",
          "type": "uint256"
        },
        {
          "indexed": false,
          "internalType": "uint256",
          "name": "_amount",
          "type": "uint256"
        }
      ],
      "name": "TokenFunded",
      "type": "event"
    },
    {
      "anonymous": false,
      "inputs": [
        {
          "indexed": true,
          "internalType": "address",
          "name": "from",
          "type": "address"
        },
        {
          "indexed": true,
          "internalType": "address",
          "name": "to",
          "type": "address"
        },
        {
          "indexed": true,
          "internalType": "uint256",
          "name": "tokenId",
          "type": "uint256"
        }
      ],
      "name": "Transfer",
      "type": "event"
    },
    {
      "anonymous": false,
      "inputs": [
        {
          "indexed": true,
          "internalType": "uint256",
          "name": "_tokenId",
          "type": "uint256"
        },
        {
          "indexed": false,
          "internalType": "uint256",
          "name": "_valuation",
          "type": "uint256"
        }
      ],
      "name": "ValuationSet",
      "type": "event"
    },
    {
      "inputs": [],
      "name": "DIVIDER",
      "outputs": [
        {
          "internalType": "uint256",
          "name": "",
          "type": "uint256"
        }
      ],
      "stateMutability": "view",
      "type": "function"
    },
    {
      "inputs": [
        {
          "internalType": "uint256",
          "name": "",
          "type": "uint256"
        }
      ],
      "name": "ads",
      "outputs": [
        {
          "internalType": "address",
          "name": "owner",
          "type": "address"
        },
        {
          "internalType": "uint256",
          "name": "valuation",
          "type": "uint256"
        },
        {
          "internalType": "uint256",
          "name": "fund",
          "type": "uint256"
        },
        {
          "internalType": "uint256",
          "name": "lastPaidTimestamp",
          "type": "uint256"
        },
        {
          "internalType": "uint256",
          "name": "nextValuationTimestamp",
          "type": "uint256"
        }
      ],
      "stateMutability": "view",
      "type": "function"
    },
    {
      "inputs": [
        {
          "internalType": "address",
          "name": "to",
          "type": "address"
        },
        {
          "internalType": "uint256",
          "name": "tokenId",
          "type": "uint256"
        }
      ],
      "name": "approve",
      "outputs": [],
      "stateMutability": "nonpayable",
      "type": "function"
    },
    {
      "inputs": [
        {
          "internalType": "address",
          "name": "",
          "type": "address"
        }
      ],
      "name": "balanceOf",
      "outputs": [
        {
          "internalType": "uint256",
          "name": "",
          "type": "uint256"
        }
      ],
      "stateMutability": "view",
      "type": "function"
    },
    {
      "inputs": [
        {
          "internalType": "uint256",
          "name": "_tokenId",
          "type": "uint256"
        },
        {
          "internalType": "uint256",
          "name": "_offer",
          "type": "uint256"
        },
        {
          "internalType": "uint256",
          "name": "_valuation",
          "type": "uint256"
        },
        {
          "internalType": "uint256",
          "name": "_fund",
          "type": "uint256"
        }
      ],
      "name": "buy",
      "outputs": [],
      "stateMutability": "nonpayable",
      "type": "function"
    },
    {
      "inputs": [
        {
          "internalType": "uint256",
          "name": "_tokenId",
          "type": "uint256"
        },
        {
          "internalType": "uint256",
          "name": "_valuation",
          "type": "uint256"
        }
      ],
      "name": "changeValuation",
      "outputs": [],
      "stateMutability": "nonpayable",
      "type": "function"
    },
    {
      "inputs": [
        {
          "internalType": "uint256",
          "name": "_tokenId",
          "type": "uint256"
        }
      ],
      "name": "collect",
      "outputs": [],
      "stateMutability": "nonpayable",
      "type": "function"
    },
    {
      "inputs": [],
      "name": "collector",
      "outputs": [
        {
          "internalType": "address",
          "name": "",
          "type": "address"
        }
      ],
      "stateMutability": "view",
      "type": "function"
    },
    {
      "inputs": [],
      "name": "cooldownPeriod",
      "outputs": [
        {
          "internalType": "uint256",
          "name": "",
          "type": "uint256"
        }
      ],
      "stateMutability": "view",
      "type": "function"
    },
    {
      "inputs": [],
      "name": "currency",
      "outputs": [
        {
          "internalType": "contract IERC20",
          "name": "",
          "type": "address"
        }
      ],
      "stateMutability": "view",
      "type": "function"
    },
    {
      "inputs": [
        {
          "internalType": "uint256",
          "name": "_tokenId",
          "type": "uint256"
        },
        {
          "internalType": "uint256",
          "name": "_value",
          "type": "uint256"
        }
      ],
      "name": "defund",
      "outputs": [],
      "stateMutability": "nonpayable",
      "type": "function"
    },
    {
      "inputs": [
        {
          "internalType": "uint256",
          "name": "_tokenId",
          "type": "uint256"
        }
      ],
      "name": "dueTaxes",
      "outputs": [
        {
          "internalType": "uint256",
          "name": "",
          "type": "uint256"
        }
      ],
      "stateMutability": "view",
      "type": "function"
    },
    {
      "inputs": [
        {
          "internalType": "uint256",
          "name": "_tokenId",
          "type": "uint256"
        },
        {
          "internalType": "uint256",
          "name": "_value",
          "type": "uint256"
        }
      ],
      "name": "fund",
      "outputs": [],
      "stateMutability": "nonpayable",
      "type": "function"
    },
    {
      "inputs": [
        {
          "internalType": "uint256",
          "name": "tokenId",
          "type": "uint256"
        }
      ],
      "name": "getApproved",
      "outputs": [
        {
          "internalType": "address",
          "name": "",
          "type": "address"
        }
      ],
      "stateMutability": "pure",
      "type": "function"
    },
    {
      "inputs": [
        {
          "internalType": "address",
          "name": "owner",
          "type": "address"
        },
        {
          "internalType": "address",
          "name": "operator",
          "type": "address"
        }
      ],
      "name": "isApprovedForAll",
      "outputs": [
        {
          "internalType": "bool",
          "name": "",
          "type": "bool"
        }
      ],
      "stateMutability": "pure",
      "type": "function"
    },
    {
      "inputs": [
        {
          "internalType": "uint256",
          "name": "_value",
          "type": "uint256"
        }
      ],
      "name": "minimumFund",
      "outputs": [
        {
          "internalType": "uint256",
          "name": "",
          "type": "uint256"
        }
      ],
      "stateMutability": "view",
      "type": "function"
    },
    {
      "inputs": [],
      "name": "name",
      "outputs": [
        {
          "internalType": "string",
          "name": "",
          "type": "string"
        }
      ],
      "stateMutability": "view",
      "type": "function"
    },
    {
      "inputs": [
        {
          "internalType": "uint256",
          "name": "_tokenId",
          "type": "uint256"
        }
      ],
      "name": "ownerOf",
      "outputs": [
        {
          "internalType": "address",
          "name": "",
          "type": "address"
        }
      ],
      "stateMutability": "view",
      "type": "function"
    },
    {
      "inputs": [
        {
          "internalType": "uint256",
          "name": "_tokenId",
          "type": "uint256"
        }
      ],
      "name": "revoke",
      "outputs": [],
      "stateMutability": "nonpayable",
      "type": "function"
    },
    {
      "inputs": [
        {
          "internalType": "address",
          "name": "_from",
          "type": "address"
        },
        {
          "internalType": "address",
          "name": "_to",
          "type": "address"
        },
        {
          "internalType": "uint256",
          "name": "_tokenId",
          "type": "uint256"
        }
      ],
      "name": "safeTransferFrom",
      "outputs": [],
      "stateMutability": "nonpayable",
      "type": "function"
    },
    {
      "inputs": [
        {
          "internalType": "address",
          "name": "_from",
          "type": "address"
        },
        {
          "internalType": "address",
          "name": "_to",
          "type": "address"
        },
        {
          "internalType": "uint256",
          "name": "_tokenId",
          "type": "uint256"
        },
        {
          "internalType": "bytes",
          "name": "_data",
          "type": "bytes"
        }
      ],
      "name": "safeTransferFrom",
      "outputs": [],
      "stateMutability": "nonpayable",
      "type": "function"
    },
    {
      "inputs": [
        {
          "internalType": "uint256",
          "name": "_tokenId",
          "type": "uint256"
        },
        {
          "internalType": "string",
          "name": "_uri",
          "type": "string"
        }
      ],
      "name": "setAd",
      "outputs": [],
      "stateMutability": "nonpayable",
      "type": "function"
    },
    {
      "inputs": [
        {
          "internalType": "address",
          "name": "operator",
          "type": "address"
        },
        {
          "internalType": "bool",
          "name": "_approved",
          "type": "bool"
        }
      ],
      "name": "setApprovalForAll",
      "outputs": [],
      "stateMutability": "nonpayable",
      "type": "function"
    },
    {
      "inputs": [
        {
          "internalType": "bytes4",
          "name": "interfaceId",
          "type": "bytes4"
        }
      ],
      "name": "supportsInterface",
      "outputs": [
        {
          "internalType": "bool",
          "name": "",
          "type": "bool"
        }
      ],
      "stateMutability": "pure",
      "type": "function"
    },
    {
      "inputs": [],
      "name": "symbol",
      "outputs": [
        {
          "internalType": "string",
          "name": "",
          "type": "string"
        }
      ],
      "stateMutability": "view",
      "type": "function"
    },
    {
      "inputs": [],
      "name": "taxRate",
      "outputs": [
        {
          "internalType": "uint256",
          "name": "",
          "type": "uint256"
        }
      ],
      "stateMutability": "view",
      "type": "function"
    },
    {
      "inputs": [
        {
          "internalType": "uint256",
          "name": "_value",
          "type": "uint256"
        }
      ],
      "name": "taxesPerSecond",
      "outputs": [
        {
          "internalType": "uint256",
          "name": "",
          "type": "uint256"
        }
      ],
      "stateMutability": "view",
      "type": "function"
    },
    {
      "inputs": [
        {
          "internalType": "uint256",
          "name": "tokenId",
          "type": "uint256"
        }
      ],
      "name": "tokenURI",
      "outputs": [
        {
          "internalType": "string",
          "name": "",
          "type": "string"
        }
      ],
      "stateMutability": "view",
      "type": "function"
    },
    {
      "inputs": [],
      "name": "totalSupply",
      "outputs": [
        {
          "internalType": "uint256",
          "name": "",
          "type": "uint256"
        }
      ],
      "stateMutability": "view",
      "type": "function"
    },
    {
      "inputs": [
        {
          "internalType": "address",
          "name": "_from",
          "type": "address"
        },
        {
          "internalType": "address",
          "name": "_to",
          "type": "address"
        },
        {
          "internalType": "uint256",
          "name": "_tokenId",
          "type": "uint256"
        }
      ],
      "name": "transferFrom",
      "outputs": [],
      "stateMutability": "nonpayable",
      "type": "function"
    }
  ],
  "transactionHash": "0xb7e1b451baebcd9cd9a4b119d5163ac8bbb547370cbc8cc82cbd074c7c779cdb",
  "args": [
    3,
    2000,
    100,
    "0x9c3C9283D3e44854697Cd22D3Faa240Cfb032889",
    "0x117Fa00bb08f39E52b04027cCF5BB9935C83C177",
    "EthCC Hack 2022",
    "HAC",
    "ipfs/QmYmLeBs4pZcX2qD9Lup2SxKJGWHFFRpDhC4JDjsgJVXgt/harbs.json"
  ],
  "numDeployments": 4,
  "solcInputHash": "2a35456c18fd2d1da94c58667b304583",
  "bytecode": "0x6101206040523480156200001257600080fd5b506040516200243038038062002430833981016040819052620000359162000238565b60c088905260808790526001600160a01b0380861660e05260a087905284166101005280516200006d906002906020840190620000a8565b50825162000083906004906020860190620000a8565b50815162000099906003906020850190620000a8565b5050505050505050506200034a565b828054620000b6906200030d565b90600052602060002090601f016020900481019282620000da576000855562000125565b82601f10620000f557805160ff191683800117855562000125565b8280016001018555821562000125579182015b828111156200012557825182559160200191906001019062000108565b506200013392915062000137565b5090565b5b8082111562000133576000815560010162000138565b80516001600160a01b03811681146200016657600080fd5b919050565b634e487b7160e01b600052604160045260246000fd5b600082601f8301126200019357600080fd5b81516001600160401b0380821115620001b057620001b06200016b565b604051601f8301601f19908116603f01168101908282118183101715620001db57620001db6200016b565b81604052838152602092508683858801011115620001f857600080fd5b600091505b838210156200021c5785820183015181830184015290820190620001fd565b838211156200022e5760008385830101525b9695505050505050565b600080600080600080600080610100898b0312156200025657600080fd5b8851975060208901519650604089015195506200027660608a016200014e565b94506200028660808a016200014e565b60a08a01519094506001600160401b0380821115620002a457600080fd5b620002b28c838d0162000181565b945060c08b0151915080821115620002c957600080fd5b620002d78c838d0162000181565b935060e08b0151915080821115620002ee57600080fd5b50620002fd8b828c0162000181565b9150509295985092959890939650565b600181811c908216806200032257607f821691505b602082108114156200034457634e487b7160e01b600052602260045260246000fd5b50919050565b60805160a05160c05160e05161010051611fc16200046f600039600081816104170152818161072b015281816108fa01528181610dbe0152818161140501528181611620015281816118c601526119dd0152600081816104c1015281816106fc0152818161082d015281816108b801528181610a0901528181610cf101528181610d910152818161101d015281816112510152818161132f015281816113d8015281816115f301526118f50152600081816103330152818161062201528181610c1101528181610e6001528181610f0601528181610fba0152818161110d015281816114a7015281816115750152818161166801526117c301526000818161021d01528181610b1501526117650152600081816103dd0152610f6a0152611fc16000f3fe608060405234801561001057600080fd5b50600436106101da5760003560e01c806370a0823111610104578063b88d4fde116100a2578063cf264e9a11610071578063cf264e9a146104a9578063e5a6b10f146104bc578063e6d28063146104e3578063e985e9c5146104f657600080fd5b8063b88d4fde14610462578063c397ae3914610470578063c87b56dd14610483578063ce3f865f1461049657600080fd5b8063913e77ad116100de578063913e77ad1461041257806395d89b4114610439578063a22cb46514610441578063a65e2cfd1461044f57600080fd5b806370a08231146103b8578063771a3a1d146103d85780638a784c4a146103ff57600080fd5b806318160ddd1161017c57806342842e0e1161014b57806342842e0e146103685780635a8b754d1461038957806362043bd81461039c5780636352211e146103a557600080fd5b806318160ddd1461032e57806320c5429b1461035557806323b872dd14610368578063379664041461037657600080fd5b8063081812fc116101b8578063081812fc14610262578063095ea7b31461028d57806311a7a4c0146102a25780631281311d1461031b57600080fd5b806301ffc9a7146101df57806304646a491461021857806306fdde031461024d575b600080fd5b6102036101ed366004611adf565b6001600160e01b03191663861c59cd60e01b1490565b60405190151581526020015b60405180910390f35b61023f7f000000000000000000000000000000000000000000000000000000000000000081565b60405190815260200161020f565b610255610504565b60405161020f9190611b09565b610275610270366004611b5e565b610596565b6040516001600160a01b03909116815260200161020f565b6102a061029b366004611b93565b6105d8565b005b6102e96102b0366004611b5e565b600060208190529081526040902080546001820154600283015460038401546004909401546001600160a01b0390931693919290919085565b604080516001600160a01b0390961686526020860194909452928401919091526060830152608082015260a00161020f565b6102a0610329366004611bbd565b610612565b61023f7f000000000000000000000000000000000000000000000000000000000000000081565b6102a0610363366004611b5e565b610c0f565b6102a061029b366004611bef565b61023f610384366004611b5e565b610e5c565b61023f610397366004611b5e565b610ee0565b61023f61271081565b6102756103b3366004611b5e565b610f02565b61023f6103c6366004611c2b565b60016020526000908152604090205481565b61023f7f000000000000000000000000000000000000000000000000000000000000000081565b61023f61040d366004611b5e565b610f5f565b6102757f000000000000000000000000000000000000000000000000000000000000000081565b610255610fa9565b6102a061029b366004611c57565b6102a061045d366004611c8e565b610fb8565b6102a061029b366004611cf9565b6102a061047e366004611c8e565b61110b565b610255610491366004611b5e565b6114a3565b6102a06104a4366004611b5e565b611573565b6102a06104b7366004611c8e565b611666565b6102757f000000000000000000000000000000000000000000000000000000000000000081565b6102a06104f1366004611d68565b6117c1565b610203610270366004611db4565b60606004805461051390611de7565b80601f016020809104026020016040519081016040528092919081815260200182805461053f90611de7565b801561058c5780601f106105615761010080835404028352916020019161058c565b820191906000526020600020905b81548152906001019060200180831161056f57829003601f168201915b5050505050905090565b60405162461bcd60e51b815260206004820152600f60248201526e1393d5081253541311535153951151608a1b60448201526000906064015b60405180910390fd5b60405162461bcd60e51b815260206004820152600f60248201526e1393d5081253541311535153951151608a1b60448201526064016105cf565b60008481526020819052604090207f0000000000000000000000000000000000000000000000000000000000000000851061065f5760405162461bcd60e51b81526004016105cf90611e22565b80546001600160a01b03163314156106b15760405162461bcd60e51b815260206004820152601560248201527410d85b89dd08189d5e481e5bdd5c881bdddb881859605a1b60448201526064016105cf565b60006106bc86610e5c565b825460028401549192506001600160a01b0316908211156107ad576106e58784600201546118a0565b6040516323b872dd60e01b81526001600160a01b037f000000000000000000000000000000000000000000000000000000000000000016906323b872dd906107559033907f0000000000000000000000000000000000000000000000000000000000000000908b90600401611e48565b602060405180830381600087803b15801561076f57600080fd5b505af1158015610783573d6000803e3d6000fd5b505050506040513d601f19601f820116820180604052508101906107a79190611e6c565b506109a7565b85836001015411156107f15760405162461bcd60e51b815260206004820152600d60248201526c2637bbb130b6361037b33332b960991b60448201526064016105cf565b6107ff8784600201546118a0565b8254600284015460405163a9059cbb60e01b81526001600160a01b03928316600482015260248101919091527f00000000000000000000000000000000000000000000000000000000000000009091169063a9059cbb90604401602060405180830381600087803b15801561087357600080fd5b505af1158015610887573d6000803e3d6000fd5b505050506040513d601f19601f820116820180604052508101906108ab9190611e6c565b5082546001600160a01b037f00000000000000000000000000000000000000000000000000000000000000008116916323b872dd91339116156108f85785546001600160a01b031661091a565b7f00000000000000000000000000000000000000000000000000000000000000005b896040518463ffffffff1660e01b815260040161093993929190611e48565b602060405180830381600087803b15801561095357600080fd5b505af1158015610967573d6000803e3d6000fd5b505050506040513d601f19601f8201168201806040525081019061098b9190611e6c565b6109a75760405162461bcd60e51b81526004016105cf90611e89565b6109b085610ee0565b8410156109f25760405162461bcd60e51b815260206004820152601060248201526f4e6f7420656e6f7567682066756e647360801b60448201526064016105cf565b6040516323b872dd60e01b81526001600160a01b037f000000000000000000000000000000000000000000000000000000000000000016906323b872dd90610a4290339030908990600401611e48565b602060405180830381600087803b158015610a5c57600080fd5b505af1158015610a70573d6000803e3d6000fd5b505050506040513d601f19601f82011682018060405250810190610a949190611e6c565b610ab05760405162461bcd60e51b81526004016105cf90611e89565b82546001600160a01b031615610af25782546001600160a01b031660009081526001602081905260408220805491929091610aec908490611ec5565b90915550505b82546001600160a01b031916331783556002830184905560018301859055610b3a7f000000000000000000000000000000000000000000000000000000000000000042611edc565b60048401554260038401553360009081526001602081905260408220805491929091610b67908490611edc565b9091555050604051879033906001600160a01b038416907fddf252ad1be2c89b69c2b068fc378daa952ba7f163c4a11628f55a4df523b3ef90600090a4867fb607f618d42004a68651337cff412752d042354c4fd3a56fe8ae01e34fa969c886604051610bd691815260200190565b60405180910390a286600080516020611f6c83398151915285604051610bfe91815260200190565b60405180910390a250505050505050565b7f00000000000000000000000000000000000000000000000000000000000000008110610c4e5760405162461bcd60e51b81526004016105cf90611e22565b600081815260208190526040902080546001600160a01b03163314610ca15760405162461bcd60e51b81526020600482015260096024820152682737ba1037bbb732b960b91b60448201526064016105cf565b6000610cac83610e5c565b905081600201548111610d7557610cc383826118a0565b8154600283015460405163a9059cbb60e01b81526001600160a01b03928316600482015260248101919091527f00000000000000000000000000000000000000000000000000000000000000009091169063a9059cbb90604401602060405180830381600087803b158015610d3757600080fd5b505af1158015610d4b573d6000803e3d6000fd5b505050506040513d601f19601f82011682018060405250810190610d6f9190611e6c565b50610e4e565b600282015460405163a9059cbb60e01b81526001600160a01b037f0000000000000000000000000000000000000000000000000000000000000000169163a9059cbb91610dfa917f0000000000000000000000000000000000000000000000000000000000000000916004016001600160a01b03929092168252602082015260400190565b602060405180830381600087803b158015610e1457600080fd5b505af1158015610e28573d6000803e3d6000fd5b505050506040513d601f19601f82011682018060405250810190610e4c9190611e6c565b505b610e57836119c3565b505050565b60007f00000000000000000000000000000000000000000000000000000000000000008210610e9d5760405162461bcd60e51b81526004016105cf90611e22565b60008281526020819052604081206001810154909190610ebc90610f5f565b9050816003015442610ece9190611ec5565b610ed89082611ef4565b949350505050565b600080610eec83610f5f565b9050610efb81622819a0611ef4565b9392505050565b60007f00000000000000000000000000000000000000000000000000000000000000008210610f435760405162461bcd60e51b81526004016105cf90611e22565b506000908152602081905260409020546001600160a01b031690565b600080612710610f8f7f000000000000000000000000000000000000000000000000000000000000000085611ef4565b610f999190611f13565b9050610efb6301e1338082611f13565b60606003805461051390611de7565b7f00000000000000000000000000000000000000000000000000000000000000008210610ff75760405162461bcd60e51b81526004016105cf90611e22565b6000828152602081905260409081902090516323b872dd60e01b81526001600160a01b037f000000000000000000000000000000000000000000000000000000000000000016906323b872dd9061105690339030908790600401611e48565b602060405180830381600087803b15801561107057600080fd5b505af1158015611084573d6000803e3d6000fd5b505050506040513d601f19601f820116820180604052508101906110a89190611e6c565b6110c45760405162461bcd60e51b81526004016105cf90611e89565b818160020160008282546110d89190611edc565b909155505060028101546040519081528390600080516020611f6c833981519152906020015b60405180910390a2505050565b7f0000000000000000000000000000000000000000000000000000000000000000821061114a5760405162461bcd60e51b81526004016105cf90611e22565b600082815260208190526040902080546001600160a01b0316331461119d5760405162461bcd60e51b81526020600482015260096024820152682737ba1037bbb732b960b91b60448201526064016105cf565b80600401544210156111e25760405162461bcd60e51b815260206004820152600e60248201526d57616974206d6f72652074696d6560901b60448201526064016105cf565b60006111ed84610e5c565b9050816002015481116113bc5761120484826118a0565b816002015483101561130157828260020160008282546112249190611ec5565b9091555050815460405163a9059cbb60e01b81526001600160a01b039182166004820152602481018590527f00000000000000000000000000000000000000000000000000000000000000009091169063a9059cbb90604401602060405180830381600087803b15801561129757600080fd5b505af11580156112ab573d6000803e3d6000fd5b505050506040513d601f19601f820116820180604052508101906112cf9190611e6c565b5083600080516020611f6c83398151915283600201546040516112f491815260200190565b60405180910390a261149d565b8154600283015460405163a9059cbb60e01b81526001600160a01b03928316600482015260248101919091527f00000000000000000000000000000000000000000000000000000000000000009091169063a9059cbb90604401602060405180830381600087803b15801561137557600080fd5b505af1158015611389573d6000803e3d6000fd5b505050506040513d601f19601f820116820180604052508101906113ad9190611e6c565b506113b7846119c3565b61149d565b600282015460405163a9059cbb60e01b81526001600160a01b037f0000000000000000000000000000000000000000000000000000000000000000169163a9059cbb91611441917f0000000000000000000000000000000000000000000000000000000000000000916004016001600160a01b03929092168252602082015260400190565b602060405180830381600087803b15801561145b57600080fd5b505af115801561146f573d6000803e3d6000fd5b505050506040513d601f19601f820116820180604052508101906114939190611e6c565b5061149d846119c3565b50505050565b60607f000000000000000000000000000000000000000000000000000000000000000082101561155f57600280546114da90611de7565b80601f016020809104026020016040519081016040528092919081815260200182805461150690611de7565b80156115535780601f1061152857610100808354040283529160200191611553565b820191906000526020600020905b81548152906001019060200180831161153657829003601f168201915b50505050509050919050565b505060408051602081019091526000815290565b7f000000000000000000000000000000000000000000000000000000000000000081106115b25760405162461bcd60e51b81526004016105cf90611e22565b6000818152602081905260408120906115ca83610e5c565b90508160020154811061165c57600282015460405163a9059cbb60e01b81526001600160a01b037f0000000000000000000000000000000000000000000000000000000000000000169163a9059cbb91610dfa917f0000000000000000000000000000000000000000000000000000000000000000916004016001600160a01b03929092168252602082015260400190565b610e5783826118a0565b7f000000000000000000000000000000000000000000000000000000000000000082106116a55760405162461bcd60e51b81526004016105cf90611e22565b600082815260208190526040902080546001600160a01b031633146116f95760405162461bcd60e51b815260206004820152600a60248201526927b7363c9037bbb732b960b11b60448201526064016105cf565b81816001015411156117505780600401544210156117505760405162461bcd60e51b8152602060048201526014602482015273546f6f20736f6f6e20746f20646563726561736560601b60448201526064016105cf565b61175983611573565b6001810182905561178a7f000000000000000000000000000000000000000000000000000000000000000042611edc565b600482015560405182815283907fb607f618d42004a68651337cff412752d042354c4fd3a56fe8ae01e34fa969c8906020016110fe565b7f000000000000000000000000000000000000000000000000000000000000000083106118005760405162461bcd60e51b81526004016105cf90611e22565b600083815260208190526040902080546001600160a01b0316331461185f5760405162461bcd60e51b815260206004820152601560248201527413db9b1e481bdddb995c8818da185b99d95cc81859605a1b60448201526064016105cf565b7fae0663072bcb7f24f009e8ad0e7bd01cb00a189760d428d8ff269525830db40784848460405161189293929190611f35565b60405180910390a150505050565b60008281526020819052604090819020905163a9059cbb60e01b81526001600160a01b037f000000000000000000000000000000000000000000000000000000000000000081166004830152602482018490527f0000000000000000000000000000000000000000000000000000000000000000169063a9059cbb90604401602060405180830381600087803b15801561193957600080fd5b505af115801561194d573d6000803e3d6000fd5b505050506040513d601f19601f820116820180604052508101906119719190611e6c565b50818160020160008282546119869190611ec5565b909155505042600382015560405182815283907f65c3c2ca9c0a91fa382799173e8eaba4f2d15dc17f9d7b3194a673f5311ccdaa906020016110fe565b6000818152602081815260408083208054600282018590557f00000000000000000000000000000000000000000000000000000000000000006001600160a01b039081166001600160a01b03198316178355600180840187905533875294859052928520805492959390911693929091611a3e908490611ec5565b90915550506040516000815283907fb607f618d42004a68651337cff412752d042354c4fd3a56fe8ae01e34fa969c89060200160405180910390a282600080516020611f6c8339815191526000604051611a9a91815260200190565b60405180910390a260405183906000906001600160a01b038416907fddf252ad1be2c89b69c2b068fc378daa952ba7f163c4a11628f55a4df523b3ef908390a4505050565b600060208284031215611af157600080fd5b81356001600160e01b031981168114610efb57600080fd5b600060208083528351808285015260005b81811015611b3657858101830151858201604001528201611b1a565b81811115611b48576000604083870101525b50601f01601f1916929092016040019392505050565b600060208284031215611b7057600080fd5b5035919050565b80356001600160a01b0381168114611b8e57600080fd5b919050565b60008060408385031215611ba657600080fd5b611baf83611b77565b946020939093013593505050565b60008060008060808587031215611bd357600080fd5b5050823594602084013594506040840135936060013592509050565b600080600060608486031215611c0457600080fd5b611c0d84611b77565b9250611c1b60208501611b77565b9150604084013590509250925092565b600060208284031215611c3d57600080fd5b610efb82611b77565b8015158114611c5457600080fd5b50565b60008060408385031215611c6a57600080fd5b611c7383611b77565b91506020830135611c8381611c46565b809150509250929050565b60008060408385031215611ca157600080fd5b50508035926020909101359150565b60008083601f840112611cc257600080fd5b50813567ffffffffffffffff811115611cda57600080fd5b602083019150836020828501011115611cf257600080fd5b9250929050565b600080600080600060808688031215611d1157600080fd5b611d1a86611b77565b9450611d2860208701611b77565b935060408601359250606086013567ffffffffffffffff811115611d4b57600080fd5b611d5788828901611cb0565b969995985093965092949392505050565b600080600060408486031215611d7d57600080fd5b83359250602084013567ffffffffffffffff811115611d9b57600080fd5b611da786828701611cb0565b9497909650939450505050565b60008060408385031215611dc757600080fd5b611dd083611b77565b9150611dde60208401611b77565b90509250929050565b600181811c90821680611dfb57607f821691505b60208210811415611e1c57634e487b7160e01b600052602260045260246000fd5b50919050565b6020808252600c908201526b4e6f74206578697374696e6760a01b604082015260600190565b6001600160a01b039384168152919092166020820152604081019190915260600190565b600060208284031215611e7e57600080fd5b8151610efb81611c46565b6020808252600c908201526b2130b2103a3930b739b332b960a11b604082015260600190565b634e487b7160e01b600052601160045260246000fd5b600082821015611ed757611ed7611eaf565b500390565b60008219821115611eef57611eef611eaf565b500190565b6000816000190483118215151615611f0e57611f0e611eaf565b500290565b600082611f3057634e487b7160e01b600052601260045260246000fd5b500490565b83815260406020820152816040820152818360608301376000818301606090810191909152601f909201601f191601019291505056fee2c574ac6f15605f6ea5c165e0fa6af366d8f1ee6203f57dd2d3e8c82ce27aa7a26469706673582212203ea9a4c1cedfeb9931308a34c8c6307007b6081d6b7c17255cff603cf4c34cd764736f6c63430008090033",
  "devdoc": {
    "kind": "dev",
    "methods": {
      "approve(address,uint256)": {
        "details": "Gives permission to `to` to transfer `tokenId` token to another account. The approval is cleared when the token is transferred. Only a single account can be approved at a time, so approving the zero address clears previous approvals. Requirements: - The caller must own the token or be an approved operator. - `tokenId` must exist. Emits an {Approval} event."
      },
      "getApproved(uint256)": {
        "details": "Returns the account approved for `tokenId` token. Requirements: - `tokenId` must exist."
      },
      "isApprovedForAll(address,address)": {
        "details": "Returns if the `operator` is allowed to manage all of the assets of `owner`. See {setApprovalForAll}"
      },
      "name()": {
        "details": "Returns the token collection name."
      },
      "setApprovalForAll(address,bool)": {
        "details": "Approve or remove `operator` as an operator for the caller. Operators can call {transferFrom} or {safeTransferFrom} for any token owned by the caller. Requirements: - The `operator` cannot be the caller. Emits an {ApprovalForAll} event."
      },
      "symbol()": {
        "details": "Returns the token collection symbol."
      },
      "tokenURI(uint256)": {
        "details": "Returns the Uniform Resource Identifier (URI) for `tokenId` token."
      }
    },
    "stateVariables": {
      "balanceOf": {
        "details": "Returns the number of tokens in ``owner``'s account."
      }
    },
    "version": 1
  },
  "userdoc": {
    "kind": "user",
    "methods": {
      "dueTaxes(uint256)": {
        "notice": "VIEW FUNCTIONS"
      },
      "ownerOf(uint256)": {
        "notice": "ERC-721 STUFF"
      },
      "supportsInterface(bytes4)": {
        "notice": "IERC165 STUFF"
      }
    },
    "version": 1
  },
  "storageLayout": {
    "storage": [
      {
        "astId": 8997,
        "contract": "src/HarbergerAds.sol:HarbergerAds",
        "label": "ads",
        "offset": 0,
        "slot": "0",
        "type": "t_mapping(t_uint256,t_struct(Ad)8978_storage)"
      },
      {
        "astId": 9001,
        "contract": "src/HarbergerAds.sol:HarbergerAds",
        "label": "balanceOf",
        "offset": 0,
        "slot": "1",
        "type": "t_mapping(t_address,t_uint256)"
      },
      {
        "astId": 9003,
        "contract": "src/HarbergerAds.sol:HarbergerAds",
        "label": "globalTokenURI",
        "offset": 0,
        "slot": "2",
        "type": "t_string_storage"
      },
      {
        "astId": 9005,
        "contract": "src/HarbergerAds.sol:HarbergerAds",
        "label": "storedSymbol",
        "offset": 0,
        "slot": "3",
        "type": "t_string_storage"
      },
      {
        "astId": 9007,
        "contract": "src/HarbergerAds.sol:HarbergerAds",
        "label": "storedName",
        "offset": 0,
        "slot": "4",
        "type": "t_string_storage"
      }
    ],
    "types": {
      "t_address": {
        "encoding": "inplace",
        "label": "address",
        "numberOfBytes": "20"
      },
      "t_mapping(t_address,t_uint256)": {
        "encoding": "mapping",
        "key": "t_address",
        "label": "mapping(address => uint256)",
        "numberOfBytes": "32",
        "value": "t_uint256"
      },
      "t_mapping(t_uint256,t_struct(Ad)8978_storage)": {
        "encoding": "mapping",
        "key": "t_uint256",
        "label": "mapping(uint256 => struct HarbergerAds.Ad)",
        "numberOfBytes": "32",
        "value": "t_struct(Ad)8978_storage"
      },
      "t_string_storage": {
        "encoding": "bytes",
        "label": "string",
        "numberOfBytes": "32"
      },
      "t_struct(Ad)8978_storage": {
        "encoding": "inplace",
        "label": "struct HarbergerAds.Ad",
        "members": [
          {
            "astId": 8969,
            "contract": "src/HarbergerAds.sol:HarbergerAds",
            "label": "owner",
            "offset": 0,
            "slot": "0",
            "type": "t_address"
          },
          {
            "astId": 8971,
            "contract": "src/HarbergerAds.sol:HarbergerAds",
            "label": "valuation",
            "offset": 0,
            "slot": "1",
            "type": "t_uint256"
          },
          {
            "astId": 8973,
            "contract": "src/HarbergerAds.sol:HarbergerAds",
            "label": "fund",
            "offset": 0,
            "slot": "2",
            "type": "t_uint256"
          },
          {
            "astId": 8975,
            "contract": "src/HarbergerAds.sol:HarbergerAds",
            "label": "lastPaidTimestamp",
            "offset": 0,
            "slot": "3",
            "type": "t_uint256"
          },
          {
            "astId": 8977,
            "contract": "src/HarbergerAds.sol:HarbergerAds",
            "label": "nextValuationTimestamp",
            "offset": 0,
            "slot": "4",
            "type": "t_uint256"
          }
        ],
        "numberOfBytes": "160"
      },
      "t_uint256": {
        "encoding": "inplace",
        "label": "uint256",
        "numberOfBytes": "32"
      }
    }
  }
}