{
  "address": "0xd08452AEE7ab5bE3BF6733BA0d3F0CFdaf060Aa2",
  "abi": [
    {
      "inputs": [
        {
          "internalType": "uint256",
          "name": "_taxRate",
          "type": "uint256"
        },
        {
          "internalType": "uint256",
          "name": "_cooldownPeriod",
          "type": "uint256"
        },
        {
          "internalType": "contract IERC20",
          "name": "_currency",
          "type": "address"
        },
        {
          "internalType": "address",
          "name": "_collector",
          "type": "address"
        },
        {
          "internalType": "string",
          "name": "_name",
          "type": "string"
        },
        {
          "internalType": "string",
          "name": "_symbol",
          "type": "string"
        }
      ],
      "stateMutability": "nonpayable",
      "type": "constructor"
    },
    {
      "anonymous": false,
      "inputs": [
        {
          "indexed": false,
          "internalType": "uint256",
          "name": "tokenId",
          "type": "uint256"
        },
        {
          "indexed": false,
          "internalType": "string",
          "name": "uri",
          "type": "string"
        }
      ],
      "name": "AdSet",
      "type": "event"
    },
    {
      "anonymous": false,
      "inputs": [
        {
          "indexed": true,
          "internalType": "address",
          "name": "owner",
          "type": "address"
        },
        {
          "indexed": true,
          "internalType": "address",
          "name": "approved",
          "type": "address"
        },
        {
          "indexed": true,
          "internalType": "uint256",
          "name": "tokenId",
          "type": "uint256"
        }
      ],
      "name": "Approval",
      "type": "event"
    },
    {
      "anonymous": false,
      "inputs": [
        {
          "indexed": true,
          "internalType": "address",
          "name": "owner",
          "type": "address"
        },
        {
          "indexed": true,
          "internalType": "address",
          "name": "operator",
          "type": "address"
        },
        {
          "indexed": false,
          "internalType": "bool",
          "name": "approved",
          "type": "bool"
        }
      ],
      "name": "ApprovalForAll",
      "type": "event"
    },
    {
      "anonymous": false,
      "inputs": [
        {
          "indexed": true,
          "internalType": "address",
          "name": "previousOwner",
          "type": "address"
        },
        {
          "indexed": true,
          "internalType": "address",
          "name": "newOwner",
          "type": "address"
        }
      ],
      "name": "OwnershipTransferred",
      "type": "event"
    },
    {
      "anonymous": false,
      "inputs": [
        {
          "indexed": true,
          "internalType": "uint256",
          "name": "_tokenId",
          "type": "uint256"
        },
        {
          "indexed": false,
          "internalType": "uint256",
          "name": "_value",
          "type": "uint256"
        }
      ],
      "name": "TaxPaid",
      "type": "event"
    },
    {
      "anonymous": false,
      "inputs": [
        {
          "indexed": true,
          "internalType": "uint256",
          "name": "_tokenId",
          "type": "uint256"
        },
        {
          "indexed": true,
          "internalType": "address",
          "name": "_owner",
          "type": "address"
        },
        {
          "indexed": false,
          "internalType": "uint256",
          "name": "_amount",
          "type": "uint256"
        }
      ],
      "name": "TokenBought",
      "type": "event"
    },
    {
      "anonymous": false,
      "inputs": [
        {
          "indexed": true,
          "internalType": "uint256",
          "name": "_tokenId",
          "type": "uint256"
        },
        {
          "indexed": false,
          "internalType": "uint256",
          "name": "_amount",
          "type": "uint256"
        }
      ],
      "name": "TokenFunded",
      "type": "event"
    },
    {
      "anonymous": false,
      "inputs": [
        {
          "indexed": true,
          "internalType": "address",
          "name": "from",
          "type": "address"
        },
        {
          "indexed": true,
          "internalType": "address",
          "name": "to",
          "type": "address"
        },
        {
          "indexed": true,
          "internalType": "uint256",
          "name": "tokenId",
          "type": "uint256"
        }
      ],
      "name": "Transfer",
      "type": "event"
    },
    {
      "anonymous": false,
      "inputs": [
        {
          "indexed": true,
          "internalType": "uint256",
          "name": "_tokenId",
          "type": "uint256"
        },
        {
          "indexed": false,
          "internalType": "uint256",
          "name": "_valuation",
          "type": "uint256"
        }
      ],
      "name": "ValuationSet",
      "type": "event"
    },
    {
      "inputs": [],
      "name": "DIVIDER",
      "outputs": [
        {
          "internalType": "uint256",
          "name": "",
          "type": "uint256"
        }
      ],
      "stateMutability": "view",
      "type": "function"
    },
    {
      "inputs": [
        {
          "internalType": "uint256",
          "name": "",
          "type": "uint256"
        }
      ],
      "name": "ads",
      "outputs": [
        {
          "internalType": "address",
          "name": "owner",
          "type": "address"
        },
        {
          "internalType": "uint256",
          "name": "valuation",
          "type": "uint256"
        },
        {
          "internalType": "uint256",
          "name": "fund",
          "type": "uint256"
        },
        {
          "internalType": "uint256",
          "name": "lastPaidTimestamp",
          "type": "uint256"
        },
        {
          "internalType": "uint256",
          "name": "nextValuationTimestamp",
          "type": "uint256"
        }
      ],
      "stateMutability": "view",
      "type": "function"
    },
    {
      "inputs": [
        {
          "internalType": "address",
          "name": "",
          "type": "address"
        }
      ],
      "name": "adsBalanceOf",
      "outputs": [
        {
          "internalType": "uint256",
          "name": "",
          "type": "uint256"
        }
      ],
      "stateMutability": "view",
      "type": "function"
    },
    {
      "inputs": [
        {
          "internalType": "address",
          "name": "to",
          "type": "address"
        },
        {
          "internalType": "uint256",
          "name": "tokenId",
          "type": "uint256"
        }
      ],
      "name": "approve",
      "outputs": [],
      "stateMutability": "nonpayable",
      "type": "function"
    },
    {
      "inputs": [
        {
          "internalType": "address",
          "name": "owner",
          "type": "address"
        }
      ],
      "name": "balanceOf",
      "outputs": [
        {
          "internalType": "uint256",
          "name": "",
          "type": "uint256"
        }
      ],
      "stateMutability": "view",
      "type": "function"
    },
    {
      "inputs": [
        {
          "internalType": "uint256",
          "name": "_tokenId",
          "type": "uint256"
        },
        {
          "internalType": "uint256",
          "name": "_offer",
          "type": "uint256"
        },
        {
          "internalType": "uint256",
          "name": "_valuation",
          "type": "uint256"
        },
        {
          "internalType": "uint256",
          "name": "_fund",
          "type": "uint256"
        }
      ],
      "name": "buy",
      "outputs": [],
      "stateMutability": "nonpayable",
      "type": "function"
    },
    {
      "inputs": [
        {
          "internalType": "uint256",
          "name": "_tokenId",
          "type": "uint256"
        },
        {
          "internalType": "uint256",
          "name": "_valuation",
          "type": "uint256"
        }
      ],
      "name": "changeValuation",
      "outputs": [],
      "stateMutability": "nonpayable",
      "type": "function"
    },
    {
      "inputs": [
        {
          "internalType": "uint256",
          "name": "_tokenId",
          "type": "uint256"
        }
      ],
      "name": "collect",
      "outputs": [],
      "stateMutability": "nonpayable",
      "type": "function"
    },
    {
      "inputs": [],
      "name": "collector",
      "outputs": [
        {
          "internalType": "address",
          "name": "",
          "type": "address"
        }
      ],
      "stateMutability": "view",
      "type": "function"
    },
    {
      "inputs": [],
      "name": "cooldownPeriod",
      "outputs": [
        {
          "internalType": "uint256",
          "name": "",
          "type": "uint256"
        }
      ],
      "stateMutability": "view",
      "type": "function"
    },
    {
      "inputs": [],
      "name": "currency",
      "outputs": [
        {
          "internalType": "contract IERC20",
          "name": "",
          "type": "address"
        }
      ],
      "stateMutability": "view",
      "type": "function"
    },
    {
      "inputs": [
        {
          "internalType": "uint256",
          "name": "_tokenId",
          "type": "uint256"
        },
        {
          "internalType": "uint256",
          "name": "_value",
          "type": "uint256"
        }
      ],
      "name": "defund",
      "outputs": [],
      "stateMutability": "nonpayable",
      "type": "function"
    },
    {
      "inputs": [
        {
          "internalType": "uint256",
          "name": "_tokenId",
          "type": "uint256"
        }
      ],
      "name": "dueTaxes",
      "outputs": [
        {
          "internalType": "uint256",
          "name": "",
          "type": "uint256"
        }
      ],
      "stateMutability": "view",
      "type": "function"
    },
    {
      "inputs": [
        {
          "internalType": "uint256",
          "name": "_tokenId",
          "type": "uint256"
        },
        {
          "internalType": "uint256",
          "name": "_value",
          "type": "uint256"
        }
      ],
      "name": "fund",
      "outputs": [],
      "stateMutability": "nonpayable",
      "type": "function"
    },
    {
      "inputs": [
        {
          "internalType": "uint256",
          "name": "tokenId",
          "type": "uint256"
        }
      ],
      "name": "getApproved",
      "outputs": [
        {
          "internalType": "address",
          "name": "",
          "type": "address"
        }
      ],
      "stateMutability": "view",
      "type": "function"
    },
    {
      "inputs": [
        {
          "internalType": "address",
          "name": "owner",
          "type": "address"
        },
        {
          "internalType": "address",
          "name": "operator",
          "type": "address"
        }
      ],
      "name": "isApprovedForAll",
      "outputs": [
        {
          "internalType": "bool",
          "name": "",
          "type": "bool"
        }
      ],
      "stateMutability": "view",
      "type": "function"
    },
    {
      "inputs": [
        {
          "internalType": "uint256",
          "name": "_value",
          "type": "uint256"
        }
      ],
      "name": "minimumFund",
      "outputs": [
        {
          "internalType": "uint256",
          "name": "",
          "type": "uint256"
        }
      ],
      "stateMutability": "view",
      "type": "function"
    },
    {
      "inputs": [],
      "name": "name",
      "outputs": [
        {
          "internalType": "string",
          "name": "",
          "type": "string"
        }
      ],
      "stateMutability": "view",
      "type": "function"
    },
    {
      "inputs": [],
      "name": "owner",
      "outputs": [
        {
          "internalType": "address",
          "name": "",
          "type": "address"
        }
      ],
      "stateMutability": "view",
      "type": "function"
    },
    {
      "inputs": [
        {
          "internalType": "uint256",
          "name": "tokenId",
          "type": "uint256"
        }
      ],
      "name": "ownerOf",
      "outputs": [
        {
          "internalType": "address",
          "name": "",
          "type": "address"
        }
      ],
      "stateMutability": "view",
      "type": "function"
    },
    {
      "inputs": [],
      "name": "renounceOwnership",
      "outputs": [],
      "stateMutability": "nonpayable",
      "type": "function"
    },
    {
      "inputs": [
        {
          "internalType": "uint256",
          "name": "_tokenId",
          "type": "uint256"
        }
      ],
      "name": "revoke",
      "outputs": [],
      "stateMutability": "nonpayable",
      "type": "function"
    },
    {
      "inputs": [
        {
          "internalType": "address",
          "name": "_to",
          "type": "address"
        },
        {
          "internalType": "string",
          "name": "_uri",
          "type": "string"
        }
      ],
      "name": "safeMint",
      "outputs": [],
      "stateMutability": "nonpayable",
      "type": "function"
    },
    {
      "inputs": [
        {
          "internalType": "address",
          "name": "from",
          "type": "address"
        },
        {
          "internalType": "address",
          "name": "to",
          "type": "address"
        },
        {
          "internalType": "uint256",
          "name": "tokenId",
          "type": "uint256"
        }
      ],
      "name": "safeTransferFrom",
      "outputs": [],
      "stateMutability": "nonpayable",
      "type": "function"
    },
    {
      "inputs": [
        {
          "internalType": "address",
          "name": "from",
          "type": "address"
        },
        {
          "internalType": "address",
          "name": "to",
          "type": "address"
        },
        {
          "internalType": "uint256",
          "name": "tokenId",
          "type": "uint256"
        },
        {
          "internalType": "bytes",
          "name": "data",
          "type": "bytes"
        }
      ],
      "name": "safeTransferFrom",
      "outputs": [],
      "stateMutability": "nonpayable",
      "type": "function"
    },
    {
      "inputs": [
        {
          "internalType": "uint256",
          "name": "_tokenId",
          "type": "uint256"
        },
        {
          "internalType": "string",
          "name": "_uri",
          "type": "string"
        }
      ],
      "name": "setAd",
      "outputs": [],
      "stateMutability": "nonpayable",
      "type": "function"
    },
    {
      "inputs": [
        {
          "internalType": "address",
          "name": "operator",
          "type": "address"
        },
        {
          "internalType": "bool",
          "name": "approved",
          "type": "bool"
        }
      ],
      "name": "setApprovalForAll",
      "outputs": [],
      "stateMutability": "nonpayable",
      "type": "function"
    },
    {
      "inputs": [
        {
          "internalType": "bytes4",
          "name": "interfaceId",
          "type": "bytes4"
        }
      ],
      "name": "supportsInterface",
      "outputs": [
        {
          "internalType": "bool",
          "name": "",
          "type": "bool"
        }
      ],
      "stateMutability": "view",
      "type": "function"
    },
    {
      "inputs": [],
      "name": "symbol",
      "outputs": [
        {
          "internalType": "string",
          "name": "",
          "type": "string"
        }
      ],
      "stateMutability": "view",
      "type": "function"
    },
    {
      "inputs": [],
      "name": "taxRate",
      "outputs": [
        {
          "internalType": "uint256",
          "name": "",
          "type": "uint256"
        }
      ],
      "stateMutability": "view",
      "type": "function"
    },
    {
      "inputs": [
        {
          "internalType": "uint256",
          "name": "_value",
          "type": "uint256"
        }
      ],
      "name": "taxesPerSecond",
      "outputs": [
        {
          "internalType": "uint256",
          "name": "",
          "type": "uint256"
        }
      ],
      "stateMutability": "view",
      "type": "function"
    },
    {
      "inputs": [
        {
          "internalType": "uint256",
          "name": "index",
          "type": "uint256"
        }
      ],
      "name": "tokenByIndex",
      "outputs": [
        {
          "internalType": "uint256",
          "name": "",
          "type": "uint256"
        }
      ],
      "stateMutability": "view",
      "type": "function"
    },
    {
      "inputs": [
        {
          "internalType": "address",
          "name": "owner",
          "type": "address"
        },
        {
          "internalType": "uint256",
          "name": "index",
          "type": "uint256"
        }
      ],
      "name": "tokenOfOwnerByIndex",
      "outputs": [
        {
          "internalType": "uint256",
          "name": "",
          "type": "uint256"
        }
      ],
      "stateMutability": "view",
      "type": "function"
    },
    {
      "inputs": [
        {
          "internalType": "uint256",
          "name": "tokenId",
          "type": "uint256"
        }
      ],
      "name": "tokenURI",
      "outputs": [
        {
          "internalType": "string",
          "name": "",
          "type": "string"
        }
      ],
      "stateMutability": "view",
      "type": "function"
    },
    {
      "inputs": [],
      "name": "totalSupply",
      "outputs": [
        {
          "internalType": "uint256",
          "name": "",
          "type": "uint256"
        }
      ],
      "stateMutability": "view",
      "type": "function"
    },
    {
      "inputs": [
        {
          "internalType": "address",
          "name": "from",
          "type": "address"
        },
        {
          "internalType": "address",
          "name": "to",
          "type": "address"
        },
        {
          "internalType": "uint256",
          "name": "tokenId",
          "type": "uint256"
        }
      ],
      "name": "transferFrom",
      "outputs": [],
      "stateMutability": "nonpayable",
      "type": "function"
    },
    {
      "inputs": [
        {
          "internalType": "address",
          "name": "newOwner",
          "type": "address"
        }
      ],
      "name": "transferOwnership",
      "outputs": [],
      "stateMutability": "nonpayable",
      "type": "function"
    }
  ],
  "transactionHash": "0x7b773ccf5968e2ec3b9b5832adbe015bd2464fb43729ccaf74ac898c08a9dabf",
  "args": [
    2000,
    100,
    "0x9c3C9283D3e44854697Cd22D3Faa240Cfb032889",
    "0xF50E77f2A2B6138D16c6c7511562E5C33c4B15A3",
    "Harberger Ads - EthCC Hack 2022",
    "HAC"
  ],
  "numDeployments": 3,
  "solcInputHash": "b8d73cc5af8f9a00c9cd501a0d7e41c4",
  "bytecode": "0x6101006040523480156200001257600080fd5b506040516200372b3803806200372b833981016040819052620000359162000289565b8151829082906200004e906000906020850190620000fd565b50805162000064906001906020840190620000fd565b505050620000816200007b620000a760201b60201c565b620000ab565b50506080939093526001600160a01b0390811660c05260a0919091521660e0526200036d565b3390565b600b80546001600160a01b038381166001600160a01b0319831681179093556040519116919082907f8be0079c531659141344cd1fd0a4f28419497f9722a3daafe3b4186f6b6457e090600090a35050565b8280546200010b9062000330565b90600052602060002090601f0160209004810192826200012f57600085556200017a565b82601f106200014a57805160ff19168380011785556200017a565b828001600101855582156200017a579182015b828111156200017a5782518255916020019190600101906200015d565b50620001889291506200018c565b5090565b5b808211156200018857600081556001016200018d565b6001600160a01b0381168114620001b957600080fd5b50565b634e487b7160e01b600052604160045260246000fd5b600082601f830112620001e457600080fd5b81516001600160401b0380821115620002015762000201620001bc565b604051601f8301601f19908116603f011681019082821181831017156200022c576200022c620001bc565b816040528381526020925086838588010111156200024957600080fd5b600091505b838210156200026d57858201830151818301840152908201906200024e565b838211156200027f5760008385830101525b9695505050505050565b60008060008060008060c08789031215620002a357600080fd5b86519550602087015194506040870151620002be81620001a3565b6060880151909450620002d181620001a3565b60808801519093506001600160401b0380821115620002ef57600080fd5b620002fd8a838b01620001d2565b935060a08901519150808211156200031457600080fd5b506200032389828a01620001d2565b9150509295509295509295565b600181811c908216806200034557607f821691505b602082108114156200036757634e487b7160e01b600052602260045260246000fd5b50919050565b60805160a05160c05160e0516132ea620004416000396000818161047e015281816108c901528181610a9801528181610f280152818161176f015281816118a101528181611cad0152611dc60152600081816105450152818161089a015281816109cb01528181610a5601528181610ba701528181610e5b01528181610efb0152818161136d015281816115bb0152818161169901528181611742015281816118740152611cdc01526000818161025901528181610cb101526119c801526000818161043301526112c901526132ea6000f3fe608060405234801561001057600080fd5b50600436106102275760003560e01c8063715018a611610130578063c397ae39116100b8578063e5a6b10f1161007c578063e5a6b10f14610540578063e6d2806314610567578063e985e9c51461057a578063f2fde38b146105b6578063f9128388146105c957600080fd5b8063c397ae39146104e1578063c87b56dd146104f4578063ce3f865f14610507578063cf264e9a1461051a578063d204c45e1461052d57600080fd5b8063913e77ad116100ff578063913e77ad1461047957806395d89b41146104a0578063a22cb465146104a8578063a65e2cfd146104bb578063b88d4fde146104ce57600080fd5b8063715018a614610426578063771a3a1d1461042e5780638a784c4a146104555780638da5cb5b1461046857600080fd5b806323b872dd116101b35780634f6ccce7116101825780634f6ccce7146103d15780635a8b754d146103e457806362043bd8146103f75780636352211e1461040057806370a082311461041357600080fd5b806323b872dd146103855780632f745c591461039857806337966404146103ab57806342842e0e146103be57600080fd5b8063095ea7b3116101fa578063095ea7b3146102c957806311a7a4c0146102de5780631281311d1461035757806318160ddd1461036a57806320c5429b1461037257600080fd5b806301ffc9a71461022c57806304646a491461025457806306fdde0314610289578063081812fc1461029e575b600080fd5b61023f61023a366004612b74565b6105e9565b60405190151581526020015b60405180910390f35b61027b7f000000000000000000000000000000000000000000000000000000000000000081565b60405190815260200161024b565b6102916105fa565b60405161024b9190612be9565b6102b16102ac366004612bfc565b61068c565b6040516001600160a01b03909116815260200161024b565b6102dc6102d7366004612c31565b6106b3565b005b6103256102ec366004612bfc565b600c60205260009081526040902080546001820154600283015460038401546004909401546001600160a01b0390931693919290919085565b604080516001600160a01b0390961686526020860194909452928401919091526060830152608082015260a00161024b565b6102dc610365366004612c5b565b6107ce565b60085461027b565b6102dc610380366004612bfc565b610d97565b6102dc610393366004612c8d565b610fc1565b61027b6103a6366004612c31565b610ff2565b61027b6103b9366004612bfc565b611088565b6102dc6103cc366004612c8d565b6110f4565b61027b6103df366004612bfc565b61110f565b61027b6103f2366004612bfc565b6111a2565b61027b61271081565b6102b161040e366004612bfc565b6111c4565b61027b610421366004612cc9565b611224565b6102dc6112aa565b61027b7f000000000000000000000000000000000000000000000000000000000000000081565b61027b610463366004612bfc565b6112be565b600b546001600160a01b03166102b1565b6102b17f000000000000000000000000000000000000000000000000000000000000000081565b610291611308565b6102dc6104b6366004612cf2565b611317565b6102dc6104c9366004612d29565b611326565b6102dc6104dc366004612dd7565b61145b565b6102dc6104ef366004612d29565b611493565b610291610502366004612bfc565b611807565b6102dc610515366004612bfc565b611812565b6102dc610528366004612d29565b6118e7565b6102dc61053b366004612e53565b611a24565b6102b17f000000000000000000000000000000000000000000000000000000000000000081565b6102dc610575366004612eb5565b611a5b565b61023f610588366004612f31565b6001600160a01b03918216600090815260056020908152604080832093909416825291909152205460ff1690565b6102dc6105c4366004612cc9565b611b1c565b61027b6105d7366004612cc9565b600d6020526000908152604090205481565b60006105f482611b95565b92915050565b60606000805461060990612f64565b80601f016020809104026020016040519081016040528092919081815260200182805461063590612f64565b80156106825780601f1061065757610100808354040283529160200191610682565b820191906000526020600020905b81548152906001019060200180831161066557829003601f168201915b5050505050905090565b600061069782611bba565b506000908152600460205260409020546001600160a01b031690565b60006106be826111c4565b9050806001600160a01b0316836001600160a01b031614156107315760405162461bcd60e51b815260206004820152602160248201527f4552433732313a20617070726f76616c20746f2063757272656e74206f776e656044820152603960f91b60648201526084015b60405180910390fd5b336001600160a01b038216148061074d575061074d8133610588565b6107bf5760405162461bcd60e51b815260206004820152603e60248201527f4552433732313a20617070726f76652063616c6c6572206973206e6f7420746f60448201527f6b656e206f776e6572206e6f7220617070726f76656420666f7220616c6c00006064820152608401610728565b6107c98383611c19565b505050565b6000848152600c6020526040902060085485106107fd5760405162461bcd60e51b815260040161072890612f9f565b80546001600160a01b031633141561084f5760405162461bcd60e51b815260206004820152601560248201527410d85b89dd08189d5e481e5bdd5c881bdddb881859605a1b6044820152606401610728565b600061085a86611088565b825460028401549192506001600160a01b03169082111561094b57610883878460020154611c87565b6040516323b872dd60e01b81526001600160a01b037f000000000000000000000000000000000000000000000000000000000000000016906323b872dd906108f39033907f0000000000000000000000000000000000000000000000000000000000000000908b90600401612fc5565b602060405180830381600087803b15801561090d57600080fd5b505af1158015610921573d6000803e3d6000fd5b505050506040513d601f19601f820116820180604052508101906109459190612fe9565b50610b45565b858360010154111561098f5760405162461bcd60e51b815260206004820152600d60248201526c2637bbb130b6361037b33332b960991b6044820152606401610728565b61099d878460020154611c87565b8254600284015460405163a9059cbb60e01b81526001600160a01b03928316600482015260248101919091527f00000000000000000000000000000000000000000000000000000000000000009091169063a9059cbb90604401602060405180830381600087803b158015610a1157600080fd5b505af1158015610a25573d6000803e3d6000fd5b505050506040513d601f19601f82011682018060405250810190610a499190612fe9565b5082546001600160a01b037f00000000000000000000000000000000000000000000000000000000000000008116916323b872dd9133911615610a965785546001600160a01b0316610ab8565b7f00000000000000000000000000000000000000000000000000000000000000005b896040518463ffffffff1660e01b8152600401610ad793929190612fc5565b602060405180830381600087803b158015610af157600080fd5b505af1158015610b05573d6000803e3d6000fd5b505050506040513d601f19601f82011682018060405250810190610b299190612fe9565b610b455760405162461bcd60e51b815260040161072890613006565b610b4e856111a2565b841015610b905760405162461bcd60e51b815260206004820152601060248201526f4e6f7420656e6f7567682066756e647360801b6044820152606401610728565b6040516323b872dd60e01b81526001600160a01b037f000000000000000000000000000000000000000000000000000000000000000016906323b872dd90610be090339030908990600401612fc5565b602060405180830381600087803b158015610bfa57600080fd5b505af1158015610c0e573d6000803e3d6000fd5b505050506040513d601f19601f82011682018060405250810190610c329190612fe9565b610c4e5760405162461bcd60e51b815260040161072890613006565b82546001600160a01b031615610c8e5782546001600160a01b03166000908152600d60205260408120805460019290610c88908490613042565b90915550505b82546001600160a01b031916331783556002830184905560018301859055610cd67f000000000000000000000000000000000000000000000000000000000000000042613059565b6004840155426003840155336000908152600d60205260408120805460019290610d01908490613059565b9091555050604051879033906001600160a01b0384169060008051602061329583398151915290600090a4867fb607f618d42004a68651337cff412752d042354c4fd3a56fe8ae01e34fa969c886604051610d5e91815260200190565b60405180910390a28660008051602061327583398151915285604051610d8691815260200190565b60405180910390a250505050505050565b6008548110610db85760405162461bcd60e51b815260040161072890612f9f565b6000818152600c6020526040902080546001600160a01b03163314610e0b5760405162461bcd60e51b81526020600482015260096024820152682737ba1037bbb732b960b91b6044820152606401610728565b6000610e1683611088565b905081600201548111610edf57610e2d8382611c87565b8154600283015460405163a9059cbb60e01b81526001600160a01b03928316600482015260248101919091527f00000000000000000000000000000000000000000000000000000000000000009091169063a9059cbb90604401602060405180830381600087803b158015610ea157600080fd5b505af1158015610eb5573d6000803e3d6000fd5b505050506040513d601f19601f82011682018060405250810190610ed99190612fe9565b50610fb8565b600282015460405163a9059cbb60e01b81526001600160a01b037f0000000000000000000000000000000000000000000000000000000000000000169163a9059cbb91610f64917f0000000000000000000000000000000000000000000000000000000000000000916004016001600160a01b03929092168252602082015260400190565b602060405180830381600087803b158015610f7e57600080fd5b505af1158015610f92573d6000803e3d6000fd5b505050506040513d601f19601f82011682018060405250810190610fb69190612fe9565b505b6107c983611daa565b610fcb3382611eb7565b610fe75760405162461bcd60e51b815260040161072890613071565b6107c9838383611f35565b6000610ffd83611224565b821061105f5760405162461bcd60e51b815260206004820152602b60248201527f455243373231456e756d657261626c653a206f776e657220696e646578206f7560448201526a74206f6620626f756e647360a81b6064820152608401610728565b506001600160a01b03919091166000908152600660209081526040808320938352929052205490565b600061109360085490565b82106110b15760405162461bcd60e51b815260040161072890612f9f565b6000828152600c6020526040812060018101549091906110d0906112be565b90508160030154426110e29190613042565b6110ec90826130bf565b949350505050565b6107c98383836040518060200160405280600081525061145b565b600061111a60085490565b821061117d5760405162461bcd60e51b815260206004820152602c60248201527f455243373231456e756d657261626c653a20676c6f62616c20696e646578206f60448201526b7574206f6620626f756e647360a01b6064820152608401610728565b60088281548110611190576111906130de565b90600052602060002001549050919050565b6000806111ae836112be565b90506111bd81622819a06130bf565b9392505050565b6000818152600260205260408120546001600160a01b0316806105f45760405162461bcd60e51b8152602060048201526018602482015277115490cdcc8c4e881a5b9d985b1a59081d1bdad95b88125160421b6044820152606401610728565b60006001600160a01b03821661128e5760405162461bcd60e51b815260206004820152602960248201527f4552433732313a2061646472657373207a65726f206973206e6f7420612076616044820152683634b21037bbb732b960b91b6064820152608401610728565b506001600160a01b031660009081526003602052604090205490565b6112b26120ca565b6112bc6000612124565b565b6000806127106112ee7f0000000000000000000000000000000000000000000000000000000000000000856130bf565b6112f8919061310a565b90506111bd6301e133808261310a565b60606001805461060990612f64565b611322338383612176565b5050565b60085482106113475760405162461bcd60e51b815260040161072890612f9f565b6000828152600c60205260409081902090516323b872dd60e01b81526001600160a01b037f000000000000000000000000000000000000000000000000000000000000000016906323b872dd906113a690339030908790600401612fc5565b602060405180830381600087803b1580156113c057600080fd5b505af11580156113d4573d6000803e3d6000fd5b505050506040513d601f19601f820116820180604052508101906113f89190612fe9565b6114145760405162461bcd60e51b815260040161072890613006565b818160020160008282546114289190613059565b909155505060028101546040519081528390600080516020613275833981519152906020015b60405180910390a2505050565b6114653383611eb7565b6114815760405162461bcd60e51b815260040161072890613071565b61148d84848484612245565b50505050565b60085482106114b45760405162461bcd60e51b815260040161072890612f9f565b6000828152600c6020526040902080546001600160a01b031633146115075760405162461bcd60e51b81526020600482015260096024820152682737ba1037bbb732b960b91b6044820152606401610728565b806004015442101561154c5760405162461bcd60e51b815260206004820152600e60248201526d57616974206d6f72652074696d6560901b6044820152606401610728565b600061155784611088565b9050816002015481116117265761156e8482611c87565b816002015483101561166b578282600201600082825461158e9190613042565b9091555050815460405163a9059cbb60e01b81526001600160a01b039182166004820152602481018590527f00000000000000000000000000000000000000000000000000000000000000009091169063a9059cbb90604401602060405180830381600087803b15801561160157600080fd5b505af1158015611615573d6000803e3d6000fd5b505050506040513d601f19601f820116820180604052508101906116399190612fe9565b5083600080516020613275833981519152836002015460405161165e91815260200190565b60405180910390a261148d565b8154600283015460405163a9059cbb60e01b81526001600160a01b03928316600482015260248101919091527f00000000000000000000000000000000000000000000000000000000000000009091169063a9059cbb90604401602060405180830381600087803b1580156116df57600080fd5b505af11580156116f3573d6000803e3d6000fd5b505050506040513d601f19601f820116820180604052508101906117179190612fe9565b5061172184611daa565b61148d565b600282015460405163a9059cbb60e01b81526001600160a01b037f0000000000000000000000000000000000000000000000000000000000000000169163a9059cbb916117ab917f0000000000000000000000000000000000000000000000000000000000000000916004016001600160a01b03929092168252602082015260400190565b602060405180830381600087803b1580156117c557600080fd5b505af11580156117d9573d6000803e3d6000fd5b505050506040513d601f19601f820116820180604052508101906117fd9190612fe9565b5061148d84611daa565b60606105f482612278565b60085481106118335760405162461bcd60e51b815260040161072890612f9f565b6000818152600c602052604081209061184b83611088565b9050816002015481106118dd57600282015460405163a9059cbb60e01b81526001600160a01b037f0000000000000000000000000000000000000000000000000000000000000000169163a9059cbb91610f64917f0000000000000000000000000000000000000000000000000000000000000000916004016001600160a01b03929092168252602082015260400190565b6107c98382611c87565b60085482106119085760405162461bcd60e51b815260040161072890612f9f565b6000828152600c6020526040902080546001600160a01b0316331461195c5760405162461bcd60e51b815260206004820152600a60248201526927b7363c9037bbb732b960b11b6044820152606401610728565b81816001015411156119b35780600401544210156119b35760405162461bcd60e51b8152602060048201526014602482015273546f6f20736f6f6e20746f20646563726561736560601b6044820152606401610728565b6119bc83611812565b600181018290556119ed7f000000000000000000000000000000000000000000000000000000000000000042613059565b600482015560405182815283907fb607f618d42004a68651337cff412752d042354c4fd3a56fe8ae01e34fa969c89060200161144e565b611a2c6120ca565b6000611a37600e5490565b9050611a47600e80546001019055565b611a518382612381565b6107c9818361239b565b6008548310611a7c5760405162461bcd60e51b815260040161072890612f9f565b6000838152600c6020526040902080546001600160a01b03163314611adb5760405162461bcd60e51b815260206004820152601560248201527413db9b1e481bdddb995c8818da185b99d95cc81859605a1b6044820152606401610728565b7fae0663072bcb7f24f009e8ad0e7bd01cb00a189760d428d8ff269525830db407848484604051611b0e9392919061311e565b60405180910390a150505050565b611b246120ca565b6001600160a01b038116611b895760405162461bcd60e51b815260206004820152602660248201527f4f776e61626c653a206e6577206f776e657220697320746865207a65726f206160448201526564647265737360d01b6064820152608401610728565b611b9281612124565b50565b60006001600160e01b0319821663780e9d6360e01b14806105f457506105f482612435565b6000818152600260205260409020546001600160a01b0316611b925760405162461bcd60e51b8152602060048201526018602482015277115490cdcc8c4e881a5b9d985b1a59081d1bdad95b88125160421b6044820152606401610728565b600081815260046020526040902080546001600160a01b0319166001600160a01b0384169081179091558190611c4e826111c4565b6001600160a01b03167f8c5be1e5ebec7d5bd14f71427d1e84f3dd0314c0f7b2291e5b200ac8c7c3b92560405160405180910390a45050565b6000828152600c602052604090819020905163a9059cbb60e01b81526001600160a01b037f000000000000000000000000000000000000000000000000000000000000000081166004830152602482018490527f0000000000000000000000000000000000000000000000000000000000000000169063a9059cbb90604401602060405180830381600087803b158015611d2057600080fd5b505af1158015611d34573d6000803e3d6000fd5b505050506040513d601f19601f82011682018060405250810190611d589190612fe9565b5081816002016000828254611d6d9190613042565b909155505042600382015560405182815283907f65c3c2ca9c0a91fa382799173e8eaba4f2d15dc17f9d7b3194a673f5311ccdaa9060200161144e565b6000818152600c602090815260408083208054600282018590557f00000000000000000000000000000000000000000000000000000000000000006001600160a01b039081166001600160a01b031983161783556001808401879055338752600d909552928520805492959390911693929091611e28908490613042565b90915550506040516000815283907fb607f618d42004a68651337cff412752d042354c4fd3a56fe8ae01e34fa969c89060200160405180910390a2826000805160206132758339815191526000604051611e8491815260200190565b60405180910390a260405183906000906001600160a01b03841690600080516020613295833981519152908390a4505050565b600080611ec3836111c4565b9050806001600160a01b0316846001600160a01b03161480611f0a57506001600160a01b0380821660009081526005602090815260408083209388168352929052205460ff165b806110ec5750836001600160a01b0316611f238461068c565b6001600160a01b031614949350505050565b826001600160a01b0316611f48826111c4565b6001600160a01b031614611fac5760405162461bcd60e51b815260206004820152602560248201527f4552433732313a207472616e736665722066726f6d20696e636f72726563742060448201526437bbb732b960d91b6064820152608401610728565b6001600160a01b03821661200e5760405162461bcd60e51b8152602060048201526024808201527f4552433732313a207472616e7366657220746f20746865207a65726f206164646044820152637265737360e01b6064820152608401610728565b612019838383612485565b612024600082611c19565b6001600160a01b038316600090815260036020526040812080546001929061204d908490613042565b90915550506001600160a01b038216600090815260036020526040812080546001929061207b908490613059565b909155505060008181526002602052604080822080546001600160a01b0319166001600160a01b03868116918217909255915184939187169160008051602061329583398151915291a4505050565b600b546001600160a01b031633146112bc5760405162461bcd60e51b815260206004820181905260248201527f4f776e61626c653a2063616c6c6572206973206e6f7420746865206f776e65726044820152606401610728565b600b80546001600160a01b038381166001600160a01b0319831681179093556040519116919082907f8be0079c531659141344cd1fd0a4f28419497f9722a3daafe3b4186f6b6457e090600090a35050565b816001600160a01b0316836001600160a01b031614156121d85760405162461bcd60e51b815260206004820152601960248201527f4552433732313a20617070726f766520746f2063616c6c6572000000000000006044820152606401610728565b6001600160a01b03838116600081815260056020908152604080832094871680845294825291829020805460ff191686151590811790915591519182527f17307eab39ab6107e8899845ad3d59bd9653f200f220920489ca2b5937696c31910160405180910390a3505050565b612250848484611f35565b61225c84848484612490565b61148d5760405162461bcd60e51b815260040161072890613154565b606061228382611bba565b6000828152600a60205260408120805461229c90612f64565b80601f01602080910402602001604051908101604052809291908181526020018280546122c890612f64565b80156123155780601f106122ea57610100808354040283529160200191612315565b820191906000526020600020905b8154815290600101906020018083116122f857829003601f168201915b50505050509050600061233360408051602081019091526000815290565b9050805160001415612346575092915050565b8151156123785780826040516020016123609291906131a6565b60405160208183030381529060405292505050919050565b6110ec8461259d565b611322828260405180602001604052806000815250612610565b6000828152600260205260409020546001600160a01b03166124165760405162461bcd60e51b815260206004820152602e60248201527f45524337323155524953746f726167653a2055524920736574206f66206e6f6e60448201526d32bc34b9ba32b73a103a37b5b2b760911b6064820152608401610728565b6000828152600a6020908152604090912082516107c992840190612ac5565b60006001600160e01b031982166380ac58cd60e01b148061246657506001600160e01b03198216635b5e139f60e01b145b806105f457506301ffc9a760e01b6001600160e01b03198316146105f4565b6107c9838383612643565b60006001600160a01b0384163b1561259257604051630a85bd0160e11b81526001600160a01b0385169063150b7a02906124d49033908990889088906004016131d5565b602060405180830381600087803b1580156124ee57600080fd5b505af192505050801561251e575060408051601f3d908101601f1916820190925261251b91810190613212565b60015b612578573d80801561254c576040519150601f19603f3d011682016040523d82523d6000602084013e612551565b606091505b5080516125705760405162461bcd60e51b815260040161072890613154565b805181602001fd5b6001600160e01b031916630a85bd0160e11b1490506110ec565b506001949350505050565b60606125a882611bba565b60006125bf60408051602081019091526000815290565b905060008151116125df57604051806020016040528060008152506111bd565b806125e9846126fb565b6040516020016125fa9291906131a6565b6040516020818303038152906040529392505050565b61261a83836127f9565b6126276000848484612490565b6107c95760405162461bcd60e51b815260040161072890613154565b6001600160a01b03831661269e5761269981600880546000838152600960205260408120829055600182018355919091527ff3f7a9fe364faab93b216da50a3214154f22a0a2b415b23a84c8169e8b636ee30155565b6126c1565b816001600160a01b0316836001600160a01b0316146126c1576126c18382612935565b6001600160a01b0382166126d8576107c9816129d2565b826001600160a01b0316826001600160a01b0316146107c9576107c98282612a81565b60608161271f5750506040805180820190915260018152600360fc1b602082015290565b8160005b811561274957806127338161322f565b91506127429050600a8361310a565b9150612723565b60008167ffffffffffffffff81111561276457612764612d4b565b6040519080825280601f01601f19166020018201604052801561278e576020820181803683370190505b5090505b84156110ec576127a3600183613042565b91506127b0600a8661324a565b6127bb906030613059565b60f81b8183815181106127d0576127d06130de565b60200101906001600160f81b031916908160001a9053506127f2600a8661310a565b9450612792565b6001600160a01b03821661284f5760405162461bcd60e51b815260206004820181905260248201527f4552433732313a206d696e7420746f20746865207a65726f20616464726573736044820152606401610728565b6000818152600260205260409020546001600160a01b0316156128b45760405162461bcd60e51b815260206004820152601c60248201527f4552433732313a20746f6b656e20616c7265616479206d696e746564000000006044820152606401610728565b6128c060008383612485565b6001600160a01b03821660009081526003602052604081208054600192906128e9908490613059565b909155505060008181526002602052604080822080546001600160a01b0319166001600160a01b0386169081179091559051839290600080516020613295833981519152908290a45050565b6000600161294284611224565b61294c9190613042565b60008381526007602052604090205490915080821461299f576001600160a01b03841660009081526006602090815260408083208584528252808320548484528184208190558352600790915290208190555b5060009182526007602090815260408084208490556001600160a01b039094168352600681528383209183525290812055565b6008546000906129e490600190613042565b60008381526009602052604081205460088054939450909284908110612a0c57612a0c6130de565b906000526020600020015490508060088381548110612a2d57612a2d6130de565b6000918252602080832090910192909255828152600990915260408082208490558582528120556008805480612a6557612a6561325e565b6001900381819060005260206000200160009055905550505050565b6000612a8c83611224565b6001600160a01b039093166000908152600660209081526040808320868452825280832085905593825260079052919091209190915550565b828054612ad190612f64565b90600052602060002090601f016020900481019282612af35760008555612b39565b82601f10612b0c57805160ff1916838001178555612b39565b82800160010185558215612b39579182015b82811115612b39578251825591602001919060010190612b1e565b50612b45929150612b49565b5090565b5b80821115612b455760008155600101612b4a565b6001600160e01b031981168114611b9257600080fd5b600060208284031215612b8657600080fd5b81356111bd81612b5e565b60005b83811015612bac578181015183820152602001612b94565b8381111561148d5750506000910152565b60008151808452612bd5816020860160208601612b91565b601f01601f19169290920160200192915050565b6020815260006111bd6020830184612bbd565b600060208284031215612c0e57600080fd5b5035919050565b80356001600160a01b0381168114612c2c57600080fd5b919050565b60008060408385031215612c4457600080fd5b612c4d83612c15565b946020939093013593505050565b60008060008060808587031215612c7157600080fd5b5050823594602084013594506040840135936060013592509050565b600080600060608486031215612ca257600080fd5b612cab84612c15565b9250612cb960208501612c15565b9150604084013590509250925092565b600060208284031215612cdb57600080fd5b6111bd82612c15565b8015158114611b9257600080fd5b60008060408385031215612d0557600080fd5b612d0e83612c15565b91506020830135612d1e81612ce4565b809150509250929050565b60008060408385031215612d3c57600080fd5b50508035926020909101359150565b634e487b7160e01b600052604160045260246000fd5b600067ffffffffffffffff80841115612d7c57612d7c612d4b565b604051601f8501601f19908116603f01168101908282118183101715612da457612da4612d4b565b81604052809350858152868686011115612dbd57600080fd5b858560208301376000602087830101525050509392505050565b60008060008060808587031215612ded57600080fd5b612df685612c15565b9350612e0460208601612c15565b925060408501359150606085013567ffffffffffffffff811115612e2757600080fd5b8501601f81018713612e3857600080fd5b612e4787823560208401612d61565b91505092959194509250565b60008060408385031215612e6657600080fd5b612e6f83612c15565b9150602083013567ffffffffffffffff811115612e8b57600080fd5b8301601f81018513612e9c57600080fd5b612eab85823560208401612d61565b9150509250929050565b600080600060408486031215612eca57600080fd5b83359250602084013567ffffffffffffffff80821115612ee957600080fd5b818601915086601f830112612efd57600080fd5b813581811115612f0c57600080fd5b876020828501011115612f1e57600080fd5b6020830194508093505050509250925092565b60008060408385031215612f4457600080fd5b612f4d83612c15565b9150612f5b60208401612c15565b90509250929050565b600181811c90821680612f7857607f821691505b60208210811415612f9957634e487b7160e01b600052602260045260246000fd5b50919050565b6020808252600c908201526b4e6f74206578697374696e6760a01b604082015260600190565b6001600160a01b039384168152919092166020820152604081019190915260600190565b600060208284031215612ffb57600080fd5b81516111bd81612ce4565b6020808252600c908201526b2130b2103a3930b739b332b960a11b604082015260600190565b634e487b7160e01b600052601160045260246000fd5b6000828210156130545761305461302c565b500390565b6000821982111561306c5761306c61302c565b500190565b6020808252602e908201527f4552433732313a2063616c6c6572206973206e6f7420746f6b656e206f776e6560408201526d1c881b9bdc88185c1c1c9bdd995960921b606082015260800190565b60008160001904831182151516156130d9576130d961302c565b500290565b634e487b7160e01b600052603260045260246000fd5b634e487b7160e01b600052601260045260246000fd5b600082613119576131196130f4565b500490565b83815260406020820152816040820152818360608301376000818301606090810191909152601f909201601f1916010192915050565b60208082526032908201527f4552433732313a207472616e7366657220746f206e6f6e20455243373231526560408201527131b2b4bb32b91034b6b83632b6b2b73a32b960711b606082015260800190565b600083516131b8818460208801612b91565b8351908301906131cc818360208801612b91565b01949350505050565b6001600160a01b038581168252841660208201526040810183905260806060820181905260009061320890830184612bbd565b9695505050505050565b60006020828403121561322457600080fd5b81516111bd81612b5e565b60006000198214156132435761324361302c565b5060010190565b600082613259576132596130f4565b500690565b634e487b7160e01b600052603160045260246000fdfee2c574ac6f15605f6ea5c165e0fa6af366d8f1ee6203f57dd2d3e8c82ce27aa7ddf252ad1be2c89b69c2b068fc378daa952ba7f163c4a11628f55a4df523b3efa264697066735822122034b781b17374839556ef6b6ad859cfaf33cc3c01f3ce62728b5507cbbb31a84a64736f6c63430008090033",
  "devdoc": {
    "kind": "dev",
    "methods": {
      "approve(address,uint256)": {
        "details": "See {IERC721-approve}."
      },
      "balanceOf(address)": {
        "details": "See {IERC721-balanceOf}."
      },
      "getApproved(uint256)": {
        "details": "See {IERC721-getApproved}."
      },
      "isApprovedForAll(address,address)": {
        "details": "See {IERC721-isApprovedForAll}."
      },
      "name()": {
        "details": "See {IERC721Metadata-name}."
      },
      "owner()": {
        "details": "Returns the address of the current owner."
      },
      "ownerOf(uint256)": {
        "details": "See {IERC721-ownerOf}."
      },
      "renounceOwnership()": {
        "details": "Leaves the contract without owner. It will not be possible to call `onlyOwner` functions anymore. Can only be called by the current owner. NOTE: Renouncing ownership will leave the contract without an owner, thereby removing any functionality that is only available to the owner."
      },
      "safeTransferFrom(address,address,uint256)": {
        "details": "See {IERC721-safeTransferFrom}."
      },
      "safeTransferFrom(address,address,uint256,bytes)": {
        "details": "See {IERC721-safeTransferFrom}."
      },
      "setApprovalForAll(address,bool)": {
        "details": "See {IERC721-setApprovalForAll}."
      },
      "symbol()": {
        "details": "See {IERC721Metadata-symbol}."
      },
      "tokenByIndex(uint256)": {
        "details": "See {IERC721Enumerable-tokenByIndex}."
      },
      "tokenOfOwnerByIndex(address,uint256)": {
        "details": "See {IERC721Enumerable-tokenOfOwnerByIndex}."
      },
      "totalSupply()": {
        "details": "See {IERC721Enumerable-totalSupply}."
      },
      "transferFrom(address,address,uint256)": {
        "details": "See {IERC721-transferFrom}."
      },
      "transferOwnership(address)": {
        "details": "Transfers ownership of the contract to a new account (`newOwner`). Can only be called by the current owner."
      }
    },
    "version": 1
  },
  "userdoc": {
    "kind": "user",
    "methods": {
      "buy(uint256,uint256,uint256,uint256)": {
        "notice": "HARBERGER"
      },
      "dueTaxes(uint256)": {
        "notice": "VIEW FUNCTIONS"
      },
      "safeMint(address,string)": {
        "notice": "ERC-721"
      }
    },
    "version": 1
  },
  "storageLayout": {
    "storage": [
      {
        "astId": 827,
        "contract": "src/HarbergerAdsFull.sol:HarbergerAdsFull",
        "label": "_name",
        "offset": 0,
        "slot": "0",
        "type": "t_string_storage"
      },
      {
        "astId": 829,
        "contract": "src/HarbergerAdsFull.sol:HarbergerAdsFull",
        "label": "_symbol",
        "offset": 0,
        "slot": "1",
        "type": "t_string_storage"
      },
      {
        "astId": 833,
        "contract": "src/HarbergerAdsFull.sol:HarbergerAdsFull",
        "label": "_owners",
        "offset": 0,
        "slot": "2",
        "type": "t_mapping(t_uint256,t_address)"
      },
      {
        "astId": 837,
        "contract": "src/HarbergerAdsFull.sol:HarbergerAdsFull",
        "label": "_balances",
        "offset": 0,
        "slot": "3",
        "type": "t_mapping(t_address,t_uint256)"
      },
      {
        "astId": 841,
        "contract": "src/HarbergerAdsFull.sol:HarbergerAdsFull",
        "label": "_tokenApprovals",
        "offset": 0,
        "slot": "4",
        "type": "t_mapping(t_uint256,t_address)"
      },
      {
        "astId": 847,
        "contract": "src/HarbergerAdsFull.sol:HarbergerAdsFull",
        "label": "_operatorApprovals",
        "offset": 0,
        "slot": "5",
        "type": "t_mapping(t_address,t_mapping(t_address,t_bool))"
      },
      {
        "astId": 1817,
        "contract": "src/HarbergerAdsFull.sol:HarbergerAdsFull",
        "label": "_ownedTokens",
        "offset": 0,
        "slot": "6",
        "type": "t_mapping(t_address,t_mapping(t_uint256,t_uint256))"
      },
      {
        "astId": 1821,
        "contract": "src/HarbergerAdsFull.sol:HarbergerAdsFull",
        "label": "_ownedTokensIndex",
        "offset": 0,
        "slot": "7",
        "type": "t_mapping(t_uint256,t_uint256)"
      },
      {
        "astId": 1824,
        "contract": "src/HarbergerAdsFull.sol:HarbergerAdsFull",
        "label": "_allTokens",
        "offset": 0,
        "slot": "8",
        "type": "t_array(t_uint256)dyn_storage"
      },
      {
        "astId": 1828,
        "contract": "src/HarbergerAdsFull.sol:HarbergerAdsFull",
        "label": "_allTokensIndex",
        "offset": 0,
        "slot": "9",
        "type": "t_mapping(t_uint256,t_uint256)"
      },
      {
        "astId": 2153,
        "contract": "src/HarbergerAdsFull.sol:HarbergerAdsFull",
        "label": "_tokenURIs",
        "offset": 0,
        "slot": "10",
        "type": "t_mapping(t_uint256,t_string_storage)"
      },
      {
        "astId": 7,
        "contract": "src/HarbergerAdsFull.sol:HarbergerAdsFull",
        "label": "_owner",
        "offset": 0,
        "slot": "11",
        "type": "t_address"
      },
      {
        "astId": 12254,
        "contract": "src/HarbergerAdsFull.sol:HarbergerAdsFull",
        "label": "ads",
        "offset": 0,
        "slot": "12",
        "type": "t_mapping(t_uint256,t_struct(Ad)12237_storage)"
      },
      {
        "astId": 12258,
        "contract": "src/HarbergerAdsFull.sol:HarbergerAdsFull",
        "label": "adsBalanceOf",
        "offset": 0,
        "slot": "13",
        "type": "t_mapping(t_address,t_uint256)"
      },
      {
        "astId": 12265,
        "contract": "src/HarbergerAdsFull.sol:HarbergerAdsFull",
        "label": "_tokenIdCounter",
        "offset": 0,
        "slot": "14",
        "type": "t_struct(Counter)2646_storage"
      }
    ],
    "types": {
      "t_address": {
        "encoding": "inplace",
        "label": "address",
        "numberOfBytes": "20"
      },
      "t_array(t_uint256)dyn_storage": {
        "base": "t_uint256",
        "encoding": "dynamic_array",
        "label": "uint256[]",
        "numberOfBytes": "32"
      },
      "t_bool": {
        "encoding": "inplace",
        "label": "bool",
        "numberOfBytes": "1"
      },
      "t_mapping(t_address,t_bool)": {
        "encoding": "mapping",
        "key": "t_address",
        "label": "mapping(address => bool)",
        "numberOfBytes": "32",
        "value": "t_bool"
      },
      "t_mapping(t_address,t_mapping(t_address,t_bool))": {
        "encoding": "mapping",
        "key": "t_address",
        "label": "mapping(address => mapping(address => bool))",
        "numberOfBytes": "32",
        "value": "t_mapping(t_address,t_bool)"
      },
      "t_mapping(t_address,t_mapping(t_uint256,t_uint256))": {
        "encoding": "mapping",
        "key": "t_address",
        "label": "mapping(address => mapping(uint256 => uint256))",
        "numberOfBytes": "32",
        "value": "t_mapping(t_uint256,t_uint256)"
      },
      "t_mapping(t_address,t_uint256)": {
        "encoding": "mapping",
        "key": "t_address",
        "label": "mapping(address => uint256)",
        "numberOfBytes": "32",
        "value": "t_uint256"
      },
      "t_mapping(t_uint256,t_address)": {
        "encoding": "mapping",
        "key": "t_uint256",
        "label": "mapping(uint256 => address)",
        "numberOfBytes": "32",
        "value": "t_address"
      },
      "t_mapping(t_uint256,t_string_storage)": {
        "encoding": "mapping",
        "key": "t_uint256",
        "label": "mapping(uint256 => string)",
        "numberOfBytes": "32",
        "value": "t_string_storage"
      },
      "t_mapping(t_uint256,t_struct(Ad)12237_storage)": {
        "encoding": "mapping",
        "key": "t_uint256",
        "label": "mapping(uint256 => struct HarbergerAdsFull.Ad)",
        "numberOfBytes": "32",
        "value": "t_struct(Ad)12237_storage"
      },
      "t_mapping(t_uint256,t_uint256)": {
        "encoding": "mapping",
        "key": "t_uint256",
        "label": "mapping(uint256 => uint256)",
        "numberOfBytes": "32",
        "value": "t_uint256"
      },
      "t_string_storage": {
        "encoding": "bytes",
        "label": "string",
        "numberOfBytes": "32"
      },
      "t_struct(Ad)12237_storage": {
        "encoding": "inplace",
        "label": "struct HarbergerAdsFull.Ad",
        "members": [
          {
            "astId": 12228,
            "contract": "src/HarbergerAdsFull.sol:HarbergerAdsFull",
            "label": "owner",
            "offset": 0,
            "slot": "0",
            "type": "t_address"
          },
          {
            "astId": 12230,
            "contract": "src/HarbergerAdsFull.sol:HarbergerAdsFull",
            "label": "valuation",
            "offset": 0,
            "slot": "1",
            "type": "t_uint256"
          },
          {
            "astId": 12232,
            "contract": "src/HarbergerAdsFull.sol:HarbergerAdsFull",
            "label": "fund",
            "offset": 0,
            "slot": "2",
            "type": "t_uint256"
          },
          {
            "astId": 12234,
            "contract": "src/HarbergerAdsFull.sol:HarbergerAdsFull",
            "label": "lastPaidTimestamp",
            "offset": 0,
            "slot": "3",
            "type": "t_uint256"
          },
          {
            "astId": 12236,
            "contract": "src/HarbergerAdsFull.sol:HarbergerAdsFull",
            "label": "nextValuationTimestamp",
            "offset": 0,
            "slot": "4",
            "type": "t_uint256"
          }
        ],
        "numberOfBytes": "160"
      },
      "t_struct(Counter)2646_storage": {
        "encoding": "inplace",
        "label": "struct Counters.Counter",
        "members": [
          {
            "astId": 2645,
            "contract": "src/HarbergerAdsFull.sol:HarbergerAdsFull",
            "label": "_value",
            "offset": 0,
            "slot": "0",
            "type": "t_uint256"
          }
        ],
        "numberOfBytes": "32"
      },
      "t_uint256": {
        "encoding": "inplace",
        "label": "uint256",
        "numberOfBytes": "32"
      }
    }
  }
}