{
  "address": "0xbd1d84273d2ed236a45f0fc586EaA6d1ad0a1426",
  "abi": [
    {
      "inputs": [
        {
          "internalType": "uint256",
          "name": "_taxRate",
          "type": "uint256"
        },
        {
          "internalType": "uint256",
          "name": "_cooldownPeriod",
          "type": "uint256"
        },
        {
          "internalType": "contract IERC20",
          "name": "_currency",
          "type": "address"
        },
        {
          "internalType": "address",
          "name": "_collector",
          "type": "address"
        },
        {
          "internalType": "string",
          "name": "_name",
          "type": "string"
        },
        {
          "internalType": "string",
          "name": "_symbol",
          "type": "string"
        }
      ],
      "stateMutability": "nonpayable",
      "type": "constructor"
    },
    {
      "anonymous": false,
      "inputs": [
        {
          "indexed": false,
          "internalType": "uint256",
          "name": "tokenId",
          "type": "uint256"
        },
        {
          "indexed": false,
          "internalType": "string",
          "name": "uri",
          "type": "string"
        }
      ],
      "name": "AdSet",
      "type": "event"
    },
    {
      "anonymous": false,
      "inputs": [
        {
          "indexed": true,
          "internalType": "address",
          "name": "owner",
          "type": "address"
        },
        {
          "indexed": true,
          "internalType": "address",
          "name": "approved",
          "type": "address"
        },
        {
          "indexed": true,
          "internalType": "uint256",
          "name": "tokenId",
          "type": "uint256"
        }
      ],
      "name": "Approval",
      "type": "event"
    },
    {
      "anonymous": false,
      "inputs": [
        {
          "indexed": true,
          "internalType": "address",
          "name": "owner",
          "type": "address"
        },
        {
          "indexed": true,
          "internalType": "address",
          "name": "operator",
          "type": "address"
        },
        {
          "indexed": false,
          "internalType": "bool",
          "name": "approved",
          "type": "bool"
        }
      ],
      "name": "ApprovalForAll",
      "type": "event"
    },
    {
      "anonymous": false,
      "inputs": [
        {
          "indexed": true,
          "internalType": "address",
          "name": "previousOwner",
          "type": "address"
        },
        {
          "indexed": true,
          "internalType": "address",
          "name": "newOwner",
          "type": "address"
        }
      ],
      "name": "OwnershipTransferred",
      "type": "event"
    },
    {
      "anonymous": false,
      "inputs": [
        {
          "indexed": true,
          "internalType": "uint256",
          "name": "_tokenId",
          "type": "uint256"
        },
        {
          "indexed": false,
          "internalType": "uint256",
          "name": "_value",
          "type": "uint256"
        }
      ],
      "name": "TaxPaid",
      "type": "event"
    },
    {
      "anonymous": false,
      "inputs": [
        {
          "indexed": true,
          "internalType": "uint256",
          "name": "_tokenId",
          "type": "uint256"
        },
        {
          "indexed": true,
          "internalType": "address",
          "name": "_owner",
          "type": "address"
        },
        {
          "indexed": false,
          "internalType": "uint256",
          "name": "_amount",
          "type": "uint256"
        }
      ],
      "name": "TokenBought",
      "type": "event"
    },
    {
      "anonymous": false,
      "inputs": [
        {
          "indexed": true,
          "internalType": "uint256",
          "name": "_tokenId",
          "type": "uint256"
        },
        {
          "indexed": false,
          "internalType": "uint256",
          "name": "_amount",
          "type": "uint256"
        }
      ],
      "name": "TokenFunded",
      "type": "event"
    },
    {
      "anonymous": false,
      "inputs": [
        {
          "indexed": true,
          "internalType": "address",
          "name": "from",
          "type": "address"
        },
        {
          "indexed": true,
          "internalType": "address",
          "name": "to",
          "type": "address"
        },
        {
          "indexed": true,
          "internalType": "uint256",
          "name": "tokenId",
          "type": "uint256"
        }
      ],
      "name": "Transfer",
      "type": "event"
    },
    {
      "anonymous": false,
      "inputs": [
        {
          "indexed": true,
          "internalType": "uint256",
          "name": "_tokenId",
          "type": "uint256"
        },
        {
          "indexed": false,
          "internalType": "uint256",
          "name": "_valuation",
          "type": "uint256"
        }
      ],
      "name": "ValuationSet",
      "type": "event"
    },
    {
      "inputs": [],
      "name": "DIVIDER",
      "outputs": [
        {
          "internalType": "uint256",
          "name": "",
          "type": "uint256"
        }
      ],
      "stateMutability": "view",
      "type": "function"
    },
    {
      "inputs": [
        {
          "internalType": "uint256",
          "name": "",
          "type": "uint256"
        }
      ],
      "name": "ads",
      "outputs": [
        {
          "internalType": "address",
          "name": "owner",
          "type": "address"
        },
        {
          "internalType": "uint256",
          "name": "valuation",
          "type": "uint256"
        },
        {
          "internalType": "uint256",
          "name": "fund",
          "type": "uint256"
        },
        {
          "internalType": "uint256",
          "name": "lastPaidTimestamp",
          "type": "uint256"
        },
        {
          "internalType": "uint256",
          "name": "nextValuationTimestamp",
          "type": "uint256"
        }
      ],
      "stateMutability": "view",
      "type": "function"
    },
    {
      "inputs": [
        {
          "internalType": "address",
          "name": "",
          "type": "address"
        }
      ],
      "name": "adsBalanceOf",
      "outputs": [
        {
          "internalType": "uint256",
          "name": "",
          "type": "uint256"
        }
      ],
      "stateMutability": "view",
      "type": "function"
    },
    {
      "inputs": [
        {
          "internalType": "address",
          "name": "to",
          "type": "address"
        },
        {
          "internalType": "uint256",
          "name": "tokenId",
          "type": "uint256"
        }
      ],
      "name": "approve",
      "outputs": [],
      "stateMutability": "nonpayable",
      "type": "function"
    },
    {
      "inputs": [
        {
          "internalType": "address",
          "name": "owner",
          "type": "address"
        }
      ],
      "name": "balanceOf",
      "outputs": [
        {
          "internalType": "uint256",
          "name": "",
          "type": "uint256"
        }
      ],
      "stateMutability": "view",
      "type": "function"
    },
    {
      "inputs": [
        {
          "internalType": "uint256",
          "name": "_tokenId",
          "type": "uint256"
        },
        {
          "internalType": "uint256",
          "name": "_offer",
          "type": "uint256"
        },
        {
          "internalType": "uint256",
          "name": "_valuation",
          "type": "uint256"
        },
        {
          "internalType": "uint256",
          "name": "_fund",
          "type": "uint256"
        }
      ],
      "name": "buy",
      "outputs": [],
      "stateMutability": "nonpayable",
      "type": "function"
    },
    {
      "inputs": [
        {
          "internalType": "uint256",
          "name": "_tokenId",
          "type": "uint256"
        },
        {
          "internalType": "uint256",
          "name": "_valuation",
          "type": "uint256"
        }
      ],
      "name": "changeValuation",
      "outputs": [],
      "stateMutability": "nonpayable",
      "type": "function"
    },
    {
      "inputs": [
        {
          "internalType": "uint256",
          "name": "_tokenId",
          "type": "uint256"
        }
      ],
      "name": "collect",
      "outputs": [],
      "stateMutability": "nonpayable",
      "type": "function"
    },
    {
      "inputs": [],
      "name": "collector",
      "outputs": [
        {
          "internalType": "address",
          "name": "",
          "type": "address"
        }
      ],
      "stateMutability": "view",
      "type": "function"
    },
    {
      "inputs": [],
      "name": "cooldownPeriod",
      "outputs": [
        {
          "internalType": "uint256",
          "name": "",
          "type": "uint256"
        }
      ],
      "stateMutability": "view",
      "type": "function"
    },
    {
      "inputs": [],
      "name": "currency",
      "outputs": [
        {
          "internalType": "contract IERC20",
          "name": "",
          "type": "address"
        }
      ],
      "stateMutability": "view",
      "type": "function"
    },
    {
      "inputs": [
        {
          "internalType": "uint256",
          "name": "_tokenId",
          "type": "uint256"
        },
        {
          "internalType": "uint256",
          "name": "_value",
          "type": "uint256"
        }
      ],
      "name": "defund",
      "outputs": [],
      "stateMutability": "nonpayable",
      "type": "function"
    },
    {
      "inputs": [
        {
          "internalType": "uint256",
          "name": "_tokenId",
          "type": "uint256"
        }
      ],
      "name": "dueTaxes",
      "outputs": [
        {
          "internalType": "uint256",
          "name": "",
          "type": "uint256"
        }
      ],
      "stateMutability": "view",
      "type": "function"
    },
    {
      "inputs": [
        {
          "internalType": "uint256",
          "name": "_tokenId",
          "type": "uint256"
        },
        {
          "internalType": "uint256",
          "name": "_value",
          "type": "uint256"
        }
      ],
      "name": "fund",
      "outputs": [],
      "stateMutability": "nonpayable",
      "type": "function"
    },
    {
      "inputs": [
        {
          "internalType": "uint256",
          "name": "tokenId",
          "type": "uint256"
        }
      ],
      "name": "getApproved",
      "outputs": [
        {
          "internalType": "address",
          "name": "",
          "type": "address"
        }
      ],
      "stateMutability": "view",
      "type": "function"
    },
    {
      "inputs": [
        {
          "internalType": "address",
          "name": "owner",
          "type": "address"
        },
        {
          "internalType": "address",
          "name": "operator",
          "type": "address"
        }
      ],
      "name": "isApprovedForAll",
      "outputs": [
        {
          "internalType": "bool",
          "name": "",
          "type": "bool"
        }
      ],
      "stateMutability": "view",
      "type": "function"
    },
    {
      "inputs": [
        {
          "internalType": "uint256",
          "name": "_value",
          "type": "uint256"
        }
      ],
      "name": "minimumFund",
      "outputs": [
        {
          "internalType": "uint256",
          "name": "",
          "type": "uint256"
        }
      ],
      "stateMutability": "view",
      "type": "function"
    },
    {
      "inputs": [],
      "name": "name",
      "outputs": [
        {
          "internalType": "string",
          "name": "",
          "type": "string"
        }
      ],
      "stateMutability": "view",
      "type": "function"
    },
    {
      "inputs": [],
      "name": "owner",
      "outputs": [
        {
          "internalType": "address",
          "name": "",
          "type": "address"
        }
      ],
      "stateMutability": "view",
      "type": "function"
    },
    {
      "inputs": [
        {
          "internalType": "uint256",
          "name": "tokenId",
          "type": "uint256"
        }
      ],
      "name": "ownerOf",
      "outputs": [
        {
          "internalType": "address",
          "name": "",
          "type": "address"
        }
      ],
      "stateMutability": "view",
      "type": "function"
    },
    {
      "inputs": [],
      "name": "renounceOwnership",
      "outputs": [],
      "stateMutability": "nonpayable",
      "type": "function"
    },
    {
      "inputs": [
        {
          "internalType": "uint256",
          "name": "_tokenId",
          "type": "uint256"
        }
      ],
      "name": "revoke",
      "outputs": [],
      "stateMutability": "nonpayable",
      "type": "function"
    },
    {
      "inputs": [
        {
          "internalType": "address",
          "name": "_to",
          "type": "address"
        },
        {
          "internalType": "string",
          "name": "_uri",
          "type": "string"
        }
      ],
      "name": "safeMint",
      "outputs": [],
      "stateMutability": "nonpayable",
      "type": "function"
    },
    {
      "inputs": [
        {
          "internalType": "address",
          "name": "from",
          "type": "address"
        },
        {
          "internalType": "address",
          "name": "to",
          "type": "address"
        },
        {
          "internalType": "uint256",
          "name": "tokenId",
          "type": "uint256"
        }
      ],
      "name": "safeTransferFrom",
      "outputs": [],
      "stateMutability": "nonpayable",
      "type": "function"
    },
    {
      "inputs": [
        {
          "internalType": "address",
          "name": "from",
          "type": "address"
        },
        {
          "internalType": "address",
          "name": "to",
          "type": "address"
        },
        {
          "internalType": "uint256",
          "name": "tokenId",
          "type": "uint256"
        },
        {
          "internalType": "bytes",
          "name": "data",
          "type": "bytes"
        }
      ],
      "name": "safeTransferFrom",
      "outputs": [],
      "stateMutability": "nonpayable",
      "type": "function"
    },
    {
      "inputs": [
        {
          "internalType": "uint256",
          "name": "_tokenId",
          "type": "uint256"
        },
        {
          "internalType": "string",
          "name": "_uri",
          "type": "string"
        }
      ],
      "name": "setAd",
      "outputs": [],
      "stateMutability": "nonpayable",
      "type": "function"
    },
    {
      "inputs": [
        {
          "internalType": "address",
          "name": "operator",
          "type": "address"
        },
        {
          "internalType": "bool",
          "name": "approved",
          "type": "bool"
        }
      ],
      "name": "setApprovalForAll",
      "outputs": [],
      "stateMutability": "nonpayable",
      "type": "function"
    },
    {
      "inputs": [
        {
          "internalType": "bytes4",
          "name": "interfaceId",
          "type": "bytes4"
        }
      ],
      "name": "supportsInterface",
      "outputs": [
        {
          "internalType": "bool",
          "name": "",
          "type": "bool"
        }
      ],
      "stateMutability": "view",
      "type": "function"
    },
    {
      "inputs": [],
      "name": "symbol",
      "outputs": [
        {
          "internalType": "string",
          "name": "",
          "type": "string"
        }
      ],
      "stateMutability": "view",
      "type": "function"
    },
    {
      "inputs": [],
      "name": "taxRate",
      "outputs": [
        {
          "internalType": "uint256",
          "name": "",
          "type": "uint256"
        }
      ],
      "stateMutability": "view",
      "type": "function"
    },
    {
      "inputs": [
        {
          "internalType": "uint256",
          "name": "_value",
          "type": "uint256"
        }
      ],
      "name": "taxesPerSecond",
      "outputs": [
        {
          "internalType": "uint256",
          "name": "",
          "type": "uint256"
        }
      ],
      "stateMutability": "view",
      "type": "function"
    },
    {
      "inputs": [
        {
          "internalType": "uint256",
          "name": "index",
          "type": "uint256"
        }
      ],
      "name": "tokenByIndex",
      "outputs": [
        {
          "internalType": "uint256",
          "name": "",
          "type": "uint256"
        }
      ],
      "stateMutability": "view",
      "type": "function"
    },
    {
      "inputs": [
        {
          "internalType": "address",
          "name": "owner",
          "type": "address"
        },
        {
          "internalType": "uint256",
          "name": "index",
          "type": "uint256"
        }
      ],
      "name": "tokenOfOwnerByIndex",
      "outputs": [
        {
          "internalType": "uint256",
          "name": "",
          "type": "uint256"
        }
      ],
      "stateMutability": "view",
      "type": "function"
    },
    {
      "inputs": [
        {
          "internalType": "uint256",
          "name": "tokenId",
          "type": "uint256"
        }
      ],
      "name": "tokenURI",
      "outputs": [
        {
          "internalType": "string",
          "name": "",
          "type": "string"
        }
      ],
      "stateMutability": "view",
      "type": "function"
    },
    {
      "inputs": [],
      "name": "totalSupply",
      "outputs": [
        {
          "internalType": "uint256",
          "name": "",
          "type": "uint256"
        }
      ],
      "stateMutability": "view",
      "type": "function"
    },
    {
      "inputs": [
        {
          "internalType": "address",
          "name": "from",
          "type": "address"
        },
        {
          "internalType": "address",
          "name": "to",
          "type": "address"
        },
        {
          "internalType": "uint256",
          "name": "tokenId",
          "type": "uint256"
        }
      ],
      "name": "transferFrom",
      "outputs": [],
      "stateMutability": "nonpayable",
      "type": "function"
    },
    {
      "inputs": [
        {
          "internalType": "address",
          "name": "newOwner",
          "type": "address"
        }
      ],
      "name": "transferOwnership",
      "outputs": [],
      "stateMutability": "nonpayable",
      "type": "function"
    }
  ],
  "transactionHash": "0xa3038f361a36d2ae5b1d3b9ac46d8c49246b49eeb68b3d68c520155d898c5df3",
  "args": [
    2000,
    100,
    "0x9c3C9283D3e44854697Cd22D3Faa240Cfb032889",
    "0x117Fa00bb08f39E52b04027cCF5BB9935C83C177",
    "Harberger Ads - EthCC Hack 2022",
    "HAC"
  ],
  "numDeployments": 7,
  "solcInputHash": "fd9a816cb3574ec1d48196011b8c5c92",
  "bytecode": "0x6101006040523480156200001257600080fd5b506040516200381438038062003814833981016040819052620000359162000289565b8151829082906200004e906000906020850190620000fd565b50805162000064906001906020840190620000fd565b505050620000816200007b620000a760201b60201c565b620000ab565b50506080939093526001600160a01b0390811660c05260a0919091521660e0526200036d565b3390565b600b80546001600160a01b038381166001600160a01b0319831681179093556040519116919082907f8be0079c531659141344cd1fd0a4f28419497f9722a3daafe3b4186f6b6457e090600090a35050565b8280546200010b9062000330565b90600052602060002090601f0160209004810192826200012f57600085556200017a565b82601f106200014a57805160ff19168380011785556200017a565b828001600101855582156200017a579182015b828111156200017a5782518255916020019190600101906200015d565b50620001889291506200018c565b5090565b5b808211156200018857600081556001016200018d565b6001600160a01b0381168114620001b957600080fd5b50565b634e487b7160e01b600052604160045260246000fd5b600082601f830112620001e457600080fd5b81516001600160401b0380821115620002015762000201620001bc565b604051601f8301601f19908116603f011681019082821181831017156200022c576200022c620001bc565b816040528381526020925086838588010111156200024957600080fd5b600091505b838210156200026d57858201830151818301840152908201906200024e565b838211156200027f5760008385830101525b9695505050505050565b60008060008060008060c08789031215620002a357600080fd5b86519550602087015194506040870151620002be81620001a3565b6060880151909450620002d181620001a3565b60808801519093506001600160401b0380821115620002ef57600080fd5b620002fd8a838b01620001d2565b935060a08901519150808211156200031457600080fd5b506200032389828a01620001d2565b9150509295509295509295565b600181811c908216806200034557607f821691505b602082108114156200036757634e487b7160e01b600052602260045260246000fd5b50919050565b60805160a05160c05160e0516133c56200044f6000396000818161047e015281816108c901528181610aa901528181610f70015281816117b7015281816118e901528181611db101528181611e780152611f410152600081816105450152818161089a015281816109db01528181610a6701528181610bb801528181610ea301528181610f43015281816113b501528181611603015281816116e10152818161178a015281816118bc0152611de001526000818161025901528181610cc201528181611a100152611acd015260008181610433015261131101526133c56000f3fe608060405234801561001057600080fd5b50600436106102275760003560e01c8063715018a611610130578063c397ae39116100b8578063e5a6b10f1161007c578063e5a6b10f14610540578063e6d2806314610567578063e985e9c51461057a578063f2fde38b146105b6578063f9128388146105c957600080fd5b8063c397ae39146104e1578063c87b56dd146104f4578063ce3f865f14610507578063cf264e9a1461051a578063d204c45e1461052d57600080fd5b8063913e77ad116100ff578063913e77ad1461047957806395d89b41146104a0578063a22cb465146104a8578063a65e2cfd146104bb578063b88d4fde146104ce57600080fd5b8063715018a614610426578063771a3a1d1461042e5780638a784c4a146104555780638da5cb5b1461046857600080fd5b806323b872dd116101b35780634f6ccce7116101825780634f6ccce7146103d15780635a8b754d146103e457806362043bd8146103f75780636352211e1461040057806370a082311461041357600080fd5b806323b872dd146103855780632f745c591461039857806337966404146103ab57806342842e0e146103be57600080fd5b8063095ea7b3116101fa578063095ea7b3146102c957806311a7a4c0146102de5780631281311d1461035757806318160ddd1461036a57806320c5429b1461037257600080fd5b806301ffc9a71461022c57806304646a491461025457806306fdde0314610289578063081812fc1461029e575b600080fd5b61023f61023a366004612c4f565b6105e9565b60405190151581526020015b60405180910390f35b61027b7f000000000000000000000000000000000000000000000000000000000000000081565b60405190815260200161024b565b6102916105fa565b60405161024b9190612cc4565b6102b16102ac366004612cd7565b61068c565b6040516001600160a01b03909116815260200161024b565b6102dc6102d7366004612d0c565b6106b3565b005b6103256102ec366004612cd7565b600c60205260009081526040902080546001820154600283015460038401546004909401546001600160a01b0390931693919290919085565b604080516001600160a01b0390961686526020860194909452928401919091526060830152608082015260a00161024b565b6102dc610365366004612d36565b6107ce565b60085461027b565b6102dc610380366004612cd7565b610ddf565b6102dc610393366004612d68565b611009565b61027b6103a6366004612d0c565b61103a565b61027b6103b9366004612cd7565b6110d0565b6102dc6103cc366004612d68565b61113c565b61027b6103df366004612cd7565b611157565b61027b6103f2366004612cd7565b6111ea565b61027b61271081565b6102b161040e366004612cd7565b61120c565b61027b610421366004612da4565b61126c565b6102dc6112f2565b61027b7f000000000000000000000000000000000000000000000000000000000000000081565b61027b610463366004612cd7565b611306565b600b546001600160a01b03166102b1565b6102b17f000000000000000000000000000000000000000000000000000000000000000081565b610291611350565b6102dc6104b6366004612dcd565b61135f565b6102dc6104c9366004612e04565b61136e565b6102dc6104dc366004612eb2565b6114a3565b6102dc6104ef366004612e04565b6114db565b610291610502366004612cd7565b61184f565b6102dc610515366004612cd7565b61185a565b6102dc610528366004612e04565b61192f565b6102dc61053b366004612f2e565b611a6c565b6102b17f000000000000000000000000000000000000000000000000000000000000000081565b6102dc610575366004612f90565b611b0b565b61023f61058836600461300c565b6001600160a01b03918216600090815260056020908152604080832093909416825291909152205460ff1690565b6102dc6105c4366004612da4565b611bcc565b61027b6105d7366004612da4565b600d6020526000908152604090205481565b60006105f482611c45565b92915050565b6060600080546106099061303f565b80601f01602080910402602001604051908101604052809291908181526020018280546106359061303f565b80156106825780601f1061065757610100808354040283529160200191610682565b820191906000526020600020905b81548152906001019060200180831161066557829003601f168201915b5050505050905090565b600061069782611c6a565b506000908152600460205260409020546001600160a01b031690565b60006106be8261120c565b9050806001600160a01b0316836001600160a01b031614156107315760405162461bcd60e51b815260206004820152602160248201527f4552433732313a20617070726f76616c20746f2063757272656e74206f776e656044820152603960f91b60648201526084015b60405180910390fd5b336001600160a01b038216148061074d575061074d8133610588565b6107bf5760405162461bcd60e51b815260206004820152603e60248201527f4552433732313a20617070726f76652063616c6c6572206973206e6f7420746f60448201527f6b656e206f776e6572206e6f7220617070726f76656420666f7220616c6c00006064820152608401610728565b6107c98383611cc9565b505050565b6000848152600c6020526040902060085485106107fd5760405162461bcd60e51b81526004016107289061307a565b80546001600160a01b031633141561084f5760405162461bcd60e51b815260206004820152601560248201527410d85b89dd08189d5e481e5bdd5c881bdddb881859605a1b6044820152606401610728565b600061085a866110d0565b825460028401549192506001600160a01b03169082111561094b57610883878460020154611d37565b6040516323b872dd60e01b81526001600160a01b037f000000000000000000000000000000000000000000000000000000000000000016906323b872dd906108f39033907f0000000000000000000000000000000000000000000000000000000000000000908b906004016130a0565b602060405180830381600087803b15801561090d57600080fd5b505af1158015610921573d6000803e3d6000fd5b505050506040513d601f19601f8201168201806040525081019061094591906130c4565b50610b56565b858360010154111561098f5760405162461bcd60e51b815260206004820152600d60248201526c2637bbb130b6361037b33332b960991b6044820152606401610728565b61099d878460020154611d37565b82546001600160a01b031615610a5b578254600284015460405163a9059cbb60e01b81526001600160a01b03928316600482015260248101919091527f00000000000000000000000000000000000000000000000000000000000000009091169063a9059cbb90604401602060405180830381600087803b158015610a2157600080fd5b505af1158015610a35573d6000803e3d6000fd5b505050506040513d601f19601f82011682018060405250810190610a5991906130c4565b505b82546001600160a01b037f00000000000000000000000000000000000000000000000000000000000000008116916323b872dd9133911615610aa75785546001600160a01b0316610ac9565b7f00000000000000000000000000000000000000000000000000000000000000005b896040518463ffffffff1660e01b8152600401610ae8939291906130a0565b602060405180830381600087803b158015610b0257600080fd5b505af1158015610b16573d6000803e3d6000fd5b505050506040513d601f19601f82011682018060405250810190610b3a91906130c4565b610b565760405162461bcd60e51b8152600401610728906130e1565b610b5f856111ea565b841015610ba15760405162461bcd60e51b815260206004820152601060248201526f4e6f7420656e6f7567682066756e647360801b6044820152606401610728565b6040516323b872dd60e01b81526001600160a01b037f000000000000000000000000000000000000000000000000000000000000000016906323b872dd90610bf1903390309089906004016130a0565b602060405180830381600087803b158015610c0b57600080fd5b505af1158015610c1f573d6000803e3d6000fd5b505050506040513d601f19601f82011682018060405250810190610c4391906130c4565b610c5f5760405162461bcd60e51b8152600401610728906130e1565b82546001600160a01b031615610c9f5782546001600160a01b03166000908152600d60205260408120805460019290610c9990849061311d565b90915550505b82546001600160a01b031916331783556002830184905560018301859055610ce77f000000000000000000000000000000000000000000000000000000000000000042613134565b6004840155426003840155336000908152600d60205260408120805460019290610d12908490613134565b9091555050604051879033906001600160a01b0384169060008051602061337083398151915290600090a4604051868152339088907f787925e050e8cb8dba61a675397ced37ba5304fc76b70c50b62753eed7c9ef649060200160405180910390a3867fb607f618d42004a68651337cff412752d042354c4fd3a56fe8ae01e34fa969c886604051610da691815260200190565b60405180910390a28660008051602061335083398151915285604051610dce91815260200190565b60405180910390a250505050505050565b6008548110610e005760405162461bcd60e51b81526004016107289061307a565b6000818152600c6020526040902080546001600160a01b03163314610e535760405162461bcd60e51b81526020600482015260096024820152682737ba1037bbb732b960b91b6044820152606401610728565b6000610e5e836110d0565b905081600201548111610f2757610e758382611d37565b8154600283015460405163a9059cbb60e01b81526001600160a01b03928316600482015260248101919091527f00000000000000000000000000000000000000000000000000000000000000009091169063a9059cbb90604401602060405180830381600087803b158015610ee957600080fd5b505af1158015610efd573d6000803e3d6000fd5b505050506040513d601f19601f82011682018060405250810190610f2191906130c4565b50611000565b600282015460405163a9059cbb60e01b81526001600160a01b037f0000000000000000000000000000000000000000000000000000000000000000169163a9059cbb91610fac917f0000000000000000000000000000000000000000000000000000000000000000916004016001600160a01b03929092168252602082015260400190565b602060405180830381600087803b158015610fc657600080fd5b505af1158015610fda573d6000803e3d6000fd5b505050506040513d601f19601f82011682018060405250810190610ffe91906130c4565b505b6107c983611e5c565b6110133382611f92565b61102f5760405162461bcd60e51b81526004016107289061314c565b6107c9838383612010565b60006110458361126c565b82106110a75760405162461bcd60e51b815260206004820152602b60248201527f455243373231456e756d657261626c653a206f776e657220696e646578206f7560448201526a74206f6620626f756e647360a81b6064820152608401610728565b506001600160a01b03919091166000908152600660209081526040808320938352929052205490565b60006110db60085490565b82106110f95760405162461bcd60e51b81526004016107289061307a565b6000828152600c60205260408120600181015490919061111890611306565b905081600301544261112a919061311d565b611134908261319a565b949350505050565b6107c9838383604051806020016040528060008152506114a3565b600061116260085490565b82106111c55760405162461bcd60e51b815260206004820152602c60248201527f455243373231456e756d657261626c653a20676c6f62616c20696e646578206f60448201526b7574206f6620626f756e647360a01b6064820152608401610728565b600882815481106111d8576111d86131b9565b90600052602060002001549050919050565b6000806111f683611306565b905061120581622819a061319a565b9392505050565b6000818152600260205260408120546001600160a01b0316806105f45760405162461bcd60e51b8152602060048201526018602482015277115490cdcc8c4e881a5b9d985b1a59081d1bdad95b88125160421b6044820152606401610728565b60006001600160a01b0382166112d65760405162461bcd60e51b815260206004820152602960248201527f4552433732313a2061646472657373207a65726f206973206e6f7420612076616044820152683634b21037bbb732b960b91b6064820152608401610728565b506001600160a01b031660009081526003602052604090205490565b6112fa6121a5565b61130460006121ff565b565b6000806127106113367f00000000000000000000000000000000000000000000000000000000000000008561319a565b61134091906131e5565b90506112056301e13380826131e5565b6060600180546106099061303f565b61136a338383612251565b5050565b600854821061138f5760405162461bcd60e51b81526004016107289061307a565b6000828152600c60205260409081902090516323b872dd60e01b81526001600160a01b037f000000000000000000000000000000000000000000000000000000000000000016906323b872dd906113ee903390309087906004016130a0565b602060405180830381600087803b15801561140857600080fd5b505af115801561141c573d6000803e3d6000fd5b505050506040513d601f19601f8201168201806040525081019061144091906130c4565b61145c5760405162461bcd60e51b8152600401610728906130e1565b818160020160008282546114709190613134565b909155505060028101546040519081528390600080516020613350833981519152906020015b60405180910390a2505050565b6114ad3383611f92565b6114c95760405162461bcd60e51b81526004016107289061314c565b6114d584848484612320565b50505050565b60085482106114fc5760405162461bcd60e51b81526004016107289061307a565b6000828152600c6020526040902080546001600160a01b0316331461154f5760405162461bcd60e51b81526020600482015260096024820152682737ba1037bbb732b960b91b6044820152606401610728565b80600401544210156115945760405162461bcd60e51b815260206004820152600e60248201526d57616974206d6f72652074696d6560901b6044820152606401610728565b600061159f846110d0565b90508160020154811161176e576115b68482611d37565b81600201548310156116b357828260020160008282546115d6919061311d565b9091555050815460405163a9059cbb60e01b81526001600160a01b039182166004820152602481018590527f00000000000000000000000000000000000000000000000000000000000000009091169063a9059cbb90604401602060405180830381600087803b15801561164957600080fd5b505af115801561165d573d6000803e3d6000fd5b505050506040513d601f19601f8201168201806040525081019061168191906130c4565b508360008051602061335083398151915283600201546040516116a691815260200190565b60405180910390a26114d5565b8154600283015460405163a9059cbb60e01b81526001600160a01b03928316600482015260248101919091527f00000000000000000000000000000000000000000000000000000000000000009091169063a9059cbb90604401602060405180830381600087803b15801561172757600080fd5b505af115801561173b573d6000803e3d6000fd5b505050506040513d601f19601f8201168201806040525081019061175f91906130c4565b5061176984611e5c565b6114d5565b600282015460405163a9059cbb60e01b81526001600160a01b037f0000000000000000000000000000000000000000000000000000000000000000169163a9059cbb916117f3917f0000000000000000000000000000000000000000000000000000000000000000916004016001600160a01b03929092168252602082015260400190565b602060405180830381600087803b15801561180d57600080fd5b505af1158015611821573d6000803e3d6000fd5b505050506040513d601f19601f8201168201806040525081019061184591906130c4565b506114d584611e5c565b60606105f482612353565b600854811061187b5760405162461bcd60e51b81526004016107289061307a565b6000818152600c6020526040812090611893836110d0565b90508160020154811061192557600282015460405163a9059cbb60e01b81526001600160a01b037f0000000000000000000000000000000000000000000000000000000000000000169163a9059cbb91610fac917f0000000000000000000000000000000000000000000000000000000000000000916004016001600160a01b03929092168252602082015260400190565b6107c98382611d37565b60085482106119505760405162461bcd60e51b81526004016107289061307a565b6000828152600c6020526040902080546001600160a01b031633146119a45760405162461bcd60e51b815260206004820152600a60248201526927b7363c9037bbb732b960b11b6044820152606401610728565b81816001015411156119fb5780600401544210156119fb5760405162461bcd60e51b8152602060048201526014602482015273546f6f20736f6f6e20746f20646563726561736560601b6044820152606401610728565b611a048361185a565b60018101829055611a357f000000000000000000000000000000000000000000000000000000000000000042613134565b600482015560405182815283907fb607f618d42004a68651337cff412752d042354c4fd3a56fe8ae01e34fa969c890602001611496565b611a746121a5565b6000611a7f600e5490565b9050611a8f600e80546001019055565b6000818152600c6020526040812080546001600160a01b0319166001600160a01b0386161781554260038201819055600182019290925590611af2907f000000000000000000000000000000000000000000000000000000000000000090613134565b6004820155611b01848361245c565b6114d58284612476565b6008548310611b2c5760405162461bcd60e51b81526004016107289061307a565b6000838152600c6020526040902080546001600160a01b03163314611b8b5760405162461bcd60e51b815260206004820152601560248201527413db9b1e481bdddb995c8818da185b99d95cc81859605a1b6044820152606401610728565b7fae0663072bcb7f24f009e8ad0e7bd01cb00a189760d428d8ff269525830db407848484604051611bbe939291906131f9565b60405180910390a150505050565b611bd46121a5565b6001600160a01b038116611c395760405162461bcd60e51b815260206004820152602660248201527f4f776e61626c653a206e6577206f776e657220697320746865207a65726f206160448201526564647265737360d01b6064820152608401610728565b611c42816121ff565b50565b60006001600160e01b0319821663780e9d6360e01b14806105f457506105f482612510565b6000818152600260205260409020546001600160a01b0316611c425760405162461bcd60e51b8152602060048201526018602482015277115490cdcc8c4e881a5b9d985b1a59081d1bdad95b88125160421b6044820152606401610728565b600081815260046020526040902080546001600160a01b0319166001600160a01b0384169081179091558190611cfe8261120c565b6001600160a01b03167f8c5be1e5ebec7d5bd14f71427d1e84f3dd0314c0f7b2291e5b200ac8c7c3b92560405160405180910390a45050565b6000828152600c6020526040812060028101805491928492611d5a90849061311d565b909155505042600382015560405182815283907f65c3c2ca9c0a91fa382799173e8eaba4f2d15dc17f9d7b3194a673f5311ccdaa9060200160405180910390a260405163a9059cbb60e01b81526001600160a01b037f000000000000000000000000000000000000000000000000000000000000000081166004830152602482018490527f0000000000000000000000000000000000000000000000000000000000000000169063a9059cbb90604401602060405180830381600087803b158015611e2457600080fd5b505af1158015611e38573d6000803e3d6000fd5b505050506040513d601f19601f820116820180604052508101906114d591906130c4565b6000818152600c602090815260408083208054600282018590557f00000000000000000000000000000000000000000000000000000000000000006001600160a01b039081166001600160a01b031983161783556001808401879055338752600d909552928520805492959390911693929091611eda90849061311d565b90915550506040516000815283907fb607f618d42004a68651337cff412752d042354c4fd3a56fe8ae01e34fa969c89060200160405180910390a2826000805160206133508339815191526000604051611f3691815260200190565b60405180910390a2827f00000000000000000000000000000000000000000000000000000000000000006001600160a01b0316826001600160a01b031660008051602061337083398151915260405160405180910390a4505050565b600080611f9e8361120c565b9050806001600160a01b0316846001600160a01b03161480611fe557506001600160a01b0380821660009081526005602090815260408083209388168352929052205460ff165b806111345750836001600160a01b0316611ffe8461068c565b6001600160a01b031614949350505050565b826001600160a01b03166120238261120c565b6001600160a01b0316146120875760405162461bcd60e51b815260206004820152602560248201527f4552433732313a207472616e736665722066726f6d20696e636f72726563742060448201526437bbb732b960d91b6064820152608401610728565b6001600160a01b0382166120e95760405162461bcd60e51b8152602060048201526024808201527f4552433732313a207472616e7366657220746f20746865207a65726f206164646044820152637265737360e01b6064820152608401610728565b6120f4838383612560565b6120ff600082611cc9565b6001600160a01b038316600090815260036020526040812080546001929061212890849061311d565b90915550506001600160a01b0382166000908152600360205260408120805460019290612156908490613134565b909155505060008181526002602052604080822080546001600160a01b0319166001600160a01b03868116918217909255915184939187169160008051602061337083398151915291a4505050565b600b546001600160a01b031633146113045760405162461bcd60e51b815260206004820181905260248201527f4f776e61626c653a2063616c6c6572206973206e6f7420746865206f776e65726044820152606401610728565b600b80546001600160a01b038381166001600160a01b0319831681179093556040519116919082907f8be0079c531659141344cd1fd0a4f28419497f9722a3daafe3b4186f6b6457e090600090a35050565b816001600160a01b0316836001600160a01b031614156122b35760405162461bcd60e51b815260206004820152601960248201527f4552433732313a20617070726f766520746f2063616c6c6572000000000000006044820152606401610728565b6001600160a01b03838116600081815260056020908152604080832094871680845294825291829020805460ff191686151590811790915591519182527f17307eab39ab6107e8899845ad3d59bd9653f200f220920489ca2b5937696c31910160405180910390a3505050565b61232b848484612010565b6123378484848461256b565b6114d55760405162461bcd60e51b81526004016107289061322f565b606061235e82611c6a565b6000828152600a6020526040812080546123779061303f565b80601f01602080910402602001604051908101604052809291908181526020018280546123a39061303f565b80156123f05780601f106123c5576101008083540402835291602001916123f0565b820191906000526020600020905b8154815290600101906020018083116123d357829003601f168201915b50505050509050600061240e60408051602081019091526000815290565b9050805160001415612421575092915050565b81511561245357808260405160200161243b929190613281565b60405160208183030381529060405292505050919050565b61113484612678565b61136a8282604051806020016040528060008152506126eb565b6000828152600260205260409020546001600160a01b03166124f15760405162461bcd60e51b815260206004820152602e60248201527f45524337323155524953746f726167653a2055524920736574206f66206e6f6e60448201526d32bc34b9ba32b73a103a37b5b2b760911b6064820152608401610728565b6000828152600a6020908152604090912082516107c992840190612ba0565b60006001600160e01b031982166380ac58cd60e01b148061254157506001600160e01b03198216635b5e139f60e01b145b806105f457506301ffc9a760e01b6001600160e01b03198316146105f4565b6107c983838361271e565b60006001600160a01b0384163b1561266d57604051630a85bd0160e11b81526001600160a01b0385169063150b7a02906125af9033908990889088906004016132b0565b602060405180830381600087803b1580156125c957600080fd5b505af19250505080156125f9575060408051601f3d908101601f191682019092526125f6918101906132ed565b60015b612653573d808015612627576040519150601f19603f3d011682016040523d82523d6000602084013e61262c565b606091505b50805161264b5760405162461bcd60e51b81526004016107289061322f565b805181602001fd5b6001600160e01b031916630a85bd0160e11b149050611134565b506001949350505050565b606061268382611c6a565b600061269a60408051602081019091526000815290565b905060008151116126ba5760405180602001604052806000815250611205565b806126c4846127d6565b6040516020016126d5929190613281565b6040516020818303038152906040529392505050565b6126f583836128d4565b612702600084848461256b565b6107c95760405162461bcd60e51b81526004016107289061322f565b6001600160a01b0383166127795761277481600880546000838152600960205260408120829055600182018355919091527ff3f7a9fe364faab93b216da50a3214154f22a0a2b415b23a84c8169e8b636ee30155565b61279c565b816001600160a01b0316836001600160a01b03161461279c5761279c8382612a10565b6001600160a01b0382166127b3576107c981612aad565b826001600160a01b0316826001600160a01b0316146107c9576107c98282612b5c565b6060816127fa5750506040805180820190915260018152600360fc1b602082015290565b8160005b8115612824578061280e8161330a565b915061281d9050600a836131e5565b91506127fe565b60008167ffffffffffffffff81111561283f5761283f612e26565b6040519080825280601f01601f191660200182016040528015612869576020820181803683370190505b5090505b84156111345761287e60018361311d565b915061288b600a86613325565b612896906030613134565b60f81b8183815181106128ab576128ab6131b9565b60200101906001600160f81b031916908160001a9053506128cd600a866131e5565b945061286d565b6001600160a01b03821661292a5760405162461bcd60e51b815260206004820181905260248201527f4552433732313a206d696e7420746f20746865207a65726f20616464726573736044820152606401610728565b6000818152600260205260409020546001600160a01b03161561298f5760405162461bcd60e51b815260206004820152601c60248201527f4552433732313a20746f6b656e20616c7265616479206d696e746564000000006044820152606401610728565b61299b60008383612560565b6001600160a01b03821660009081526003602052604081208054600192906129c4908490613134565b909155505060008181526002602052604080822080546001600160a01b0319166001600160a01b0386169081179091559051839290600080516020613370833981519152908290a45050565b60006001612a1d8461126c565b612a27919061311d565b600083815260076020526040902054909150808214612a7a576001600160a01b03841660009081526006602090815260408083208584528252808320548484528184208190558352600790915290208190555b5060009182526007602090815260408084208490556001600160a01b039094168352600681528383209183525290812055565b600854600090612abf9060019061311d565b60008381526009602052604081205460088054939450909284908110612ae757612ae76131b9565b906000526020600020015490508060088381548110612b0857612b086131b9565b6000918252602080832090910192909255828152600990915260408082208490558582528120556008805480612b4057612b40613339565b6001900381819060005260206000200160009055905550505050565b6000612b678361126c565b6001600160a01b039093166000908152600660209081526040808320868452825280832085905593825260079052919091209190915550565b828054612bac9061303f565b90600052602060002090601f016020900481019282612bce5760008555612c14565b82601f10612be757805160ff1916838001178555612c14565b82800160010185558215612c14579182015b82811115612c14578251825591602001919060010190612bf9565b50612c20929150612c24565b5090565b5b80821115612c205760008155600101612c25565b6001600160e01b031981168114611c4257600080fd5b600060208284031215612c6157600080fd5b813561120581612c39565b60005b83811015612c87578181015183820152602001612c6f565b838111156114d55750506000910152565b60008151808452612cb0816020860160208601612c6c565b601f01601f19169290920160200192915050565b6020815260006112056020830184612c98565b600060208284031215612ce957600080fd5b5035919050565b80356001600160a01b0381168114612d0757600080fd5b919050565b60008060408385031215612d1f57600080fd5b612d2883612cf0565b946020939093013593505050565b60008060008060808587031215612d4c57600080fd5b5050823594602084013594506040840135936060013592509050565b600080600060608486031215612d7d57600080fd5b612d8684612cf0565b9250612d9460208501612cf0565b9150604084013590509250925092565b600060208284031215612db657600080fd5b61120582612cf0565b8015158114611c4257600080fd5b60008060408385031215612de057600080fd5b612de983612cf0565b91506020830135612df981612dbf565b809150509250929050565b60008060408385031215612e1757600080fd5b50508035926020909101359150565b634e487b7160e01b600052604160045260246000fd5b600067ffffffffffffffff80841115612e5757612e57612e26565b604051601f8501601f19908116603f01168101908282118183101715612e7f57612e7f612e26565b81604052809350858152868686011115612e9857600080fd5b858560208301376000602087830101525050509392505050565b60008060008060808587031215612ec857600080fd5b612ed185612cf0565b9350612edf60208601612cf0565b925060408501359150606085013567ffffffffffffffff811115612f0257600080fd5b8501601f81018713612f1357600080fd5b612f2287823560208401612e3c565b91505092959194509250565b60008060408385031215612f4157600080fd5b612f4a83612cf0565b9150602083013567ffffffffffffffff811115612f6657600080fd5b8301601f81018513612f7757600080fd5b612f8685823560208401612e3c565b9150509250929050565b600080600060408486031215612fa557600080fd5b83359250602084013567ffffffffffffffff80821115612fc457600080fd5b818601915086601f830112612fd857600080fd5b813581811115612fe757600080fd5b876020828501011115612ff957600080fd5b6020830194508093505050509250925092565b6000806040838503121561301f57600080fd5b61302883612cf0565b915061303660208401612cf0565b90509250929050565b600181811c9082168061305357607f821691505b6020821081141561307457634e487b7160e01b600052602260045260246000fd5b50919050565b6020808252600c908201526b4e6f74206578697374696e6760a01b604082015260600190565b6001600160a01b039384168152919092166020820152604081019190915260600190565b6000602082840312156130d657600080fd5b815161120581612dbf565b6020808252600c908201526b2130b2103a3930b739b332b960a11b604082015260600190565b634e487b7160e01b600052601160045260246000fd5b60008282101561312f5761312f613107565b500390565b6000821982111561314757613147613107565b500190565b6020808252602e908201527f4552433732313a2063616c6c6572206973206e6f7420746f6b656e206f776e6560408201526d1c881b9bdc88185c1c1c9bdd995960921b606082015260800190565b60008160001904831182151516156131b4576131b4613107565b500290565b634e487b7160e01b600052603260045260246000fd5b634e487b7160e01b600052601260045260246000fd5b6000826131f4576131f46131cf565b500490565b83815260406020820152816040820152818360608301376000818301606090810191909152601f909201601f1916010192915050565b60208082526032908201527f4552433732313a207472616e7366657220746f206e6f6e20455243373231526560408201527131b2b4bb32b91034b6b83632b6b2b73a32b960711b606082015260800190565b60008351613293818460208801612c6c565b8351908301906132a7818360208801612c6c565b01949350505050565b6001600160a01b03858116825284166020820152604081018390526080606082018190526000906132e390830184612c98565b9695505050505050565b6000602082840312156132ff57600080fd5b815161120581612c39565b600060001982141561331e5761331e613107565b5060010190565b600082613334576133346131cf565b500690565b634e487b7160e01b600052603160045260246000fdfee2c574ac6f15605f6ea5c165e0fa6af366d8f1ee6203f57dd2d3e8c82ce27aa7ddf252ad1be2c89b69c2b068fc378daa952ba7f163c4a11628f55a4df523b3efa26469706673582212206e4c39c54178316de1f7d0b269d7d8794a047e4e4bd08cd7b96057036a0c19c064736f6c63430008090033",
  "devdoc": {
    "kind": "dev",
    "methods": {
      "approve(address,uint256)": {
        "details": "See {IERC721-approve}."
      },
      "balanceOf(address)": {
        "details": "See {IERC721-balanceOf}."
      },
      "changeValuation(uint256,uint256)": {
        "details": "call this to change the percieved valuation of the token.",
        "params": {
          "_tokenId": "The identifier of the token to change valuation of.",
          "_valuation": "The new valuation of the token."
        }
      },
      "collect(uint256)": {
        "details": "call this to manually send pending taxes to the collector. This function should be callable by any external party.",
        "params": {
          "_tokenId": "The identifier of the token to pay taxes for."
        }
      },
      "defund(uint256,uint256)": {
        "details": "call this to remove excess funding for the token. if the resultant fund for the token was zero, it must be revoked.",
        "params": {
          "_tokenId": "The identifier of the token to defund.",
          "_value": "The amount to retrieve from the token's fund."
        }
      },
      "fund(uint256,uint256)": {
        "details": "call this to fund the item, to pay for the maintenance taxes.",
        "params": {
          "_tokenId": "The identifier of the token to fund.",
          "_value": "The amount sent to fund the token."
        }
      },
      "getApproved(uint256)": {
        "details": "See {IERC721-getApproved}."
      },
      "isApprovedForAll(address,address)": {
        "details": "See {IERC721-isApprovedForAll}."
      },
      "name()": {
        "details": "See {IERC721Metadata-name}."
      },
      "owner()": {
        "details": "Returns the address of the current owner."
      },
      "ownerOf(uint256)": {
        "details": "See {IERC721-ownerOf}."
      },
      "renounceOwnership()": {
        "details": "Leaves the contract without owner. It will not be possible to call `onlyOwner` functions anymore. Can only be called by the current owner. NOTE: Renouncing ownership will leave the contract without an owner, thereby removing any functionality that is only available to the owner."
      },
      "revoke(uint256)": {
        "details": "call this to revoke ownership of a token.",
        "params": {
          "_tokenId": "The identifier of the token to revoke."
        }
      },
      "safeTransferFrom(address,address,uint256)": {
        "details": "See {IERC721-safeTransferFrom}."
      },
      "safeTransferFrom(address,address,uint256,bytes)": {
        "details": "See {IERC721-safeTransferFrom}."
      },
      "setApprovalForAll(address,bool)": {
        "details": "See {IERC721-setApprovalForAll}."
      },
      "symbol()": {
        "details": "See {IERC721Metadata-symbol}."
      },
      "tokenByIndex(uint256)": {
        "details": "See {IERC721Enumerable-tokenByIndex}."
      },
      "tokenOfOwnerByIndex(address,uint256)": {
        "details": "See {IERC721Enumerable-tokenOfOwnerByIndex}."
      },
      "totalSupply()": {
        "details": "See {IERC721Enumerable-totalSupply}."
      },
      "transferFrom(address,address,uint256)": {
        "details": "See {IERC721-transferFrom}."
      },
      "transferOwnership(address)": {
        "details": "Transfers ownership of the contract to a new account (`newOwner`). Can only be called by the current owner."
      }
    },
    "version": 1
  },
  "userdoc": {
    "kind": "user",
    "methods": {
      "buy(uint256,uint256,uint256,uint256)": {
        "notice": "HARBERGER"
      },
      "dueTaxes(uint256)": {
        "notice": "VIEW FUNCTIONS"
      },
      "safeMint(address,string)": {
        "notice": "ERC-721"
      }
    },
    "version": 1
  },
  "storageLayout": {
    "storage": [
      {
        "astId": 827,
        "contract": "src/HarbergerAdsFull.sol:HarbergerAdsFull",
        "label": "_name",
        "offset": 0,
        "slot": "0",
        "type": "t_string_storage"
      },
      {
        "astId": 829,
        "contract": "src/HarbergerAdsFull.sol:HarbergerAdsFull",
        "label": "_symbol",
        "offset": 0,
        "slot": "1",
        "type": "t_string_storage"
      },
      {
        "astId": 833,
        "contract": "src/HarbergerAdsFull.sol:HarbergerAdsFull",
        "label": "_owners",
        "offset": 0,
        "slot": "2",
        "type": "t_mapping(t_uint256,t_address)"
      },
      {
        "astId": 837,
        "contract": "src/HarbergerAdsFull.sol:HarbergerAdsFull",
        "label": "_balances",
        "offset": 0,
        "slot": "3",
        "type": "t_mapping(t_address,t_uint256)"
      },
      {
        "astId": 841,
        "contract": "src/HarbergerAdsFull.sol:HarbergerAdsFull",
        "label": "_tokenApprovals",
        "offset": 0,
        "slot": "4",
        "type": "t_mapping(t_uint256,t_address)"
      },
      {
        "astId": 847,
        "contract": "src/HarbergerAdsFull.sol:HarbergerAdsFull",
        "label": "_operatorApprovals",
        "offset": 0,
        "slot": "5",
        "type": "t_mapping(t_address,t_mapping(t_address,t_bool))"
      },
      {
        "astId": 1817,
        "contract": "src/HarbergerAdsFull.sol:HarbergerAdsFull",
        "label": "_ownedTokens",
        "offset": 0,
        "slot": "6",
        "type": "t_mapping(t_address,t_mapping(t_uint256,t_uint256))"
      },
      {
        "astId": 1821,
        "contract": "src/HarbergerAdsFull.sol:HarbergerAdsFull",
        "label": "_ownedTokensIndex",
        "offset": 0,
        "slot": "7",
        "type": "t_mapping(t_uint256,t_uint256)"
      },
      {
        "astId": 1824,
        "contract": "src/HarbergerAdsFull.sol:HarbergerAdsFull",
        "label": "_allTokens",
        "offset": 0,
        "slot": "8",
        "type": "t_array(t_uint256)dyn_storage"
      },
      {
        "astId": 1828,
        "contract": "src/HarbergerAdsFull.sol:HarbergerAdsFull",
        "label": "_allTokensIndex",
        "offset": 0,
        "slot": "9",
        "type": "t_mapping(t_uint256,t_uint256)"
      },
      {
        "astId": 2153,
        "contract": "src/HarbergerAdsFull.sol:HarbergerAdsFull",
        "label": "_tokenURIs",
        "offset": 0,
        "slot": "10",
        "type": "t_mapping(t_uint256,t_string_storage)"
      },
      {
        "astId": 7,
        "contract": "src/HarbergerAdsFull.sol:HarbergerAdsFull",
        "label": "_owner",
        "offset": 0,
        "slot": "11",
        "type": "t_address"
      },
      {
        "astId": 12254,
        "contract": "src/HarbergerAdsFull.sol:HarbergerAdsFull",
        "label": "ads",
        "offset": 0,
        "slot": "12",
        "type": "t_mapping(t_uint256,t_struct(Ad)12237_storage)"
      },
      {
        "astId": 12258,
        "contract": "src/HarbergerAdsFull.sol:HarbergerAdsFull",
        "label": "adsBalanceOf",
        "offset": 0,
        "slot": "13",
        "type": "t_mapping(t_address,t_uint256)"
      },
      {
        "astId": 12265,
        "contract": "src/HarbergerAdsFull.sol:HarbergerAdsFull",
        "label": "_tokenIdCounter",
        "offset": 0,
        "slot": "14",
        "type": "t_struct(Counter)2646_storage"
      }
    ],
    "types": {
      "t_address": {
        "encoding": "inplace",
        "label": "address",
        "numberOfBytes": "20"
      },
      "t_array(t_uint256)dyn_storage": {
        "base": "t_uint256",
        "encoding": "dynamic_array",
        "label": "uint256[]",
        "numberOfBytes": "32"
      },
      "t_bool": {
        "encoding": "inplace",
        "label": "bool",
        "numberOfBytes": "1"
      },
      "t_mapping(t_address,t_bool)": {
        "encoding": "mapping",
        "key": "t_address",
        "label": "mapping(address => bool)",
        "numberOfBytes": "32",
        "value": "t_bool"
      },
      "t_mapping(t_address,t_mapping(t_address,t_bool))": {
        "encoding": "mapping",
        "key": "t_address",
        "label": "mapping(address => mapping(address => bool))",
        "numberOfBytes": "32",
        "value": "t_mapping(t_address,t_bool)"
      },
      "t_mapping(t_address,t_mapping(t_uint256,t_uint256))": {
        "encoding": "mapping",
        "key": "t_address",
        "label": "mapping(address => mapping(uint256 => uint256))",
        "numberOfBytes": "32",
        "value": "t_mapping(t_uint256,t_uint256)"
      },
      "t_mapping(t_address,t_uint256)": {
        "encoding": "mapping",
        "key": "t_address",
        "label": "mapping(address => uint256)",
        "numberOfBytes": "32",
        "value": "t_uint256"
      },
      "t_mapping(t_uint256,t_address)": {
        "encoding": "mapping",
        "key": "t_uint256",
        "label": "mapping(uint256 => address)",
        "numberOfBytes": "32",
        "value": "t_address"
      },
      "t_mapping(t_uint256,t_string_storage)": {
        "encoding": "mapping",
        "key": "t_uint256",
        "label": "mapping(uint256 => string)",
        "numberOfBytes": "32",
        "value": "t_string_storage"
      },
      "t_mapping(t_uint256,t_struct(Ad)12237_storage)": {
        "encoding": "mapping",
        "key": "t_uint256",
        "label": "mapping(uint256 => struct HarbergerAdsFull.Ad)",
        "numberOfBytes": "32",
        "value": "t_struct(Ad)12237_storage"
      },
      "t_mapping(t_uint256,t_uint256)": {
        "encoding": "mapping",
        "key": "t_uint256",
        "label": "mapping(uint256 => uint256)",
        "numberOfBytes": "32",
        "value": "t_uint256"
      },
      "t_string_storage": {
        "encoding": "bytes",
        "label": "string",
        "numberOfBytes": "32"
      },
      "t_struct(Ad)12237_storage": {
        "encoding": "inplace",
        "label": "struct HarbergerAdsFull.Ad",
        "members": [
          {
            "astId": 12228,
            "contract": "src/HarbergerAdsFull.sol:HarbergerAdsFull",
            "label": "owner",
            "offset": 0,
            "slot": "0",
            "type": "t_address"
          },
          {
            "astId": 12230,
            "contract": "src/HarbergerAdsFull.sol:HarbergerAdsFull",
            "label": "valuation",
            "offset": 0,
            "slot": "1",
            "type": "t_uint256"
          },
          {
            "astId": 12232,
            "contract": "src/HarbergerAdsFull.sol:HarbergerAdsFull",
            "label": "fund",
            "offset": 0,
            "slot": "2",
            "type": "t_uint256"
          },
          {
            "astId": 12234,
            "contract": "src/HarbergerAdsFull.sol:HarbergerAdsFull",
            "label": "lastPaidTimestamp",
            "offset": 0,
            "slot": "3",
            "type": "t_uint256"
          },
          {
            "astId": 12236,
            "contract": "src/HarbergerAdsFull.sol:HarbergerAdsFull",
            "label": "nextValuationTimestamp",
            "offset": 0,
            "slot": "4",
            "type": "t_uint256"
          }
        ],
        "numberOfBytes": "160"
      },
      "t_struct(Counter)2646_storage": {
        "encoding": "inplace",
        "label": "struct Counters.Counter",
        "members": [
          {
            "astId": 2645,
            "contract": "src/HarbergerAdsFull.sol:HarbergerAdsFull",
            "label": "_value",
            "offset": 0,
            "slot": "0",
            "type": "t_uint256"
          }
        ],
        "numberOfBytes": "32"
      },
      "t_uint256": {
        "encoding": "inplace",
        "label": "uint256",
        "numberOfBytes": "32"
      }
    }
  }
}