{
  "address": "0xee246a107ed867cc031113fd95c6141a19f44a24",
  "abi": [
    {
      "anonymous": false,
      "inputs": [
        {
          "indexed": false,
          "internalType": "contract HarbergerAds",
          "name": "_address",
          "type": "address"
        },
        {
          "indexed": false,
          "internalType": "uint256",
          "name": "_adCount",
          "type": "uint256"
        },
        {
          "indexed": false,
          "internalType": "uint256",
          "name": "_taxRate",
          "type": "uint256"
        },
        {
          "indexed": false,
          "internalType": "uint256",
          "name": "_cooldownPeriod",
          "type": "uint256"
        },
        {
          "indexed": false,
          "internalType": "contract IERC20",
          "name": "_currency",
          "type": "address"
        },
        {
          "indexed": false,
          "internalType": "address",
          "name": "_collector",
          "type": "address"
        }
      ],
      "name": "CollectionCreated",
      "type": "event"
    },
    {
      "inputs": [
        {
          "internalType": "uint256",
          "name": "_adCount",
          "type": "uint256"
        },
        {
          "internalType": "uint256",
          "name": "_taxRate",
          "type": "uint256"
        },
        {
          "internalType": "uint256",
          "name": "_cooldownPeriod",
          "type": "uint256"
        },
        {
          "internalType": "contract IERC20",
          "name": "_currency",
          "type": "address"
        },
        {
          "internalType": "address",
          "name": "_collector",
          "type": "address"
        },
        {
          "internalType": "string",
          "name": "_name",
          "type": "string"
        },
        {
          "internalType": "string",
          "name": "_symbol",
          "type": "string"
        },
        {
          "internalType": "string",
          "name": "_tokenURI",
          "type": "string"
        }
      ],
      "name": "create",
      "outputs": [],
      "stateMutability": "nonpayable",
      "type": "function"
    }
  ],
  "transactionHash": "0xcd1520d8f5322f77584b03175c89013117983baba1d98f431754bc21b0e3a99b",
  "args": [],
  "numDeployments": 2,
  "solcInputHash": "bb4cbf8d7e83633a5c7a87aabae4286e",
  "bytecode": "0x608060405234801561001057600080fd5b5061270f806100206000396000f3fe608060405234801561001057600080fd5b506004361061002b5760003560e01c80634cc2ad8e14610030575b600080fd5b61004361003e366004610187565b610045565b005b60008b8b8b8b8b8b8b8b8b8b8b60405161005e90610115565b6100729b9a9998979695949392919061028f565b604051809103906000f08015801561008e573d6000803e3d6000fd5b5090507f474df8b2df399ae66b461e124d7b64cda0dc3b3a27de0a9068d6c46e1a962e71818d8d8d8d8d6040516100ff969594939291906001600160a01b0396871681526020810195909552604085019390935260608401919091528316608083015290911660a082015260c00190565b60405180910390a1505050505050505050505050565b6123cc8061030e83390190565b80356001600160a01b038116811461013957600080fd5b919050565b60008083601f84011261015057600080fd5b50813567ffffffffffffffff81111561016857600080fd5b60208301915083602082850101111561018057600080fd5b9250929050565b60008060008060008060008060008060006101008c8e0312156101a957600080fd5b8b359a5060208c0135995060408c013598506101c760608d01610122565b97506101d560808d01610122565b965067ffffffffffffffff8060a08e013511156101f157600080fd5b6102018e60a08f01358f0161013e565b909750955060c08d013581101561021757600080fd5b6102278e60c08f01358f0161013e565b909550935060e08d013581101561023d57600080fd5b5061024e8d60e08e01358e0161013e565b81935080925050509295989b509295989b9093969950565b81835281816020850137506000828201602090810191909152601f909101601f19169091010190565b8b8152602081018b9052604081018a90526001600160a01b0389811660608301528816608082015261010060a082018190526000906102d1838201898b610266565b905082810360c08401526102e6818789610266565b905082810360e08401526102fb818587610266565b9e9d505050505050505050505050505056fe6101206040523480156200001257600080fd5b50604051620023cc380380620023cc833981016040819052620000359162000238565b60c088905260808790526001600160a01b0380861660e05260a087905284166101005280516200006d906002906020840190620000a8565b50815162000083906003906020850190620000a8565b50825162000099906003906020860190620000a8565b5050505050505050506200034a565b828054620000b6906200030d565b90600052602060002090601f016020900481019282620000da576000855562000125565b82601f10620000f557805160ff191683800117855562000125565b8280016001018555821562000125579182015b828111156200012557825182559160200191906001019062000108565b506200013392915062000137565b5090565b5b8082111562000133576000815560010162000138565b80516001600160a01b03811681146200016657600080fd5b919050565b634e487b7160e01b600052604160045260246000fd5b600082601f8301126200019357600080fd5b81516001600160401b0380821115620001b057620001b06200016b565b604051601f8301601f19908116603f01168101908282118183101715620001db57620001db6200016b565b81604052838152602092508683858801011115620001f857600080fd5b600091505b838210156200021c5785820183015181830184015290820190620001fd565b838211156200022e5760008385830101525b9695505050505050565b600080600080600080600080610100898b0312156200025657600080fd5b8851975060208901519650604089015195506200027660608a016200014e565b94506200028660808a016200014e565b60a08a01519094506001600160401b0380821115620002a457600080fd5b620002b28c838d0162000181565b945060c08b0151915080821115620002c957600080fd5b620002d78c838d0162000181565b935060e08b0151915080821115620002ee57600080fd5b50620002fd8b828c0162000181565b9150509295985092959890939650565b600181811c908216806200032257607f821691505b602082108114156200034457634e487b7160e01b600052602260045260246000fd5b50919050565b60805160a05160c05160e05161010051611f5d6200046f600039600081816104240152818161075f0152818161092e01528181610d89015281816113d0015281816115eb01528181611888015261199f0152600081816104f50152818161073001528181610861015281816108ec01528181610a3d01528181610cbc01528181610d5c01528181610fe80152818161121c015281816112fa015281816113a3015281816115be01526118b70152600081816104530152818161065601528181610bdc01528181610e2b01528181610ed101528181610f85015281816110d8015281816114720152818161154001528181611633015261178501526000818161022801528181610b0701526117270152600081816103ea0152610f350152611f5d6000f3fe608060405234801561001057600080fd5b50600436106101e55760003560e01c806370a082311161010f578063b88d4fde116100a2578063cf264e9a11610071578063cf264e9a146104dd578063e5a6b10f146104f0578063e6d2806314610517578063e985e9c51461052a57600080fd5b8063b88d4fde14610496578063c397ae39146104a4578063c87b56dd146104b7578063ce3f865f146104ca57600080fd5b806395d89b41116100de57806395d89b41146104465780639c89dcf31461044e578063a22cb46514610475578063a65e2cfd1461048357600080fd5b806370a08231146103bc578063771a3a1d146103e55780638a784c4a1461040c578063913e77ad1461041f57600080fd5b806320c5429b1161018757806342842e0e1161015657806342842e0e1461034c5780635a8b754d1461038d57806362043bd8146103a05780636352211e146103a957600080fd5b806320c5429b1461033957806323b872dd1461034c57806327e235e31461035a578063379664041461037a57600080fd5b8063081812fc116101c3578063081812fc1461026d578063095ea7b31461029857806311a7a4c0146102ad5780631281311d1461032657600080fd5b806301ffc9a7146101ea57806304646a491461022357806306fdde0314610258575b600080fd5b61020e6101f8366004611a7b565b6001600160e01b03191663861c59cd60e01b1490565b60405190151581526020015b60405180910390f35b61024a7f000000000000000000000000000000000000000000000000000000000000000081565b60405190815260200161021a565b610260610538565b60405161021a9190611aa5565b61028061027b366004611afa565b6105ca565b6040516001600160a01b03909116815260200161021a565b6102ab6102a6366004611b2f565b61060c565b005b6102f46102bb366004611afa565b600060208190529081526040902080546001820154600283015460038401546004909401546001600160a01b0390931693919290919085565b604080516001600160a01b0390961686526020860194909452928401919091526060830152608082015260a00161021a565b6102ab610334366004611b59565b610646565b6102ab610347366004611afa565b610bda565b6102ab6102a6366004611b8b565b61024a610368366004611bc7565b60016020526000908152604090205481565b61024a610388366004611afa565b610e27565b61024a61039b366004611afa565b610eab565b61024a61271081565b6102806103b7366004611afa565b610ecd565b61024a6103ca366004611bc7565b6001600160a01b031660009081526001602052604090205490565b61024a7f000000000000000000000000000000000000000000000000000000000000000081565b61024a61041a366004611afa565b610f2a565b6102807f000000000000000000000000000000000000000000000000000000000000000081565b610260610f74565b61024a7f000000000000000000000000000000000000000000000000000000000000000081565b6102ab6102a6366004611bf3565b6102ab610491366004611c2a565b610f83565b6102ab6102a6366004611c95565b6102ab6104b2366004611c2a565b6110d6565b6102606104c5366004611afa565b61146e565b6102ab6104d8366004611afa565b61153e565b6102ab6104eb366004611c2a565b611631565b6102807f000000000000000000000000000000000000000000000000000000000000000081565b6102ab610525366004611d04565b611783565b61020e61027b366004611d50565b60606004805461054790611d83565b80601f016020809104026020016040519081016040528092919081815260200182805461057390611d83565b80156105c05780601f10610595576101008083540402835291602001916105c0565b820191906000526020600020905b8154815290600101906020018083116105a357829003601f168201915b5050505050905090565b60405162461bcd60e51b815260206004820152600f60248201526e1393d5081253541311535153951151608a1b60448201526000906064015b60405180910390fd5b60405162461bcd60e51b815260206004820152600f60248201526e1393d5081253541311535153951151608a1b6044820152606401610603565b60008481526020819052604090207f000000000000000000000000000000000000000000000000000000000000000085106106935760405162461bcd60e51b815260040161060390611dbe565b80546001600160a01b03163314156106e55760405162461bcd60e51b815260206004820152601560248201527410d85b89dd08189d5e481e5bdd5c881bdddb881859605a1b6044820152606401610603565b60006106f086610e27565b825460028401549192506001600160a01b0316908211156107e157610719878460020154611862565b6040516323b872dd60e01b81526001600160a01b037f000000000000000000000000000000000000000000000000000000000000000016906323b872dd906107899033907f0000000000000000000000000000000000000000000000000000000000000000908b90600401611de4565b602060405180830381600087803b1580156107a357600080fd5b505af11580156107b7573d6000803e3d6000fd5b505050506040513d601f19601f820116820180604052508101906107db9190611e08565b506109db565b85836001015411156108255760405162461bcd60e51b815260206004820152600d60248201526c2637bbb130b6361037b33332b960991b6044820152606401610603565b610833878460020154611862565b8254600284015460405163a9059cbb60e01b81526001600160a01b03928316600482015260248101919091527f00000000000000000000000000000000000000000000000000000000000000009091169063a9059cbb90604401602060405180830381600087803b1580156108a757600080fd5b505af11580156108bb573d6000803e3d6000fd5b505050506040513d601f19601f820116820180604052508101906108df9190611e08565b5082546001600160a01b037f00000000000000000000000000000000000000000000000000000000000000008116916323b872dd913391161561092c5785546001600160a01b031661094e565b7f00000000000000000000000000000000000000000000000000000000000000005b896040518463ffffffff1660e01b815260040161096d93929190611de4565b602060405180830381600087803b15801561098757600080fd5b505af115801561099b573d6000803e3d6000fd5b505050506040513d601f19601f820116820180604052508101906109bf9190611e08565b6109db5760405162461bcd60e51b815260040161060390611e25565b6109e485610eab565b841015610a265760405162461bcd60e51b815260206004820152601060248201526f4e6f7420656e6f7567682066756e647360801b6044820152606401610603565b6040516323b872dd60e01b81526001600160a01b037f000000000000000000000000000000000000000000000000000000000000000016906323b872dd90610a7690339030908990600401611de4565b602060405180830381600087803b158015610a9057600080fd5b505af1158015610aa4573d6000803e3d6000fd5b505050506040513d601f19601f82011682018060405250810190610ac89190611e08565b610ae45760405162461bcd60e51b815260040161060390611e25565b82546001600160a01b031916331783556002830184905560018301859055610b2c7f000000000000000000000000000000000000000000000000000000000000000042611e61565b6004840155426003840155604051879033906001600160a01b038416907fddf252ad1be2c89b69c2b068fc378daa952ba7f163c4a11628f55a4df523b3ef90600090a4867fb607f618d42004a68651337cff412752d042354c4fd3a56fe8ae01e34fa969c886604051610ba191815260200190565b60405180910390a286600080516020611f0883398151915285604051610bc991815260200190565b60405180910390a250505050505050565b7f00000000000000000000000000000000000000000000000000000000000000008110610c195760405162461bcd60e51b815260040161060390611dbe565b600081815260208190526040902080546001600160a01b03163314610c6c5760405162461bcd60e51b81526020600482015260096024820152682737ba1037bbb732b960b91b6044820152606401610603565b6000610c7783610e27565b905081600201548111610d4057610c8e8382611862565b8154600283015460405163a9059cbb60e01b81526001600160a01b03928316600482015260248101919091527f00000000000000000000000000000000000000000000000000000000000000009091169063a9059cbb90604401602060405180830381600087803b158015610d0257600080fd5b505af1158015610d16573d6000803e3d6000fd5b505050506040513d601f19601f82011682018060405250810190610d3a9190611e08565b50610e19565b600282015460405163a9059cbb60e01b81526001600160a01b037f0000000000000000000000000000000000000000000000000000000000000000169163a9059cbb91610dc5917f0000000000000000000000000000000000000000000000000000000000000000916004016001600160a01b03929092168252602082015260400190565b602060405180830381600087803b158015610ddf57600080fd5b505af1158015610df3573d6000803e3d6000fd5b505050506040513d601f19601f82011682018060405250810190610e179190611e08565b505b610e2283611985565b505050565b60007f00000000000000000000000000000000000000000000000000000000000000008210610e685760405162461bcd60e51b815260040161060390611dbe565b60008281526020819052604081206001810154909190610e8790610f2a565b9050816003015442610e999190611e79565b610ea39082611e90565b949350505050565b600080610eb783610f2a565b9050610ec681622819a0611e90565b9392505050565b60007f00000000000000000000000000000000000000000000000000000000000000008210610f0e5760405162461bcd60e51b815260040161060390611dbe565b506000908152602081905260409020546001600160a01b031690565b600080612710610f5a7f000000000000000000000000000000000000000000000000000000000000000085611e90565b610f649190611eaf565b9050610ec66301e1338082611eaf565b60606003805461054790611d83565b7f00000000000000000000000000000000000000000000000000000000000000008210610fc25760405162461bcd60e51b815260040161060390611dbe565b6000828152602081905260409081902090516323b872dd60e01b81526001600160a01b037f000000000000000000000000000000000000000000000000000000000000000016906323b872dd9061102190339030908790600401611de4565b602060405180830381600087803b15801561103b57600080fd5b505af115801561104f573d6000803e3d6000fd5b505050506040513d601f19601f820116820180604052508101906110739190611e08565b61108f5760405162461bcd60e51b815260040161060390611e25565b818160020160008282546110a39190611e61565b909155505060028101546040519081528390600080516020611f08833981519152906020015b60405180910390a2505050565b7f000000000000000000000000000000000000000000000000000000000000000082106111155760405162461bcd60e51b815260040161060390611dbe565b600082815260208190526040902080546001600160a01b031633146111685760405162461bcd60e51b81526020600482015260096024820152682737ba1037bbb732b960b91b6044820152606401610603565b80600401544210156111ad5760405162461bcd60e51b815260206004820152600e60248201526d57616974206d6f72652074696d6560901b6044820152606401610603565b60006111b884610e27565b905081600201548111611387576111cf8482611862565b81600201548310156112cc57828260020160008282546111ef9190611e79565b9091555050815460405163a9059cbb60e01b81526001600160a01b039182166004820152602481018590527f00000000000000000000000000000000000000000000000000000000000000009091169063a9059cbb90604401602060405180830381600087803b15801561126257600080fd5b505af1158015611276573d6000803e3d6000fd5b505050506040513d601f19601f8201168201806040525081019061129a9190611e08565b5083600080516020611f0883398151915283600201546040516112bf91815260200190565b60405180910390a2611468565b8154600283015460405163a9059cbb60e01b81526001600160a01b03928316600482015260248101919091527f00000000000000000000000000000000000000000000000000000000000000009091169063a9059cbb90604401602060405180830381600087803b15801561134057600080fd5b505af1158015611354573d6000803e3d6000fd5b505050506040513d601f19601f820116820180604052508101906113789190611e08565b5061138284611985565b611468565b600282015460405163a9059cbb60e01b81526001600160a01b037f0000000000000000000000000000000000000000000000000000000000000000169163a9059cbb9161140c917f0000000000000000000000000000000000000000000000000000000000000000916004016001600160a01b03929092168252602082015260400190565b602060405180830381600087803b15801561142657600080fd5b505af115801561143a573d6000803e3d6000fd5b505050506040513d601f19601f8201168201806040525081019061145e9190611e08565b5061146884611985565b50505050565b60607f000000000000000000000000000000000000000000000000000000000000000082101561152a57600280546114a590611d83565b80601f01602080910402602001604051908101604052809291908181526020018280546114d190611d83565b801561151e5780601f106114f35761010080835404028352916020019161151e565b820191906000526020600020905b81548152906001019060200180831161150157829003601f168201915b50505050509050919050565b505060408051602081019091526000815290565b7f0000000000000000000000000000000000000000000000000000000000000000811061157d5760405162461bcd60e51b815260040161060390611dbe565b60008181526020819052604081209061159583610e27565b90508160020154811061162757600282015460405163a9059cbb60e01b81526001600160a01b037f0000000000000000000000000000000000000000000000000000000000000000169163a9059cbb91610dc5917f0000000000000000000000000000000000000000000000000000000000000000916004016001600160a01b03929092168252602082015260400190565b610e228382611862565b7f000000000000000000000000000000000000000000000000000000000000000082106116705760405162461bcd60e51b815260040161060390611dbe565b600082815260208190526040902080546001600160a01b031633146116c45760405162461bcd60e51b815260206004820152600a60248201526927b7363c9037bbb732b960b11b6044820152606401610603565b818160010154111561171b57806004015442101561171b5760405162461bcd60e51b8152602060048201526014602482015273546f6f20736f6f6e20746f20646563726561736560601b6044820152606401610603565b6001810182905561174c7f000000000000000000000000000000000000000000000000000000000000000042611e61565b600482015560405182815283907fb607f618d42004a68651337cff412752d042354c4fd3a56fe8ae01e34fa969c8906020016110c9565b7f000000000000000000000000000000000000000000000000000000000000000083106117c25760405162461bcd60e51b815260040161060390611dbe565b600083815260208190526040902080546001600160a01b031633146118215760405162461bcd60e51b815260206004820152601560248201527413db9b1e481bdddb995c8818da185b99d95cc81859605a1b6044820152606401610603565b7fae0663072bcb7f24f009e8ad0e7bd01cb00a189760d428d8ff269525830db40784848460405161185493929190611ed1565b60405180910390a150505050565b60008281526020819052604090819020905163a9059cbb60e01b81526001600160a01b037f000000000000000000000000000000000000000000000000000000000000000081166004830152602482018490527f0000000000000000000000000000000000000000000000000000000000000000169063a9059cbb90604401602060405180830381600087803b1580156118fb57600080fd5b505af115801561190f573d6000803e3d6000fd5b505050506040513d601f19601f820116820180604052508101906119339190611e08565b50818160020160008282546119489190611e79565b909155505042600382015560405182815283907f65c3c2ca9c0a91fa382799173e8eaba4f2d15dc17f9d7b3194a673f5311ccdaa906020016110c9565b6000818152602081815260408083208054600282018590557f00000000000000000000000000000000000000000000000000000000000000006001600160a01b039081166001600160a01b03198316178355600183018690559251948552909391169184917fb607f618d42004a68651337cff412752d042354c4fd3a56fe8ae01e34fa969c8910160405180910390a282600080516020611f088339815191526000604051611a3691815260200190565b60405180910390a260405183906000906001600160a01b038416907fddf252ad1be2c89b69c2b068fc378daa952ba7f163c4a11628f55a4df523b3ef908390a4505050565b600060208284031215611a8d57600080fd5b81356001600160e01b031981168114610ec657600080fd5b600060208083528351808285015260005b81811015611ad257858101830151858201604001528201611ab6565b81811115611ae4576000604083870101525b50601f01601f1916929092016040019392505050565b600060208284031215611b0c57600080fd5b5035919050565b80356001600160a01b0381168114611b2a57600080fd5b919050565b60008060408385031215611b4257600080fd5b611b4b83611b13565b946020939093013593505050565b60008060008060808587031215611b6f57600080fd5b5050823594602084013594506040840135936060013592509050565b600080600060608486031215611ba057600080fd5b611ba984611b13565b9250611bb760208501611b13565b9150604084013590509250925092565b600060208284031215611bd957600080fd5b610ec682611b13565b8015158114611bf057600080fd5b50565b60008060408385031215611c0657600080fd5b611c0f83611b13565b91506020830135611c1f81611be2565b809150509250929050565b60008060408385031215611c3d57600080fd5b50508035926020909101359150565b60008083601f840112611c5e57600080fd5b50813567ffffffffffffffff811115611c7657600080fd5b602083019150836020828501011115611c8e57600080fd5b9250929050565b600080600080600060808688031215611cad57600080fd5b611cb686611b13565b9450611cc460208701611b13565b935060408601359250606086013567ffffffffffffffff811115611ce757600080fd5b611cf388828901611c4c565b969995985093965092949392505050565b600080600060408486031215611d1957600080fd5b83359250602084013567ffffffffffffffff811115611d3757600080fd5b611d4386828701611c4c565b9497909650939450505050565b60008060408385031215611d6357600080fd5b611d6c83611b13565b9150611d7a60208401611b13565b90509250929050565b600181811c90821680611d9757607f821691505b60208210811415611db857634e487b7160e01b600052602260045260246000fd5b50919050565b6020808252600c908201526b4e6f74206578697374696e6760a01b604082015260600190565b6001600160a01b039384168152919092166020820152604081019190915260600190565b600060208284031215611e1a57600080fd5b8151610ec681611be2565b6020808252600c908201526b2130b2103a3930b739b332b960a11b604082015260600190565b634e487b7160e01b600052601160045260246000fd5b60008219821115611e7457611e74611e4b565b500190565b600082821015611e8b57611e8b611e4b565b500390565b6000816000190483118215151615611eaa57611eaa611e4b565b500290565b600082611ecc57634e487b7160e01b600052601260045260246000fd5b500490565b83815260406020820152816040820152818360608301376000818301606090810191909152601f909201601f191601019291505056fee2c574ac6f15605f6ea5c165e0fa6af366d8f1ee6203f57dd2d3e8c82ce27aa7a2646970667358221220b76dbe9e601e93614d9193c4e472d003df20cb3e22802c30a96dd4e221ff9a7564736f6c63430008090033a2646970667358221220ad616afd15b438003427519330ce896860e68b1f67528d805ad0b17b7678602064736f6c63430008090033",
  "devdoc": {
    "kind": "dev",
    "methods": {},
    "version": 1
  },
  "userdoc": {
    "kind": "user",
    "methods": {},
    "version": 1
  },
  "storageLayout": {
    "storage": [],
    "types": null
  }
}