{
  "address": "0x0b9e03455Fed83f209Fa7ce596c93ba6aBAd1f46",
  "abi": [
    {
      "anonymous": false,
      "inputs": [
        {
          "indexed": false,
          "internalType": "contract HarbergerAdsFull",
          "name": "_address",
          "type": "address"
        },
        {
          "indexed": false,
          "internalType": "uint256",
          "name": "_totalSupply",
          "type": "uint256"
        },
        {
          "indexed": false,
          "internalType": "uint256",
          "name": "_taxRate",
          "type": "uint256"
        },
        {
          "indexed": false,
          "internalType": "uint256",
          "name": "_cooldownPeriod",
          "type": "uint256"
        },
        {
          "indexed": false,
          "internalType": "contract IERC20",
          "name": "_currency",
          "type": "address"
        },
        {
          "indexed": false,
          "internalType": "address",
          "name": "_collector",
          "type": "address"
        }
      ],
      "name": "CollectionCreated",
      "type": "event"
    },
    {
      "inputs": [
        {
          "internalType": "uint256",
          "name": "_totalSupply",
          "type": "uint256"
        },
        {
          "internalType": "uint256",
          "name": "_taxRate",
          "type": "uint256"
        },
        {
          "internalType": "uint256",
          "name": "_cooldownPeriod",
          "type": "uint256"
        },
        {
          "internalType": "contract IERC20",
          "name": "_currency",
          "type": "address"
        },
        {
          "internalType": "address",
          "name": "_collector",
          "type": "address"
        },
        {
          "internalType": "string",
          "name": "_name",
          "type": "string"
        },
        {
          "internalType": "string",
          "name": "_symbol",
          "type": "string"
        },
        {
          "internalType": "string",
          "name": "_tokenURI",
          "type": "string"
        }
      ],
      "name": "create",
      "outputs": [],
      "stateMutability": "nonpayable",
      "type": "function"
    }
  ],
  "transactionHash": "0x6f9ee3eb24aa025d1f31aa4022dee04af2d8c4730cfdd66b8ed560d0cbefa355",
  "args": [],
  "numDeployments": 8,
  "solcInputHash": "98ecd25c011dadf19cdc19e8d517976d",
  "bytecode": "0x608060405234801561001057600080fd5b50613b31806100206000396000f3fe608060405234801561001057600080fd5b506004361061002b5760003560e01c80634cc2ad8e14610030575b600080fd5b61004361003e366004610202565b610045565b005b60008a8a8a8a8a8a8a8a60405161005b90610190565b61006c98979695949392919061030a565b604051809103906000f080158015610088573d6000803e3d6000fd5b5090507f474df8b2df399ae66b461e124d7b64cda0dc3b3a27de0a9068d6c46e1a962e71818d8d8d8d8d6040516100f9969594939291906001600160a01b0396871681526020810195909552604085019390935260608401919091528316608083015290911660a082015260c00190565b60405180910390a160005b8c81101561018157604051636902622f60e11b81526001600160a01b0383169063d204c45e9061013c90339088908890600401610366565b600060405180830381600087803b15801561015657600080fd5b505af115801561016a573d6000803e3d6000fd5b50505050808061017990610394565b915050610104565b50505050505050505050505050565b61373e806103be83390190565b80356001600160a01b03811681146101b457600080fd5b919050565b60008083601f8401126101cb57600080fd5b50813567ffffffffffffffff8111156101e357600080fd5b6020830191508360208285010111156101fb57600080fd5b9250929050565b60008060008060008060008060008060006101008c8e03121561022457600080fd5b8b359a5060208c0135995060408c0135985061024260608d0161019d565b975061025060808d0161019d565b965067ffffffffffffffff8060a08e0135111561026c57600080fd5b61027c8e60a08f01358f016101b9565b909750955060c08d013581101561029257600080fd5b6102a28e60c08f01358f016101b9565b909550935060e08d01358110156102b857600080fd5b506102c98d60e08e01358e016101b9565b81935080925050509295989b509295989b9093969950565b81835281816020850137506000828201602090810191909152601f909101601f19169091010190565b888152602081018890526001600160a01b0387811660408301528616606082015260c06080820181905260009061034490830186886102e1565b82810360a08401526103578185876102e1565b9b9a5050505050505050505050565b6001600160a01b038416815260406020820181905260009061038b90830184866102e1565b95945050505050565b60006000198214156103b657634e487b7160e01b600052601160045260246000fd5b506001019056fe6101006040523480156200001257600080fd5b506040516200373e3803806200373e833981016040819052620000359162000289565b8151829082906200004e906000906020850190620000fd565b50805162000064906001906020840190620000fd565b505050620000816200007b620000a760201b60201c565b620000ab565b50506080939093526001600160a01b0390811660c05260a0919091521660e0526200036d565b3390565b600b80546001600160a01b038381166001600160a01b0319831681179093556040519116919082907f8be0079c531659141344cd1fd0a4f28419497f9722a3daafe3b4186f6b6457e090600090a35050565b8280546200010b9062000330565b90600052602060002090601f0160209004810192826200012f57600085556200017a565b82601f106200014a57805160ff19168380011785556200017a565b828001600101855582156200017a579182015b828111156200017a5782518255916020019190600101906200015d565b50620001889291506200018c565b5090565b5b808211156200018857600081556001016200018d565b6001600160a01b0381168114620001b957600080fd5b50565b634e487b7160e01b600052604160045260246000fd5b600082601f830112620001e457600080fd5b81516001600160401b0380821115620002015762000201620001bc565b604051601f8301601f19908116603f011681019082821181831017156200022c576200022c620001bc565b816040528381526020925086838588010111156200024957600080fd5b600091505b838210156200026d57858201830151818301840152908201906200024e565b838211156200027f5760008385830101525b9695505050505050565b60008060008060008060c08789031215620002a357600080fd5b86519550602087015194506040870151620002be81620001a3565b6060880151909450620002d181620001a3565b60808801519093506001600160401b0380821115620002ef57600080fd5b620002fd8a838b01620001d2565b935060a08901519150808211156200031457600080fd5b506200032389828a01620001d2565b9150509295509295509295565b600181811c908216806200034557607f821691505b602082108114156200036757634e487b7160e01b600052602260045260246000fd5b50919050565b60805160a05160c05160e0516132fd620004416000396000818161047e015281816108c901528181610aa901528181610f3901528181611780015281816118b201528181611d120152611dd90152600081816105450152818161089a015281816109db01528181610a6701528181610bb801528181610e6c01528181610f0c0152818161137e015281816115cc015281816116aa01528181611753015281816118850152611d4101526000818161025901528181610cc201526119d901526000818161043301526112da01526132fd6000f3fe608060405234801561001057600080fd5b50600436106102275760003560e01c8063715018a611610130578063c397ae39116100b8578063e5a6b10f1161007c578063e5a6b10f14610540578063e6d2806314610567578063e985e9c51461057a578063f2fde38b146105b6578063f9128388146105c957600080fd5b8063c397ae39146104e1578063c87b56dd146104f4578063ce3f865f14610507578063cf264e9a1461051a578063d204c45e1461052d57600080fd5b8063913e77ad116100ff578063913e77ad1461047957806395d89b41146104a0578063a22cb465146104a8578063a65e2cfd146104bb578063b88d4fde146104ce57600080fd5b8063715018a614610426578063771a3a1d1461042e5780638a784c4a146104555780638da5cb5b1461046857600080fd5b806323b872dd116101b35780634f6ccce7116101825780634f6ccce7146103d15780635a8b754d146103e457806362043bd8146103f75780636352211e1461040057806370a082311461041357600080fd5b806323b872dd146103855780632f745c591461039857806337966404146103ab57806342842e0e146103be57600080fd5b8063095ea7b3116101fa578063095ea7b3146102c957806311a7a4c0146102de5780631281311d1461035757806318160ddd1461036a57806320c5429b1461037257600080fd5b806301ffc9a71461022c57806304646a491461025457806306fdde0314610289578063081812fc1461029e575b600080fd5b61023f61023a366004612b87565b6105e9565b60405190151581526020015b60405180910390f35b61027b7f000000000000000000000000000000000000000000000000000000000000000081565b60405190815260200161024b565b6102916105fa565b60405161024b9190612bfc565b6102b16102ac366004612c0f565b61068c565b6040516001600160a01b03909116815260200161024b565b6102dc6102d7366004612c44565b6106b3565b005b6103256102ec366004612c0f565b600c60205260009081526040902080546001820154600283015460038401546004909401546001600160a01b0390931693919290919085565b604080516001600160a01b0390961686526020860194909452928401919091526060830152608082015260a00161024b565b6102dc610365366004612c6e565b6107ce565b60085461027b565b6102dc610380366004612c0f565b610da8565b6102dc610393366004612ca0565b610fd2565b61027b6103a6366004612c44565b611003565b61027b6103b9366004612c0f565b611099565b6102dc6103cc366004612ca0565b611105565b61027b6103df366004612c0f565b611120565b61027b6103f2366004612c0f565b6111b3565b61027b61271081565b6102b161040e366004612c0f565b6111d5565b61027b610421366004612cdc565b611235565b6102dc6112bb565b61027b7f000000000000000000000000000000000000000000000000000000000000000081565b61027b610463366004612c0f565b6112cf565b600b546001600160a01b03166102b1565b6102b17f000000000000000000000000000000000000000000000000000000000000000081565b610291611319565b6102dc6104b6366004612d05565b611328565b6102dc6104c9366004612d3c565b611337565b6102dc6104dc366004612dea565b61146c565b6102dc6104ef366004612d3c565b6114a4565b610291610502366004612c0f565b611818565b6102dc610515366004612c0f565b611823565b6102dc610528366004612d3c565b6118f8565b6102dc61053b366004612e66565b611a35565b6102b17f000000000000000000000000000000000000000000000000000000000000000081565b6102dc610575366004612ec8565b611a6c565b61023f610588366004612f44565b6001600160a01b03918216600090815260056020908152604080832093909416825291909152205460ff1690565b6102dc6105c4366004612cdc565b611b2d565b61027b6105d7366004612cdc565b600d6020526000908152604090205481565b60006105f482611ba6565b92915050565b60606000805461060990612f77565b80601f016020809104026020016040519081016040528092919081815260200182805461063590612f77565b80156106825780601f1061065757610100808354040283529160200191610682565b820191906000526020600020905b81548152906001019060200180831161066557829003601f168201915b5050505050905090565b600061069782611bcb565b506000908152600460205260409020546001600160a01b031690565b60006106be826111d5565b9050806001600160a01b0316836001600160a01b031614156107315760405162461bcd60e51b815260206004820152602160248201527f4552433732313a20617070726f76616c20746f2063757272656e74206f776e656044820152603960f91b60648201526084015b60405180910390fd5b336001600160a01b038216148061074d575061074d8133610588565b6107bf5760405162461bcd60e51b815260206004820152603e60248201527f4552433732313a20617070726f76652063616c6c6572206973206e6f7420746f60448201527f6b656e206f776e6572206e6f7220617070726f76656420666f7220616c6c00006064820152608401610728565b6107c98383611c2a565b505050565b6000848152600c6020526040902060085485106107fd5760405162461bcd60e51b815260040161072890612fb2565b80546001600160a01b031633141561084f5760405162461bcd60e51b815260206004820152601560248201527410d85b89dd08189d5e481e5bdd5c881bdddb881859605a1b6044820152606401610728565b600061085a86611099565b825460028401549192506001600160a01b03169082111561094b57610883878460020154611c98565b6040516323b872dd60e01b81526001600160a01b037f000000000000000000000000000000000000000000000000000000000000000016906323b872dd906108f39033907f0000000000000000000000000000000000000000000000000000000000000000908b90600401612fd8565b602060405180830381600087803b15801561090d57600080fd5b505af1158015610921573d6000803e3d6000fd5b505050506040513d601f19601f820116820180604052508101906109459190612ffc565b50610b56565b858360010154111561098f5760405162461bcd60e51b815260206004820152600d60248201526c2637bbb130b6361037b33332b960991b6044820152606401610728565b61099d878460020154611c98565b82546001600160a01b031615610a5b578254600284015460405163a9059cbb60e01b81526001600160a01b03928316600482015260248101919091527f00000000000000000000000000000000000000000000000000000000000000009091169063a9059cbb90604401602060405180830381600087803b158015610a2157600080fd5b505af1158015610a35573d6000803e3d6000fd5b505050506040513d601f19601f82011682018060405250810190610a599190612ffc565b505b82546001600160a01b037f00000000000000000000000000000000000000000000000000000000000000008116916323b872dd9133911615610aa75785546001600160a01b0316610ac9565b7f00000000000000000000000000000000000000000000000000000000000000005b896040518463ffffffff1660e01b8152600401610ae893929190612fd8565b602060405180830381600087803b158015610b0257600080fd5b505af1158015610b16573d6000803e3d6000fd5b505050506040513d601f19601f82011682018060405250810190610b3a9190612ffc565b610b565760405162461bcd60e51b815260040161072890613019565b610b5f856111b3565b841015610ba15760405162461bcd60e51b815260206004820152601060248201526f4e6f7420656e6f7567682066756e647360801b6044820152606401610728565b6040516323b872dd60e01b81526001600160a01b037f000000000000000000000000000000000000000000000000000000000000000016906323b872dd90610bf190339030908990600401612fd8565b602060405180830381600087803b158015610c0b57600080fd5b505af1158015610c1f573d6000803e3d6000fd5b505050506040513d601f19601f82011682018060405250810190610c439190612ffc565b610c5f5760405162461bcd60e51b815260040161072890613019565b82546001600160a01b031615610c9f5782546001600160a01b03166000908152600d60205260408120805460019290610c99908490613055565b90915550505b82546001600160a01b031916331783556002830184905560018301859055610ce77f00000000000000000000000000000000000000000000000000000000000000004261306c565b6004840155426003840155336000908152600d60205260408120805460019290610d1290849061306c565b9091555050604051879033906001600160a01b038416906000805160206132a883398151915290600090a4867fb607f618d42004a68651337cff412752d042354c4fd3a56fe8ae01e34fa969c886604051610d6f91815260200190565b60405180910390a28660008051602061328883398151915285604051610d9791815260200190565b60405180910390a250505050505050565b6008548110610dc95760405162461bcd60e51b815260040161072890612fb2565b6000818152600c6020526040902080546001600160a01b03163314610e1c5760405162461bcd60e51b81526020600482015260096024820152682737ba1037bbb732b960b91b6044820152606401610728565b6000610e2783611099565b905081600201548111610ef057610e3e8382611c98565b8154600283015460405163a9059cbb60e01b81526001600160a01b03928316600482015260248101919091527f00000000000000000000000000000000000000000000000000000000000000009091169063a9059cbb90604401602060405180830381600087803b158015610eb257600080fd5b505af1158015610ec6573d6000803e3d6000fd5b505050506040513d601f19601f82011682018060405250810190610eea9190612ffc565b50610fc9565b600282015460405163a9059cbb60e01b81526001600160a01b037f0000000000000000000000000000000000000000000000000000000000000000169163a9059cbb91610f75917f0000000000000000000000000000000000000000000000000000000000000000916004016001600160a01b03929092168252602082015260400190565b602060405180830381600087803b158015610f8f57600080fd5b505af1158015610fa3573d6000803e3d6000fd5b505050506040513d601f19601f82011682018060405250810190610fc79190612ffc565b505b6107c983611dbd565b610fdc3382611eca565b610ff85760405162461bcd60e51b815260040161072890613084565b6107c9838383611f48565b600061100e83611235565b82106110705760405162461bcd60e51b815260206004820152602b60248201527f455243373231456e756d657261626c653a206f776e657220696e646578206f7560448201526a74206f6620626f756e647360a81b6064820152608401610728565b506001600160a01b03919091166000908152600660209081526040808320938352929052205490565b60006110a460085490565b82106110c25760405162461bcd60e51b815260040161072890612fb2565b6000828152600c6020526040812060018101549091906110e1906112cf565b90508160030154426110f39190613055565b6110fd90826130d2565b949350505050565b6107c98383836040518060200160405280600081525061146c565b600061112b60085490565b821061118e5760405162461bcd60e51b815260206004820152602c60248201527f455243373231456e756d657261626c653a20676c6f62616c20696e646578206f60448201526b7574206f6620626f756e647360a01b6064820152608401610728565b600882815481106111a1576111a16130f1565b90600052602060002001549050919050565b6000806111bf836112cf565b90506111ce81622819a06130d2565b9392505050565b6000818152600260205260408120546001600160a01b0316806105f45760405162461bcd60e51b8152602060048201526018602482015277115490cdcc8c4e881a5b9d985b1a59081d1bdad95b88125160421b6044820152606401610728565b60006001600160a01b03821661129f5760405162461bcd60e51b815260206004820152602960248201527f4552433732313a2061646472657373207a65726f206973206e6f7420612076616044820152683634b21037bbb732b960b91b6064820152608401610728565b506001600160a01b031660009081526003602052604090205490565b6112c36120dd565b6112cd6000612137565b565b6000806127106112ff7f0000000000000000000000000000000000000000000000000000000000000000856130d2565b611309919061311d565b90506111ce6301e133808261311d565b60606001805461060990612f77565b611333338383612189565b5050565b60085482106113585760405162461bcd60e51b815260040161072890612fb2565b6000828152600c60205260409081902090516323b872dd60e01b81526001600160a01b037f000000000000000000000000000000000000000000000000000000000000000016906323b872dd906113b790339030908790600401612fd8565b602060405180830381600087803b1580156113d157600080fd5b505af11580156113e5573d6000803e3d6000fd5b505050506040513d601f19601f820116820180604052508101906114099190612ffc565b6114255760405162461bcd60e51b815260040161072890613019565b81816002016000828254611439919061306c565b909155505060028101546040519081528390600080516020613288833981519152906020015b60405180910390a2505050565b6114763383611eca565b6114925760405162461bcd60e51b815260040161072890613084565b61149e84848484612258565b50505050565b60085482106114c55760405162461bcd60e51b815260040161072890612fb2565b6000828152600c6020526040902080546001600160a01b031633146115185760405162461bcd60e51b81526020600482015260096024820152682737ba1037bbb732b960b91b6044820152606401610728565b806004015442101561155d5760405162461bcd60e51b815260206004820152600e60248201526d57616974206d6f72652074696d6560901b6044820152606401610728565b600061156884611099565b9050816002015481116117375761157f8482611c98565b816002015483101561167c578282600201600082825461159f9190613055565b9091555050815460405163a9059cbb60e01b81526001600160a01b039182166004820152602481018590527f00000000000000000000000000000000000000000000000000000000000000009091169063a9059cbb90604401602060405180830381600087803b15801561161257600080fd5b505af1158015611626573d6000803e3d6000fd5b505050506040513d601f19601f8201168201806040525081019061164a9190612ffc565b5083600080516020613288833981519152836002015460405161166f91815260200190565b60405180910390a261149e565b8154600283015460405163a9059cbb60e01b81526001600160a01b03928316600482015260248101919091527f00000000000000000000000000000000000000000000000000000000000000009091169063a9059cbb90604401602060405180830381600087803b1580156116f057600080fd5b505af1158015611704573d6000803e3d6000fd5b505050506040513d601f19601f820116820180604052508101906117289190612ffc565b5061173284611dbd565b61149e565b600282015460405163a9059cbb60e01b81526001600160a01b037f0000000000000000000000000000000000000000000000000000000000000000169163a9059cbb916117bc917f0000000000000000000000000000000000000000000000000000000000000000916004016001600160a01b03929092168252602082015260400190565b602060405180830381600087803b1580156117d657600080fd5b505af11580156117ea573d6000803e3d6000fd5b505050506040513d601f19601f8201168201806040525081019061180e9190612ffc565b5061149e84611dbd565b60606105f48261228b565b60085481106118445760405162461bcd60e51b815260040161072890612fb2565b6000818152600c602052604081209061185c83611099565b9050816002015481106118ee57600282015460405163a9059cbb60e01b81526001600160a01b037f0000000000000000000000000000000000000000000000000000000000000000169163a9059cbb91610f75917f0000000000000000000000000000000000000000000000000000000000000000916004016001600160a01b03929092168252602082015260400190565b6107c98382611c98565b60085482106119195760405162461bcd60e51b815260040161072890612fb2565b6000828152600c6020526040902080546001600160a01b0316331461196d5760405162461bcd60e51b815260206004820152600a60248201526927b7363c9037bbb732b960b11b6044820152606401610728565b81816001015411156119c45780600401544210156119c45760405162461bcd60e51b8152602060048201526014602482015273546f6f20736f6f6e20746f20646563726561736560601b6044820152606401610728565b6119cd83611823565b600181018290556119fe7f00000000000000000000000000000000000000000000000000000000000000004261306c565b600482015560405182815283907fb607f618d42004a68651337cff412752d042354c4fd3a56fe8ae01e34fa969c89060200161145f565b611a3d6120dd565b6000611a48600e5490565b9050611a58600e80546001019055565b611a628382612394565b6107c981836123ae565b6008548310611a8d5760405162461bcd60e51b815260040161072890612fb2565b6000838152600c6020526040902080546001600160a01b03163314611aec5760405162461bcd60e51b815260206004820152601560248201527413db9b1e481bdddb995c8818da185b99d95cc81859605a1b6044820152606401610728565b7fae0663072bcb7f24f009e8ad0e7bd01cb00a189760d428d8ff269525830db407848484604051611b1f93929190613131565b60405180910390a150505050565b611b356120dd565b6001600160a01b038116611b9a5760405162461bcd60e51b815260206004820152602660248201527f4f776e61626c653a206e6577206f776e657220697320746865207a65726f206160448201526564647265737360d01b6064820152608401610728565b611ba381612137565b50565b60006001600160e01b0319821663780e9d6360e01b14806105f457506105f482612448565b6000818152600260205260409020546001600160a01b0316611ba35760405162461bcd60e51b8152602060048201526018602482015277115490cdcc8c4e881a5b9d985b1a59081d1bdad95b88125160421b6044820152606401610728565b600081815260046020526040902080546001600160a01b0319166001600160a01b0384169081179091558190611c5f826111d5565b6001600160a01b03167f8c5be1e5ebec7d5bd14f71427d1e84f3dd0314c0f7b2291e5b200ac8c7c3b92560405160405180910390a45050565b6000828152600c6020526040812060028101805491928492611cbb908490613055565b909155505042600382015560405182815283907f65c3c2ca9c0a91fa382799173e8eaba4f2d15dc17f9d7b3194a673f5311ccdaa9060200160405180910390a260405163a9059cbb60e01b81526001600160a01b037f000000000000000000000000000000000000000000000000000000000000000081166004830152602482018490527f0000000000000000000000000000000000000000000000000000000000000000169063a9059cbb90604401602060405180830381600087803b158015611d8557600080fd5b505af1158015611d99573d6000803e3d6000fd5b505050506040513d601f19601f8201168201806040525081019061149e9190612ffc565b6000818152600c602090815260408083208054600282018590557f00000000000000000000000000000000000000000000000000000000000000006001600160a01b039081166001600160a01b031983161783556001808401879055338752600d909552928520805492959390911693929091611e3b908490613055565b90915550506040516000815283907fb607f618d42004a68651337cff412752d042354c4fd3a56fe8ae01e34fa969c89060200160405180910390a2826000805160206132888339815191526000604051611e9791815260200190565b60405180910390a260405183906000906001600160a01b038416906000805160206132a8833981519152908390a4505050565b600080611ed6836111d5565b9050806001600160a01b0316846001600160a01b03161480611f1d57506001600160a01b0380821660009081526005602090815260408083209388168352929052205460ff165b806110fd5750836001600160a01b0316611f368461068c565b6001600160a01b031614949350505050565b826001600160a01b0316611f5b826111d5565b6001600160a01b031614611fbf5760405162461bcd60e51b815260206004820152602560248201527f4552433732313a207472616e736665722066726f6d20696e636f72726563742060448201526437bbb732b960d91b6064820152608401610728565b6001600160a01b0382166120215760405162461bcd60e51b8152602060048201526024808201527f4552433732313a207472616e7366657220746f20746865207a65726f206164646044820152637265737360e01b6064820152608401610728565b61202c838383612498565b612037600082611c2a565b6001600160a01b0383166000908152600360205260408120805460019290612060908490613055565b90915550506001600160a01b038216600090815260036020526040812080546001929061208e90849061306c565b909155505060008181526002602052604080822080546001600160a01b0319166001600160a01b0386811691821790925591518493918716916000805160206132a883398151915291a4505050565b600b546001600160a01b031633146112cd5760405162461bcd60e51b815260206004820181905260248201527f4f776e61626c653a2063616c6c6572206973206e6f7420746865206f776e65726044820152606401610728565b600b80546001600160a01b038381166001600160a01b0319831681179093556040519116919082907f8be0079c531659141344cd1fd0a4f28419497f9722a3daafe3b4186f6b6457e090600090a35050565b816001600160a01b0316836001600160a01b031614156121eb5760405162461bcd60e51b815260206004820152601960248201527f4552433732313a20617070726f766520746f2063616c6c6572000000000000006044820152606401610728565b6001600160a01b03838116600081815260056020908152604080832094871680845294825291829020805460ff191686151590811790915591519182527f17307eab39ab6107e8899845ad3d59bd9653f200f220920489ca2b5937696c31910160405180910390a3505050565b612263848484611f48565b61226f848484846124a3565b61149e5760405162461bcd60e51b815260040161072890613167565b606061229682611bcb565b6000828152600a6020526040812080546122af90612f77565b80601f01602080910402602001604051908101604052809291908181526020018280546122db90612f77565b80156123285780601f106122fd57610100808354040283529160200191612328565b820191906000526020600020905b81548152906001019060200180831161230b57829003601f168201915b50505050509050600061234660408051602081019091526000815290565b9050805160001415612359575092915050565b81511561238b5780826040516020016123739291906131b9565b60405160208183030381529060405292505050919050565b6110fd846125b0565b611333828260405180602001604052806000815250612623565b6000828152600260205260409020546001600160a01b03166124295760405162461bcd60e51b815260206004820152602e60248201527f45524337323155524953746f726167653a2055524920736574206f66206e6f6e60448201526d32bc34b9ba32b73a103a37b5b2b760911b6064820152608401610728565b6000828152600a6020908152604090912082516107c992840190612ad8565b60006001600160e01b031982166380ac58cd60e01b148061247957506001600160e01b03198216635b5e139f60e01b145b806105f457506301ffc9a760e01b6001600160e01b03198316146105f4565b6107c9838383612656565b60006001600160a01b0384163b156125a557604051630a85bd0160e11b81526001600160a01b0385169063150b7a02906124e79033908990889088906004016131e8565b602060405180830381600087803b15801561250157600080fd5b505af1925050508015612531575060408051601f3d908101601f1916820190925261252e91810190613225565b60015b61258b573d80801561255f576040519150601f19603f3d011682016040523d82523d6000602084013e612564565b606091505b5080516125835760405162461bcd60e51b815260040161072890613167565b805181602001fd5b6001600160e01b031916630a85bd0160e11b1490506110fd565b506001949350505050565b60606125bb82611bcb565b60006125d260408051602081019091526000815290565b905060008151116125f257604051806020016040528060008152506111ce565b806125fc8461270e565b60405160200161260d9291906131b9565b6040516020818303038152906040529392505050565b61262d838361280c565b61263a60008484846124a3565b6107c95760405162461bcd60e51b815260040161072890613167565b6001600160a01b0383166126b1576126ac81600880546000838152600960205260408120829055600182018355919091527ff3f7a9fe364faab93b216da50a3214154f22a0a2b415b23a84c8169e8b636ee30155565b6126d4565b816001600160a01b0316836001600160a01b0316146126d4576126d48382612948565b6001600160a01b0382166126eb576107c9816129e5565b826001600160a01b0316826001600160a01b0316146107c9576107c98282612a94565b6060816127325750506040805180820190915260018152600360fc1b602082015290565b8160005b811561275c578061274681613242565b91506127559050600a8361311d565b9150612736565b60008167ffffffffffffffff81111561277757612777612d5e565b6040519080825280601f01601f1916602001820160405280156127a1576020820181803683370190505b5090505b84156110fd576127b6600183613055565b91506127c3600a8661325d565b6127ce90603061306c565b60f81b8183815181106127e3576127e36130f1565b60200101906001600160f81b031916908160001a905350612805600a8661311d565b94506127a5565b6001600160a01b0382166128625760405162461bcd60e51b815260206004820181905260248201527f4552433732313a206d696e7420746f20746865207a65726f20616464726573736044820152606401610728565b6000818152600260205260409020546001600160a01b0316156128c75760405162461bcd60e51b815260206004820152601c60248201527f4552433732313a20746f6b656e20616c7265616479206d696e746564000000006044820152606401610728565b6128d360008383612498565b6001600160a01b03821660009081526003602052604081208054600192906128fc90849061306c565b909155505060008181526002602052604080822080546001600160a01b0319166001600160a01b03861690811790915590518392906000805160206132a8833981519152908290a45050565b6000600161295584611235565b61295f9190613055565b6000838152600760205260409020549091508082146129b2576001600160a01b03841660009081526006602090815260408083208584528252808320548484528184208190558352600790915290208190555b5060009182526007602090815260408084208490556001600160a01b039094168352600681528383209183525290812055565b6008546000906129f790600190613055565b60008381526009602052604081205460088054939450909284908110612a1f57612a1f6130f1565b906000526020600020015490508060088381548110612a4057612a406130f1565b6000918252602080832090910192909255828152600990915260408082208490558582528120556008805480612a7857612a78613271565b6001900381819060005260206000200160009055905550505050565b6000612a9f83611235565b6001600160a01b039093166000908152600660209081526040808320868452825280832085905593825260079052919091209190915550565b828054612ae490612f77565b90600052602060002090601f016020900481019282612b065760008555612b4c565b82601f10612b1f57805160ff1916838001178555612b4c565b82800160010185558215612b4c579182015b82811115612b4c578251825591602001919060010190612b31565b50612b58929150612b5c565b5090565b5b80821115612b585760008155600101612b5d565b6001600160e01b031981168114611ba357600080fd5b600060208284031215612b9957600080fd5b81356111ce81612b71565b60005b83811015612bbf578181015183820152602001612ba7565b8381111561149e5750506000910152565b60008151808452612be8816020860160208601612ba4565b601f01601f19169290920160200192915050565b6020815260006111ce6020830184612bd0565b600060208284031215612c2157600080fd5b5035919050565b80356001600160a01b0381168114612c3f57600080fd5b919050565b60008060408385031215612c5757600080fd5b612c6083612c28565b946020939093013593505050565b60008060008060808587031215612c8457600080fd5b5050823594602084013594506040840135936060013592509050565b600080600060608486031215612cb557600080fd5b612cbe84612c28565b9250612ccc60208501612c28565b9150604084013590509250925092565b600060208284031215612cee57600080fd5b6111ce82612c28565b8015158114611ba357600080fd5b60008060408385031215612d1857600080fd5b612d2183612c28565b91506020830135612d3181612cf7565b809150509250929050565b60008060408385031215612d4f57600080fd5b50508035926020909101359150565b634e487b7160e01b600052604160045260246000fd5b600067ffffffffffffffff80841115612d8f57612d8f612d5e565b604051601f8501601f19908116603f01168101908282118183101715612db757612db7612d5e565b81604052809350858152868686011115612dd057600080fd5b858560208301376000602087830101525050509392505050565b60008060008060808587031215612e0057600080fd5b612e0985612c28565b9350612e1760208601612c28565b925060408501359150606085013567ffffffffffffffff811115612e3a57600080fd5b8501601f81018713612e4b57600080fd5b612e5a87823560208401612d74565b91505092959194509250565b60008060408385031215612e7957600080fd5b612e8283612c28565b9150602083013567ffffffffffffffff811115612e9e57600080fd5b8301601f81018513612eaf57600080fd5b612ebe85823560208401612d74565b9150509250929050565b600080600060408486031215612edd57600080fd5b83359250602084013567ffffffffffffffff80821115612efc57600080fd5b818601915086601f830112612f1057600080fd5b813581811115612f1f57600080fd5b876020828501011115612f3157600080fd5b6020830194508093505050509250925092565b60008060408385031215612f5757600080fd5b612f6083612c28565b9150612f6e60208401612c28565b90509250929050565b600181811c90821680612f8b57607f821691505b60208210811415612fac57634e487b7160e01b600052602260045260246000fd5b50919050565b6020808252600c908201526b4e6f74206578697374696e6760a01b604082015260600190565b6001600160a01b039384168152919092166020820152604081019190915260600190565b60006020828403121561300e57600080fd5b81516111ce81612cf7565b6020808252600c908201526b2130b2103a3930b739b332b960a11b604082015260600190565b634e487b7160e01b600052601160045260246000fd5b6000828210156130675761306761303f565b500390565b6000821982111561307f5761307f61303f565b500190565b6020808252602e908201527f4552433732313a2063616c6c6572206973206e6f7420746f6b656e206f776e6560408201526d1c881b9bdc88185c1c1c9bdd995960921b606082015260800190565b60008160001904831182151516156130ec576130ec61303f565b500290565b634e487b7160e01b600052603260045260246000fd5b634e487b7160e01b600052601260045260246000fd5b60008261312c5761312c613107565b500490565b83815260406020820152816040820152818360608301376000818301606090810191909152601f909201601f1916010192915050565b60208082526032908201527f4552433732313a207472616e7366657220746f206e6f6e20455243373231526560408201527131b2b4bb32b91034b6b83632b6b2b73a32b960711b606082015260800190565b600083516131cb818460208801612ba4565b8351908301906131df818360208801612ba4565b01949350505050565b6001600160a01b038581168252841660208201526040810183905260806060820181905260009061321b90830184612bd0565b9695505050505050565b60006020828403121561323757600080fd5b81516111ce81612b71565b60006000198214156132565761325661303f565b5060010190565b60008261326c5761326c613107565b500690565b634e487b7160e01b600052603160045260246000fdfee2c574ac6f15605f6ea5c165e0fa6af366d8f1ee6203f57dd2d3e8c82ce27aa7ddf252ad1be2c89b69c2b068fc378daa952ba7f163c4a11628f55a4df523b3efa26469706673582212206f149689c22d96d85204e3035854962bd8fa6ba3bb67a4a0eb0640103e27ee6164736f6c63430008090033a2646970667358221220a638027d3f5398e2c5101b366dda251cad01b77485853597f86bdecc183bedc664736f6c63430008090033",
  "devdoc": {
    "kind": "dev",
    "methods": {},
    "version": 1
  },
  "userdoc": {
    "kind": "user",
    "methods": {},
    "version": 1
  },
  "storageLayout": {
    "storage": [],
    "types": null
  }
}